{
  "_format": "hh-sol-artifact-1",
  "contractName": "WitnetRequestRandomness",
  "sourceName": "contracts/v1/witnet-solidity-bridge/contracts/requests/WitnetRequestRandomness.sol",
  "abi": [
    {
      "inputs": [],
      "stateMutability": "nonpayable",
      "type": "constructor"
    },
    {
      "anonymous": false,
      "inputs": [
        {
          "indexed": true,
          "internalType": "address",
          "name": "by",
          "type": "address"
        },
        {
          "indexed": true,
          "internalType": "contract Clonable",
          "name": "self",
          "type": "address"
        },
        {
          "indexed": true,
          "internalType": "contract Clonable",
          "name": "clone",
          "type": "address"
        }
      ],
      "name": "Cloned",
      "type": "event"
    },
    {
      "anonymous": false,
      "inputs": [
        {
          "indexed": true,
          "internalType": "address",
          "name": "previousOwner",
          "type": "address"
        },
        {
          "indexed": true,
          "internalType": "address",
          "name": "newOwner",
          "type": "address"
        }
      ],
      "name": "OwnershipTransferred",
      "type": "event"
    },
    {
      "anonymous": false,
      "inputs": [
        {
          "indexed": true,
          "internalType": "address",
          "name": "by",
          "type": "address"
        },
        {
          "indexed": false,
          "internalType": "uint8",
          "name": "numWitnesses",
          "type": "uint8"
        },
        {
          "indexed": false,
          "internalType": "uint8",
          "name": "minWitnessingConsensus",
          "type": "uint8"
        },
        {
          "indexed": false,
          "internalType": "uint64",
          "name": "witnssingCollateral",
          "type": "uint64"
        },
        {
          "indexed": false,
          "internalType": "uint64",
          "name": "witnessingReward",
          "type": "uint64"
        },
        {
          "indexed": false,
          "internalType": "uint64",
          "name": "witnessingUnitaryFee",
          "type": "uint64"
        }
      ],
      "name": "WitnessingParamsChanged",
      "type": "event"
    },
    {
      "inputs": [],
      "name": "bytecode",
      "outputs": [
        {
          "internalType": "bytes",
          "name": "",
          "type": "bytes"
        }
      ],
      "stateMutability": "view",
      "type": "function"
    },
    {
      "inputs": [],
      "name": "clone",
      "outputs": [
        {
          "internalType": "contract Clonable",
          "name": "_instance",
          "type": "address"
        }
      ],
      "stateMutability": "nonpayable",
      "type": "function"
    },
    {
      "inputs": [
        {
          "internalType": "bytes32",
          "name": "_salt",
          "type": "bytes32"
        }
      ],
      "name": "cloneDeterministic",
      "outputs": [
        {
          "internalType": "contract Clonable",
          "name": "_instance",
          "type": "address"
        }
      ],
      "stateMutability": "nonpayable",
      "type": "function"
    },
    {
      "inputs": [],
      "name": "cloned",
      "outputs": [
        {
          "internalType": "bool",
          "name": "",
          "type": "bool"
        }
      ],
      "stateMutability": "view",
      "type": "function"
    },
    {
      "inputs": [],
      "name": "hash",
      "outputs": [
        {
          "internalType": "bytes32",
          "name": "",
          "type": "bytes32"
        }
      ],
      "stateMutability": "view",
      "type": "function"
    },
    {
      "inputs": [
        {
          "internalType": "bytes",
          "name": "",
          "type": "bytes"
        }
      ],
      "name": "initialize",
      "outputs": [],
      "stateMutability": "nonpayable",
      "type": "function"
    },
    {
      "inputs": [],
      "name": "owner",
      "outputs": [
        {
          "internalType": "address",
          "name": "",
          "type": "address"
        }
      ],
      "stateMutability": "view",
      "type": "function"
    },
    {
      "inputs": [],
      "name": "proxiableUUID",
      "outputs": [
        {
          "internalType": "bytes32",
          "name": "",
          "type": "bytes32"
        }
      ],
      "stateMutability": "pure",
      "type": "function"
    },
    {
      "inputs": [],
      "name": "renounceOwnership",
      "outputs": [],
      "stateMutability": "nonpayable",
      "type": "function"
    },
    {
      "inputs": [],
      "name": "self",
      "outputs": [
        {
          "internalType": "address",
          "name": "",
          "type": "address"
        }
      ],
      "stateMutability": "view",
      "type": "function"
    },
    {
      "inputs": [
        {
          "internalType": "uint64",
          "name": "_witnessingCollateral",
          "type": "uint64"
        }
      ],
      "name": "setWitnessingCollateral",
      "outputs": [],
      "stateMutability": "nonpayable",
      "type": "function"
    },
    {
      "inputs": [
        {
          "internalType": "uint64",
          "name": "_witnessingReward",
          "type": "uint64"
        },
        {
          "internalType": "uint64",
          "name": "_witnessingUnitaryFee",
          "type": "uint64"
        }
      ],
      "name": "setWitnessingFees",
      "outputs": [],
      "stateMutability": "nonpayable",
      "type": "function"
    },
    {
      "inputs": [
        {
          "internalType": "uint8",
          "name": "_numWitnesses",
          "type": "uint8"
        },
        {
          "internalType": "uint8",
          "name": "_minWitnessingConsensus",
          "type": "uint8"
        }
      ],
      "name": "setWitnessingQuorum",
      "outputs": [],
      "stateMutability": "nonpayable",
      "type": "function"
    },
    {
      "inputs": [],
      "name": "template",
      "outputs": [
        {
          "internalType": "bytes",
          "name": "",
          "type": "bytes"
        }
      ],
      "stateMutability": "view",
      "type": "function"
    },
    {
      "inputs": [],
      "name": "totalWitnessingCollateral",
      "outputs": [
        {
          "internalType": "uint128",
          "name": "",
          "type": "uint128"
        }
      ],
      "stateMutability": "view",
      "type": "function"
    },
    {
      "inputs": [],
      "name": "totalWitnessingFee",
      "outputs": [
        {
          "internalType": "uint128",
          "name": "",
          "type": "uint128"
        }
      ],
      "stateMutability": "view",
      "type": "function"
    },
    {
      "inputs": [
        {
          "internalType": "address",
          "name": "newOwner",
          "type": "address"
        }
      ],
      "name": "transferOwnership",
      "outputs": [],
      "stateMutability": "nonpayable",
      "type": "function"
    },
    {
      "inputs": [],
      "name": "witnessingParams",
      "outputs": [
        {
          "components": [
            {
              "internalType": "uint8",
              "name": "numWitnesses",
              "type": "uint8"
            },
            {
              "internalType": "uint8",
              "name": "minWitnessingConsensus",
              "type": "uint8"
            },
            {
              "internalType": "uint64",
              "name": "witnessingCollateral",
              "type": "uint64"
            },
            {
              "internalType": "uint64",
              "name": "witnessingReward",
              "type": "uint64"
            },
            {
              "internalType": "uint64",
              "name": "witnessingUnitaryFee",
              "type": "uint64"
            }
          ],
          "internalType": "struct WitnetRequestMalleableBase.WitnetRequestWitnessingParams",
          "name": "",
          "type": "tuple"
        }
      ],
      "stateMutability": "view",
      "type": "function"
    }
  ],
  "bytecode": "0x60a0604052306080523480156200001557600080fd5b50620000213362000041565b6040805160208101909152600081526200003b90620000a1565b62000b6a565b6000805160206200249583398151915280546001600160a01b038381166001600160a01b0319831681179093556040519116919082907f8be0079c531659141344cd1fd0a4f28419497f9722a3daafe3b4186f6b6457e090600090a35050565b6040805180820190915260118152700a0f120508021a01801a0210022202100b60781b6020820152620000d490620000d7565b50565b600080516020620024b58339815191528054620000f49062000824565b159050620001615760405162461bcd60e51b815260206004820152602f60248201527f5769746e6574526571756573744d616c6c6561626c65426173653a20616c726560448201526e18591e481a5b9a5d1a585b1a5e9959608a1b60648201526084015b60405180910390fd5b6200016c8162000177565b620000d43362000041565b60008151116200018b576200018b62000860565b600080516020620024b5833981519152620001a78282620008df565b507f375930152e1d0d102998be6e496b0cee86c9ecd0efef01014ecff169b17dfbab80546001600160d01b0319167403d090000000000007a120000000003b9aca00330217808255620002319060029060ff610100820416906001600160401b036201000082048116916a01000000000000000000008104821691600160901b9091041662000235565b5050565b6000826001600160401b0316116200029e5760405162461bcd60e51b815260206004820152602560248201527f5769746e6574526571756573744d616c6c6561626c65426173653a206e6f2072604482015264195dd85c9960da1b606482015260840162000158565b60018560ff1610158015620002b75750607f8560ff1611155b6200032b5760405162461bcd60e51b815260206004820152603c60248201527f5769746e6574526571756573744d616c6c6561626c65426173653a206e756d6260448201527f6572206f66207769746e6573736573206f7574206f662072616e676500000000606482015260840162000158565b60338460ff161015801562000344575060638460ff1611155b620003a75760405162461bcd60e51b815260206004820152603d60248201526000805160206200247583398151915260448201527f657373696e6720636f6e73656e737573206f7574206f662072616e6765000000606482015260840162000158565b633b9aca00836001600160401b031610156200041b5760405162461bcd60e51b815260206004820152603d60248201526000805160206200247583398151915260448201527f657373696e6720636f6c6c61746572616c2062656c6f77203120574954000000606482015260840162000158565b600080516020620024b58339815191526200043b600160fc1b84620005fa565b6200044b600360fb1b88620007af565b6200045b600160fd1b85620005fa565b6200046b600560fb1b89620007af565b6200047b600360fc1b89620005fa565b6040516020016200049296959493929190620009dd565b60408051601f198184030181529190527f375930152e1d0d102998be6e496b0cee86c9ecd0efef01014ecff169b17dfba990620004d09082620008df565b5062000580600080516020620024958339815191526002018054620004f59062000824565b80601f0160208091040260200160405190810160405280929190818152602001828054620005239062000824565b8015620005745780601f10620005485761010080835404028352916020019162000574565b820191906000526020600020905b8154815290600101906020018083116200055657829003601f168201915b5050620007c792505050565b60008051602062002495833981519152600301556040805160ff8781168252861660208201526001600160401b0385811682840152848116606083015283166080820152905133917f897a395aeb2699d9730b6377870654a5c371d6bb6dc4486cfc5c80eeafd095b0919081900360a00190a25050505050565b60608160025b607f826001600160401b031611156200063a576007826001600160401b0316901c915060018162000632919062000aae565b905062000600565b6000816001600160401b03166001600160401b0381111562000660576200066062000876565b6040519080825280601f01601f1916602001820160405280156200068b576020820181803683370190505b5090508492508581600081518110620006a857620006a862000ad8565b60200101906001600160f81b031916908160001a90535060015b826001600160401b0316816001600160401b03161015620007425783607f1660801760f81b82826001600160401b03168151811062000705576200070562000ad8565b60200101906001600160f81b031916908160001a9053506007846001600160401b0316901c93508080620007399062000aee565b915050620006c2565b50607f60f81b816200075660018562000b1f565b6001600160401b03168151811062000772576200077262000ad8565b0160200180519091167fff000000000000000000000000000000000000000000000000000000000000001690600082901a90535095945050505050565b6060620007c08360ff8416620005fa565b9392505050565b6000600282604051620007db919062000b42565b602060405180830381855afa158015620007f9573d6000803e3d6000fd5b5050506040513d601f19601f820116820180604052508101906200081e919062000b50565b92915050565b600181811c908216806200083957607f821691505b6020821081036200085a57634e487b7160e01b600052602260045260246000fd5b50919050565b634e487b7160e01b600052600160045260246000fd5b634e487b7160e01b600052604160045260246000fd5b601f821115620008da57600081815260208120601f850160051c81016020861015620008b55750805b601f850160051c820191505b81811015620008d657828155600101620008c1565b5050505b505050565b81516001600160401b03811115620008fb57620008fb62000876565b62000913816200090c845462000824565b846200088c565b602080601f8311600181146200094b5760008415620009325750858301515b600019600386901b1c1916600185901b178555620008d6565b600085815260208120601f198616915b828110156200097c578886015182559484019460019091019084016200095b565b50858210156200099b5787850151600019600388901b60f8161c191681555b5050505050600190811b01905550565b6000815160005b81811015620009ce5760208185018101518683015201620009b2565b50600093019283525090919050565b6000808854620009ed8162000824565b6001828116801562000a08576001811462000a1e5762000a4f565b60ff198416875282151583028701945062000a4f565b8c60005260208060002060005b8581101562000a465781548a82015290840190820162000a2b565b50505082870194505b5050505062000a8b62000a8462000a7d62000a7662000a6f858d620009ab565b8b620009ab565b89620009ab565b87620009ab565b85620009ab565b9998505050505050505050565b634e487b7160e01b600052601160045260246000fd5b6001600160401b0381811683821601908082111562000ad15762000ad162000a98565b5092915050565b634e487b7160e01b600052603260045260246000fd5b60006001600160401b038281166002600160401b0319810162000b155762000b1562000a98565b6001019392505050565b6001600160401b0382811682821603908082111562000ad15762000ad162000a98565b6000620007c08284620009ab565b60006020828403121562000b6357600080fd5b5051919050565b6080516118cc62000ba96000396000818161020c0152818161027501528181610917015281816109c501528181610f390152610fe801526118cc6000f3fe608060405234801561001057600080fd5b50600436106101165760003560e01c80638da5cb5b116100a2578063daaa360c11610071578063daaa360c146102c7578063ef53d97a146102da578063f0940002146102e2578063f2fde38b146102ea578063ff21c3ba146102fd57600080fd5b80638da5cb5b1461025f578063a04daef014610267578063d196c2e3146102a1578063d9b9a961146102b457600080fd5b806352d1902d116100e957806352d1902d146101cc5780636f2ddd93146101f25780637104ddb214610207578063715018a61461022e5780638a481dad1461023657600080fd5b806309bd5a601461011b57806309ed460714610136578063439fab911461015657806348f9b8311461016b575b600080fd5b610123610310565b6040519081526020015b60405180910390f35b61013e610323565b6040516001600160a01b03909116815260200161012d565b6101696101643660046112ee565b6103f3565b005b610173610428565b60405161012d9190600060a08201905060ff835116825260ff602084015116602083015260408301516001600160401b038082166040850152806060860151166060850152806080860151166080850152505092915050565b7f851d0a92a3ad30295bef33afc69d6874779826b7789386b336e22621365ed2c2610123565b6101fa6104b5565b60405161012d91906113c2565b61013e7f000000000000000000000000000000000000000000000000000000000000000081565b610169610550565b61023e610564565b6040516fffffffffffffffffffffffffffffffff909116815260200161012d565b61013e6105c5565b604051306001600160a01b037f0000000000000000000000000000000000000000000000000000000000000000161415815260200161012d565b6101696102af36600461140b565b6105de565b6101696102c2366004611455565b610646565b61013e6102d5366004611470565b6106bb565b61023e61078e565b6101fa6107bd565b6101696102f8366004611489565b6107d5565b61016961030b3660046114b2565b610850565b600061031a6108d4565b60030154905090565b600061032d6108f8565b9050806001600160a01b031663439fab916103466108d4565b6001016040518263ffffffff1660e01b81526004016103659190611516565b600060405180830381600087803b15801561037f57600080fd5b505af1158015610393573d6000803e3d6000fd5b505060405163f2fde38b60e01b81523360048201526001600160a01b038416925063f2fde38b9150602401600060405180830381600087803b1580156103d857600080fd5b505af11580156103ec573d6000803e3d6000fd5b5050505090565b610425604051806040016040528060118152602001700a0f120508021a01801a0210022202100b60781b815250610a27565b50565b6040805160a08101825260008082526020820181905291810182905260608101829052608081019190915261045b6108d4565b6040805160a0810182526004929092015460ff808216845261010082041660208401526001600160401b03620100008204811692840192909252600160501b810482166060840152600160901b9004166080820152919050565b60606104bf6108d4565b60010180546104cd906114dc565b80601f01602080910402602001604051908101604052809291908181526020018280546104f9906114dc565b80156105465780601f1061051b57610100808354040283529160200191610546565b820191906000526020600020905b81548152906001019060200180831161052957829003601f168201915b5050505050905090565b610558610ab6565b6105626000610b15565b565b60008061056f6108d4565b60040180549091506001600160401b03600160501b820481169161059d91600160901b9091041660026115b7565b6105a791906115e2565b81546105b6919060ff166115b7565b6001600160401b031691505090565b60006105cf6108d4565b546001600160a01b0316919050565b6105e6610ab6565b60006105f06108d4565b600401805460ff8481166101000261ffff19909216908616171780825590915061064190849084906001600160401b03620100008204811691600160501b8104821691600160901b90910416610b82565b505050565b61064e610ab6565b60006106586108d4565b60040180546001600160401b03808516620100000269ffffffffffffffff000019831681178085559394506106b79360ff91821693821693909317926101008104909116918691600160501b8104821691600160901b90910416610b82565b5050565b60006106c682610f1a565b9050806001600160a01b031663439fab916106df6108d4565b6001016040518263ffffffff1660e01b81526004016106fe9190611516565b600060405180830381600087803b15801561071857600080fd5b505af115801561072c573d6000803e3d6000fd5b505060405163f2fde38b60e01b81523360048201526001600160a01b038416925063f2fde38b9150602401600060405180830381600087803b15801561077157600080fd5b505af1158015610785573d6000803e3d6000fd5b50505050919050565b6000806107996108d4565b60040180549091506105b6906001600160401b03620100008204169060ff166115b7565b60606107c76108d4565b60020180546104cd906114dc565b6107dd610ab6565b6001600160a01b0381166108475760405162461bcd60e51b815260206004820152602660248201527f4f776e61626c653a206e6577206f776e657220697320746865207a65726f206160448201526564647265737360d01b60648201526084015b60405180910390fd5b61042581610b15565b610858610ab6565b60006108626108d4565b60040180546fffffffffffffffffffffffffffffffff60501b1916600160501b6001600160401b038681169190910267ffffffffffffffff60901b191691909117600160901b85831602178083559192506106419160ff80821692610100830490911691620100009004168686610b82565b7f375930152e1d0d102998be6e496b0cee86c9ecd0efef01014ecff169b17dfba790565b604051733d602d80600a3d3981f3363d3d373d3d3d363d7360601b81527f0000000000000000000000000000000000000000000000000000000000000000606081901b60148301526e5af43d82803e903d91602b57fd5bf360881b602883015260009160378184f09250506001600160a01b0382166109b95760405162461bcd60e51b815260206004820152601760248201527f436c6f6e61626c653a20435245415445206661696c6564000000000000000000604482015260640161083e565b816001600160a01b03167f00000000000000000000000000000000000000000000000000000000000000006001600160a01b0316336001600160a01b03167ff376596be5039d6b2fb36fead4c8a370eae426e790a869be8db074ab608cc24860405160405180910390a45090565b610a2f6108d4565b6001018054610a3d906114dc565b159050610aa45760405162461bcd60e51b815260206004820152602f60248201527f5769746e6574526571756573744d616c6c6561626c65426173653a20616c726560448201526e18591e481a5b9a5d1a585b1a5e9959608a1b606482015260840161083e565b610aad8161104c565b61042533610b15565b33610abf6105c5565b6001600160a01b0316146105625760405162461bcd60e51b815260206004820181905260248201527f4f776e61626c653a2063616c6c6572206973206e6f7420746865206f776e6572604482015260640161083e565b6000610b1f6108d4565b546001600160a01b0316905081610b346108d4565b80546001600160a01b0319166001600160a01b03928316179055604051838216918316907f8be0079c531659141344cd1fd0a4f28419497f9722a3daafe3b4186f6b6457e090600090a35050565b6000826001600160401b031611610be95760405162461bcd60e51b815260206004820152602560248201527f5769746e6574526571756573744d616c6c6561626c65426173653a206e6f2072604482015264195dd85c9960da1b606482015260840161083e565b60018560ff1610158015610c015750607f8560ff1611155b610c735760405162461bcd60e51b815260206004820152603c60248201527f5769746e6574526571756573744d616c6c6561626c65426173653a206e756d6260448201527f6572206f66207769746e6573736573206f7574206f662072616e676500000000606482015260840161083e565b60338460ff1610158015610c8b575060638460ff1611155b610cfd5760405162461bcd60e51b815260206004820152603d60248201527f5769746e6574526571756573744d616c6c6561626c65426173653a207769746e60448201527f657373696e6720636f6e73656e737573206f7574206f662072616e6765000000606482015260840161083e565b633b9aca00836001600160401b03161015610d805760405162461bcd60e51b815260206004820152603d60248201527f5769746e6574526571756573744d616c6c6561626c65426173653a207769746e60448201527f657373696e6720636f6c6c61746572616c2062656c6f77203120574954000000606482015260840161083e565b610d886108d4565b600101610d99600160fc1b846110e4565b610da7600360fb1b8861126a565b610db5600160fd1b856110e4565b610dc3600560fb1b8961126a565b610dd1600360fc1b896110e4565b604051602001610de696959493929190611625565b604051602081830303815290604052610dfd6108d4565b60020190610e0b9082611730565b50610ea8610e176108d4565b6002018054610e25906114dc565b80601f0160208091040260200160405190810160405280929190818152602001828054610e51906114dc565b8015610e9e5780601f10610e7357610100808354040283529160200191610e9e565b820191906000526020600020905b815481529060010190602001808311610e8157829003601f168201915b5050505050611280565b610eb06108d4565b600301556040805160ff8781168252861660208201526001600160401b0385811682840152848116606083015283166080820152905133917f897a395aeb2699d9730b6377870654a5c371d6bb6dc4486cfc5c80eeafd095b0919081900360a00190a25050505050565b604051733d602d80600a3d3981f3363d3d373d3d3d363d7360601b81527f0000000000000000000000000000000000000000000000000000000000000000606081901b60148301526e5af43d82803e903d91602b57fd5bf360881b60288301526000918360378285f59250506001600160a01b038216610fdc5760405162461bcd60e51b815260206004820152601860248201527f436c6f6e61626c653a2043524541544532206661696c65640000000000000000604482015260640161083e565b816001600160a01b03167f00000000000000000000000000000000000000000000000000000000000000006001600160a01b0316336001600160a01b03167ff376596be5039d6b2fb36fead4c8a370eae426e790a869be8db074ab608cc24860405160405180910390a450919050565b600081511161105d5761105d6117ef565b806110666108d4565b600101906110749082611730565b50600061107f6108d4565b60040180546001600160d01b0319167403d090000000000007a120000000003b9aca003302178082559091506106b79060029060ff610100820416906001600160401b03620100008204811691600160501b8104821691600160901b90910416610b82565b60608160025b607f826001600160401b03161115611120576007826001600160401b0316901c915060018161111991906115e2565b90506110ea565b6000816001600160401b03166001600160401b03811115611143576111436112d8565b6040519080825280601f01601f19166020018201604052801561116d576020820181803683370190505b509050849250858160008151811061118757611187611805565b60200101906001600160f81b031916908160001a90535060015b826001600160401b0316816001600160401b0316101561121a5783607f1660801760f81b82826001600160401b0316815181106111e0576111e0611805565b60200101906001600160f81b031916908160001a9053506007846001600160401b0316901c935080806112129061181b565b9150506111a1565b50607f60f81b8161122c600185611841565b6001600160401b03168151811061124557611245611805565b0160200180519091166001600160f81b03191690600082901a90535095945050505050565b6060611279838360ff166110e4565b9392505050565b60006002826040516112929190611861565b602060405180830381855afa1580156112af573d6000803e3d6000fd5b5050506040513d601f19601f820116820180604052508101906112d2919061187d565b92915050565b634e487b7160e01b600052604160045260246000fd5b60006020828403121561130057600080fd5b81356001600160401b038082111561131757600080fd5b818401915084601f83011261132b57600080fd5b81358181111561133d5761133d6112d8565b604051601f8201601f19908116603f01168101908382118183101715611365576113656112d8565b8160405282815287602084870101111561137e57600080fd5b826020860160208301376000928101602001929092525095945050505050565b60005b838110156113b95781810151838201526020016113a1565b50506000910152565b60208152600082518060208401526113e181604085016020870161139e565b601f01601f19169190910160400192915050565b803560ff8116811461140657600080fd5b919050565b6000806040838503121561141e57600080fd5b611427836113f5565b9150611435602084016113f5565b90509250929050565b80356001600160401b038116811461140657600080fd5b60006020828403121561146757600080fd5b6112798261143e565b60006020828403121561148257600080fd5b5035919050565b60006020828403121561149b57600080fd5b81356001600160a01b038116811461127957600080fd5b600080604083850312156114c557600080fd5b6114ce8361143e565b91506114356020840161143e565b600181811c908216806114f057607f821691505b60208210810361151057634e487b7160e01b600052602260045260246000fd5b50919050565b600060208083526000845461152a816114dc565b8084870152604060018084166000811461154b576001811461156557611593565b60ff1985168984015283151560051b890183019550611593565b896000528660002060005b8581101561158b5781548b8201860152908301908801611570565b8a0184019650505b509398975050505050505050565b634e487b7160e01b600052601160045260246000fd5b6001600160401b038181168382160280821691908281146115da576115da6115a1565b505092915050565b6001600160401b03818116838216019080821115611602576116026115a1565b5092915050565b6000815161161b81856020860161139e565b9290920192915050565b6000808854611633816114dc565b6001828116801561164b57600181146116605761168f565b60ff198416875282151583028701945061168f565b8c60005260208060002060005b858110156116865781548a82015290840190820161166d565b50505082870194505b5050505087516116a3818360208c0161139e565b87519101906116b6818360208b0161139e565b6116d46116ce6116c88385018a611609565b88611609565b86611609565b9a9950505050505050505050565b601f82111561064157600081815260208120601f850160051c810160208610156117095750805b601f850160051c820191505b8181101561172857828155600101611715565b505050505050565b81516001600160401b03811115611749576117496112d8565b61175d8161175784546114dc565b846116e2565b602080601f831160018114611792576000841561177a5750858301515b600019600386901b1c1916600185901b178555611728565b600085815260208120601f198616915b828110156117c1578886015182559484019460019091019084016117a2565b50858210156117df5787850151600019600388901b60f8161c191681555b5050505050600190811b01905550565b634e487b7160e01b600052600160045260246000fd5b634e487b7160e01b600052603260045260246000fd5b60006001600160401b03808316818103611837576118376115a1565b6001019392505050565b6001600160401b03828116828216039080821115611602576116026115a1565b6000825161187381846020870161139e565b9190910192915050565b60006020828403121561188f57600080fd5b505191905056fea2646970667358221220f0744ebb08dc72deb41fcfd4b50cd857f0fb928f019132b09980035a235cd02164736f6c634300081400335769746e6574526571756573744d616c6c6561626c65426173653a207769746e375930152e1d0d102998be6e496b0cee86c9ecd0efef01014ecff169b17dfba7375930152e1d0d102998be6e496b0cee86c9ecd0efef01014ecff169b17dfba8",
  "linkReferences": {},
  "deployedLinkReferences": {}
}