{
  "_format": "hh-sol-artifact-1",
  "contractName": "WitnetRequest",
  "sourceName": "contracts/v1/witnet-solidity-bridge/contracts/requests/WitnetRequest.sol",
  "abi": [
    {
      "inputs": [
        {
          "internalType": "bytes",
          "name": "_bytecode",
          "type": "bytes"
        }
      ],
      "stateMutability": "nonpayable",
      "type": "constructor"
    },
    {
      "inputs": [],
      "name": "bytecode",
      "outputs": [
        {
          "internalType": "bytes",
          "name": "",
          "type": "bytes"
        }
      ],
      "stateMutability": "view",
      "type": "function"
    },
    {
      "inputs": [],
      "name": "hash",
      "outputs": [
        {
          "internalType": "bytes32",
          "name": "",
          "type": "bytes32"
        }
      ],
      "stateMutability": "view",
      "type": "function"
    }
  ],
  "bytecode": "0x608060405234801561001057600080fd5b506040516104d03803806104d083398101604081905261002f916100e0565b600061003b8282610215565b506100458161004e565b60015550610309565b600060028260405161006091906102d4565b602060405180830381855afa15801561007d573d6000803e3d6000fd5b5050506040513d601f19601f820116820180604052508101906100a091906102f0565b92915050565b634e487b7160e01b600052604160045260246000fd5b60005b838110156100d75781810151838201526020016100bf565b50506000910152565b6000602082840312156100f257600080fd5b81516001600160401b038082111561010957600080fd5b818401915084601f83011261011d57600080fd5b81518181111561012f5761012f6100a6565b604051601f8201601f19908116603f01168101908382118183101715610157576101576100a6565b8160405282815287602084870101111561017057600080fd5b6101818360208301602088016100bc565b979650505050505050565b600181811c908216806101a057607f821691505b6020821081036101c057634e487b7160e01b600052602260045260246000fd5b50919050565b601f82111561021057600081815260208120601f850160051c810160208610156101ed5750805b601f850160051c820191505b8181101561020c578281556001016101f9565b5050505b505050565b81516001600160401b0381111561022e5761022e6100a6565b6102428161023c845461018c565b846101c6565b602080601f831160018114610277576000841561025f5750858301515b600019600386901b1c1916600185901b17855561020c565b600085815260208120601f198616915b828110156102a657888601518255948401946001909101908401610287565b50858210156102c45787850151600019600388901b60f8161c191681555b5050505050600190811b01905550565b600082516102e68184602087016100bc565b9190910192915050565b60006020828403121561030257600080fd5b5051919050565b6101b8806103186000396000f3fe608060405234801561001057600080fd5b50600436106100365760003560e01c806309bd5a601461003b578063f094000214610057575b600080fd5b61004460015481565b6040519081526020015b60405180910390f35b61005f61006c565b60405161004e91906100fa565b6000805461007990610148565b80601f01602080910402602001604051908101604052809291908181526020018280546100a590610148565b80156100f25780601f106100c7576101008083540402835291602001916100f2565b820191906000526020600020905b8154815290600101906020018083116100d557829003601f168201915b505050505081565b600060208083528351808285015260005b818110156101275785810183015185820160400152820161010b565b506000604082860101526040601f19601f8301168501019250505092915050565b600181811c9082168061015c57607f821691505b60208210810361017c57634e487b7160e01b600052602260045260246000fd5b5091905056fea2646970667358221220d282f5bba7467e9a7ff53260247b263be7f6f0cdbfe1541c9d051d8a3ed8da3a64736f6c63430008140033",
  "linkReferences": {},
  "deployedLinkReferences": {}
}