{
  "_format": "hh-sol-artifact-1",
  "contractName": "PeridotTokenFactory",
  "sourceName": "contracts/v1/fundraising/PeridotTokenFactory.sol",
  "abi": [
    {
      "inputs": [
        {
          "internalType": "address",
          "name": "daoAddress",
          "type": "address"
        },
        {
          "internalType": "address",
          "name": "swapAddress",
          "type": "address"
        },
        {
          "internalType": "address",
          "name": "vaultAddress",
          "type": "address"
        },
        {
          "internalType": "address",
          "name": "PFvaultAddress",
          "type": "address"
        }
      ],
      "stateMutability": "nonpayable",
      "type": "constructor"
    },
    {
      "anonymous": false,
      "inputs": [
        {
          "indexed": true,
          "internalType": "address",
          "name": "projectAddress",
          "type": "address"
        },
        {
          "indexed": true,
          "internalType": "address",
          "name": "newMiniNFTContract",
          "type": "address"
        },
        {
          "indexed": true,
          "internalType": "address",
          "name": "newFFTContract",
          "type": "address"
        }
      ],
      "name": "CollectionPairCreated",
      "type": "event"
    },
    {
      "inputs": [],
      "name": "PeridotSwap",
      "outputs": [
        {
          "internalType": "address",
          "name": "",
          "type": "address"
        }
      ],
      "stateMutability": "view",
      "type": "function"
    },
    {
      "inputs": [
        {
          "internalType": "address",
          "name": "projectAddress",
          "type": "address"
        },
        {
          "internalType": "bytes32",
          "name": "salt",
          "type": "bytes32"
        },
        {
          "internalType": "string",
          "name": "miniNFTBaseUri",
          "type": "string"
        },
        {
          "internalType": "string",
          "name": "name",
          "type": "string"
        },
        {
          "internalType": "string",
          "name": "symbol",
          "type": "string"
        }
      ],
      "name": "createCollectionPair",
      "outputs": [
        {
          "internalType": "address",
          "name": "",
          "type": "address"
        },
        {
          "internalType": "address",
          "name": "",
          "type": "address"
        }
      ],
      "stateMutability": "nonpayable",
      "type": "function"
    },
    {
      "inputs": [],
      "name": "getDAOAddress",
      "outputs": [
        {
          "internalType": "address",
          "name": "",
          "type": "address"
        }
      ],
      "stateMutability": "view",
      "type": "function"
    },
    {
      "inputs": [],
      "name": "getPoolFundingVaultAddress",
      "outputs": [
        {
          "internalType": "address",
          "name": "",
          "type": "address"
        }
      ],
      "stateMutability": "view",
      "type": "function"
    },
    {
      "inputs": [],
      "name": "getSwapAddress",
      "outputs": [
        {
          "internalType": "address",
          "name": "",
          "type": "address"
        }
      ],
      "stateMutability": "view",
      "type": "function"
    },
    {
      "inputs": [],
      "name": "getVaultAddress",
      "outputs": [
        {
          "internalType": "address",
          "name": "",
          "type": "address"
        }
      ],
      "stateMutability": "view",
      "type": "function"
    },
    {
      "inputs": [],
      "name": "getowner",
      "outputs": [
        {
          "internalType": "address",
          "name": "",
          "type": "address"
        }
      ],
      "stateMutability": "view",
      "type": "function"
    },
    {
      "inputs": [],
      "name": "pendingPFVault",
      "outputs": [
        {
          "internalType": "address",
          "name": "",
          "type": "address"
        }
      ],
      "stateMutability": "view",
      "type": "function"
    },
    {
      "inputs": [],
      "name": "pendingVault",
      "outputs": [
        {
          "internalType": "address",
          "name": "",
          "type": "address"
        }
      ],
      "stateMutability": "view",
      "type": "function"
    },
    {
      "inputs": [
        {
          "internalType": "address",
          "name": "",
          "type": "address"
        }
      ],
      "name": "projectToFFT",
      "outputs": [
        {
          "internalType": "address",
          "name": "",
          "type": "address"
        }
      ],
      "stateMutability": "view",
      "type": "function"
    },
    {
      "inputs": [
        {
          "internalType": "address",
          "name": "",
          "type": "address"
        }
      ],
      "name": "projectToMiniNFT",
      "outputs": [
        {
          "internalType": "address",
          "name": "",
          "type": "address"
        }
      ],
      "stateMutability": "view",
      "type": "function"
    },
    {
      "inputs": [],
      "name": "signDaoReq",
      "outputs": [
        {
          "internalType": "bool",
          "name": "",
          "type": "bool"
        }
      ],
      "stateMutability": "nonpayable",
      "type": "function"
    },
    {
      "inputs": [
        {
          "internalType": "address",
          "name": "daoAddress",
          "type": "address"
        }
      ],
      "name": "updateDao",
      "outputs": [
        {
          "internalType": "bool",
          "name": "",
          "type": "bool"
        }
      ],
      "stateMutability": "nonpayable",
      "type": "function"
    },
    {
      "inputs": [
        {
          "internalType": "address",
          "name": "pendingPFVault_",
          "type": "address"
        }
      ],
      "name": "updatePFVault",
      "outputs": [
        {
          "internalType": "bool",
          "name": "",
          "type": "bool"
        }
      ],
      "stateMutability": "nonpayable",
      "type": "function"
    },
    {
      "inputs": [
        {
          "internalType": "address",
          "name": "pendingVault_",
          "type": "address"
        }
      ],
      "name": "updateVault",
      "outputs": [
        {
          "internalType": "bool",
          "name": "",
          "type": "bool"
        }
      ],
      "stateMutability": "nonpayable",
      "type": "function"
    }
  ],
  "bytecode": "0x608060405234801561001057600080fd5b50604051610cbe380380610cbe83398101604081905261002f916100bd565b60008054336001600160a01b0319918216179091556001805482166001600160a01b039687161790556003805482169386169384179055600480548216928616928317905560028054821694909516939093179093556005805483169091179055600680549091169091179055610111565b80516001600160a01b03811681146100b857600080fd5b919050565b600080600080608085870312156100d357600080fd5b6100dc856100a1565b93506100ea602086016100a1565b92506100f8604086016100a1565b9150610106606086016100a1565b905092959194509250565b610b9e806101206000396000f3fe608060405234801561001057600080fd5b50600436106100f55760003560e01c8063a8c885af11610097578063d015282b11610066578063d015282b1461021b578063e07add821461022e578063e7563f3f14610257578063fe0174bd1461026a57600080fd5b8063a8c885af146101b1578063ad9b44cd146101c4578063b0d3ec4d146101d5578063d00c92e51461020857600080fd5b806365cacaa4116100d357806365cacaa41461014e5780637c1398861461015f57806385811fbf14610177578063a4e8792e1461018857600080fd5b806317031d04146100fa57806328fa46a11461012a57806352113ba71461013b575b600080fd5b60025461010d906001600160a01b031681565b6040516001600160a01b0390911681526020015b60405180910390f35b6004546001600160a01b031661010d565b60055461010d906001600160a01b031681565b6003546001600160a01b031661010d565b61016761027b565b6040519015158152602001610121565b6002546001600160a01b031661010d565b61010d61019636600461088d565b6007602052600090815260409020546001600160a01b031681565b6101676101bf36600461088d565b61030d565b6001546001600160a01b031661010d565b6101e86101e336600461096d565b61035c565b604080516001600160a01b03938416815292909116602083015201610121565b61016761021636600461088d565b6106c7565b60065461010d906001600160a01b031681565b61010d61023c36600461088d565b6008602052600090815260409020546001600160a01b031681565b61016761026536600461088d565b610719565b6000546001600160a01b031661010d565b600080546001600160a01b031633146102d55760405162461bcd60e51b81526020600482015260176024820152762832b934b237ba1d1034b73b30b634b21031b0b63632b960491b60448201526064015b60405180910390fd5b50600554600380546001600160a01b039283166001600160a01b03199182161790915560065460048054919093169116179055600190565b6001546000906001600160a01b0316331461033a5760405162461bcd60e51b81526004016102cc90610a10565b50600180546001600160a01b0319166001600160a01b0383161781555b919050565b6000805481906001600160a01b031633146103b35760405162461bcd60e51b81526020600482015260176024820152762832b934b237ba1d1034b73b30b634b21031b0b63632b960491b60448201526064016102cc565b6001600160a01b03878116600090815260076020526040902054161580156103f357506001600160a01b0387811660009081526008602052604090205416155b6104305760405162461bcd60e51b815260206004820152600e60248201526d20b63932b0b23c9032bc34b9ba1760911b60448201526064016102cc565b60006104b960008873__$90af7a2727a78a8558a19610cbbb85960f$__63034d3ee08a6040518263ffffffff1660e01b815260040161046f9190610a97565b600060405180830381865af415801561048c573d6000803e3d6000fd5b505050506040513d6000823e601f3d908101601f191682016040526104b49190810190610aaa565b61076b565b90506001600160a01b0381166105115760405162461bcd60e51b815260206004820152601e60248201527f50657269646f743a206465706c6f79204d696e694e4654204661696c6564000060448201526064016102cc565b600061055260008973__$b1042c8eb5e20c4183b888cdb84eae0e5b$__63d0d579ab8a8a6040518363ffffffff1660e01b815260040161046f929190610b21565b90506001600160a01b0381166105aa5760405162461bcd60e51b815260206004820152601a60248201527f50657269646f743a206465706c6f7920464654204661696c656400000000000060448201526064016102cc565b6001600160a01b03898116600081815260076020908152604080832080548887166001600160a01b03199182168117909255600890935292819020805487871693168317905560025490516311fa741d60e21b81526004810193909352602483019190915260448201929092529116906347e9d074906064016020604051808303816000875af1158015610642573d6000803e3d6000fd5b505050506040513d601f19601f820116820180604052508101906106669190610b46565b61066f57600080fd5b806001600160a01b0316826001600160a01b03168a6001600160a01b03167fbd684022369e24c88c2d0afeb10988c91931912c70e53ca1d823e3bf9f50833060405160405180910390a4909890975095505050505050565b6001546000906001600160a01b031633146106f45760405162461bcd60e51b81526004016102cc90610a10565b50600680546001600160a01b0383166001600160a01b03199091161790556001919050565b6001546000906001600160a01b031633146107465760405162461bcd60e51b81526004016102cc90610a10565b50600580546001600160a01b0383166001600160a01b03199091161790556001919050565b6000834710156107bd5760405162461bcd60e51b815260206004820152601d60248201527f437265617465323a20696e73756666696369656e742062616c616e636500000060448201526064016102cc565b815160000361080e5760405162461bcd60e51b815260206004820181905260248201527f437265617465323a2062797465636f6465206c656e677468206973207a65726f60448201526064016102cc565b8282516020840186f590506001600160a01b03811661086f5760405162461bcd60e51b815260206004820152601960248201527f437265617465323a204661696c6564206f6e206465706c6f790000000000000060448201526064016102cc565b9392505050565b80356001600160a01b038116811461035757600080fd5b60006020828403121561089f57600080fd5b61086f82610876565b634e487b7160e01b600052604160045260246000fd5b604051601f8201601f1916810167ffffffffffffffff811182821017156108e7576108e76108a8565b604052919050565b600067ffffffffffffffff821115610909576109096108a8565b50601f01601f191660200190565b600082601f83011261092857600080fd5b813561093b610936826108ef565b6108be565b81815284602083860101111561095057600080fd5b816020850160208301376000918101602001919091529392505050565b600080600080600060a0868803121561098557600080fd5b61098e86610876565b945060208601359350604086013567ffffffffffffffff808211156109b257600080fd5b6109be89838a01610917565b945060608801359150808211156109d457600080fd5b6109e089838a01610917565b935060808801359150808211156109f657600080fd5b50610a0388828901610917565b9150509295509295909350565b6020808252601a908201527f50657269646f743a2063616c6c6572206973206e6f742064616f000000000000604082015260600190565b60005b83811015610a62578181015183820152602001610a4a565b50506000910152565b60008151808452610a83816020860160208601610a47565b601f01601f19169290920160200192915050565b60208152600061086f6020830184610a6b565b600060208284031215610abc57600080fd5b815167ffffffffffffffff811115610ad357600080fd5b8201601f81018413610ae457600080fd5b8051610af2610936826108ef565b818152856020838501011115610b0757600080fd5b610b18826020830160208601610a47565b95945050505050565b604081526000610b346040830185610a6b565b8281036020840152610b188185610a6b565b600060208284031215610b5857600080fd5b8151801515811461086f57600080fdfea2646970667358221220d86c9c45c1a836eb7e38d9456bb99bda3c4b08bd0911a05c79e62ca5b5a5444e64736f6c63430008140033",
  "linkReferences": {
    "contracts/v1/library/PeridotFFTHelper.sol": {
      "PeridotFFTHelper": [
        {
          "length": 20,
          "start": 1595
        }
      ]
    },
    "contracts/v1/library/PeridotMiniNFTHelper.sol": {
      "PeridotMiniNFTHelper": [
        {
          "length": 20,
          "start": 1370
        }
      ]
    }
  },
  "deployedLinkReferences": {
    "contracts/v1/library/PeridotFFTHelper.sol": {
      "PeridotFFTHelper": [
        {
          "length": 20,
          "start": 1307
        }
      ]
    },
    "contracts/v1/library/PeridotMiniNFTHelper.sol": {
      "PeridotMiniNFTHelper": [
        {
          "length": 20,
          "start": 1082
        }
      ]
    }
  }
}