{
  "_format": "hh-sol-artifact-1",
  "contractName": "PeridotMiniNFT",
  "sourceName": "contracts/v1/fundraising/PeridotMiniNFT.sol",
  "abi": [
    {
      "inputs": [
        {
          "internalType": "string",
          "name": "uri_",
          "type": "string"
        }
      ],
      "stateMutability": "nonpayable",
      "type": "constructor"
    },
    {
      "anonymous": false,
      "inputs": [
        {
          "indexed": true,
          "internalType": "address",
          "name": "account",
          "type": "address"
        },
        {
          "indexed": true,
          "internalType": "address",
          "name": "operator",
          "type": "address"
        },
        {
          "indexed": false,
          "internalType": "bool",
          "name": "approved",
          "type": "bool"
        }
      ],
      "name": "ApprovalForAll",
      "type": "event"
    },
    {
      "anonymous": false,
      "inputs": [
        {
          "indexed": false,
          "internalType": "address",
          "name": "owner",
          "type": "address"
        },
        {
          "indexed": false,
          "internalType": "uint256",
          "name": "tokenID",
          "type": "uint256"
        },
        {
          "indexed": false,
          "internalType": "uint256",
          "name": "amount",
          "type": "uint256"
        }
      ],
      "name": "ClaimBlindBox",
      "type": "event"
    },
    {
      "anonymous": false,
      "inputs": [
        {
          "indexed": false,
          "internalType": "uint256",
          "name": "blockNumber",
          "type": "uint256"
        }
      ],
      "name": "CloseRound",
      "type": "event"
    },
    {
      "anonymous": false,
      "inputs": [
        {
          "indexed": false,
          "internalType": "uint256",
          "name": "blockNumber",
          "type": "uint256"
        },
        {
          "indexed": false,
          "internalType": "uint256",
          "name": "sellingPrice",
          "type": "uint256"
        }
      ],
      "name": "StartNewRound",
      "type": "event"
    },
    {
      "anonymous": false,
      "inputs": [
        {
          "indexed": true,
          "internalType": "address",
          "name": "operator",
          "type": "address"
        },
        {
          "indexed": true,
          "internalType": "address",
          "name": "from",
          "type": "address"
        },
        {
          "indexed": true,
          "internalType": "address",
          "name": "to",
          "type": "address"
        },
        {
          "indexed": false,
          "internalType": "uint256[]",
          "name": "ids",
          "type": "uint256[]"
        },
        {
          "indexed": false,
          "internalType": "uint256[]",
          "name": "values",
          "type": "uint256[]"
        }
      ],
      "name": "TransferBatch",
      "type": "event"
    },
    {
      "anonymous": false,
      "inputs": [
        {
          "indexed": true,
          "internalType": "address",
          "name": "operator",
          "type": "address"
        },
        {
          "indexed": true,
          "internalType": "address",
          "name": "from",
          "type": "address"
        },
        {
          "indexed": true,
          "internalType": "address",
          "name": "to",
          "type": "address"
        },
        {
          "indexed": false,
          "internalType": "uint256",
          "name": "id",
          "type": "uint256"
        },
        {
          "indexed": false,
          "internalType": "uint256",
          "name": "value",
          "type": "uint256"
        }
      ],
      "name": "TransferSingle",
      "type": "event"
    },
    {
      "anonymous": false,
      "inputs": [
        {
          "indexed": false,
          "internalType": "string",
          "name": "value",
          "type": "string"
        },
        {
          "indexed": true,
          "internalType": "uint256",
          "name": "id",
          "type": "uint256"
        }
      ],
      "name": "URI",
      "type": "event"
    },
    {
      "anonymous": false,
      "inputs": [
        {
          "indexed": false,
          "internalType": "uint256",
          "name": "price",
          "type": "uint256"
        }
      ],
      "name": "UpdateBlindBoxPrice",
      "type": "event"
    },
    {
      "anonymous": false,
      "inputs": [
        {
          "indexed": false,
          "internalType": "uint256",
          "name": "round",
          "type": "uint256"
        },
        {
          "indexed": false,
          "internalType": "uint256",
          "name": "blockNumber",
          "type": "uint256"
        }
      ],
      "name": "UpdateRoundSucceed",
      "type": "event"
    },
    {
      "anonymous": false,
      "inputs": [
        {
          "indexed": false,
          "internalType": "address",
          "name": "caller",
          "type": "address"
        },
        {
          "indexed": false,
          "internalType": "uint256",
          "name": "amount",
          "type": "uint256"
        }
      ],
      "name": "WithdrawEther",
      "type": "event"
    },
    {
      "inputs": [],
      "name": "ROUND_CAP",
      "outputs": [
        {
          "internalType": "uint256",
          "name": "",
          "type": "uint256"
        }
      ],
      "stateMutability": "view",
      "type": "function"
    },
    {
      "inputs": [
        {
          "internalType": "address",
          "name": "account",
          "type": "address"
        },
        {
          "internalType": "uint256",
          "name": "id",
          "type": "uint256"
        }
      ],
      "name": "balanceOf",
      "outputs": [
        {
          "internalType": "uint256",
          "name": "",
          "type": "uint256"
        }
      ],
      "stateMutability": "view",
      "type": "function"
    },
    {
      "inputs": [
        {
          "internalType": "address[]",
          "name": "accounts",
          "type": "address[]"
        },
        {
          "internalType": "uint256[]",
          "name": "ids",
          "type": "uint256[]"
        }
      ],
      "name": "balanceOfBatch",
      "outputs": [
        {
          "internalType": "uint256[]",
          "name": "",
          "type": "uint256[]"
        }
      ],
      "stateMutability": "view",
      "type": "function"
    },
    {
      "inputs": [],
      "name": "blindBoxPrice",
      "outputs": [
        {
          "internalType": "uint256",
          "name": "",
          "type": "uint256"
        }
      ],
      "stateMutability": "view",
      "type": "function"
    },
    {
      "inputs": [
        {
          "internalType": "uint256",
          "name": "amount",
          "type": "uint256"
        }
      ],
      "name": "burn",
      "outputs": [],
      "stateMutability": "nonpayable",
      "type": "function"
    },
    {
      "inputs": [
        {
          "internalType": "uint256",
          "name": "tokenID",
          "type": "uint256"
        }
      ],
      "name": "claimBlindBox",
      "outputs": [
        {
          "internalType": "uint256",
          "name": "",
          "type": "uint256"
        }
      ],
      "stateMutability": "nonpayable",
      "type": "function"
    },
    {
      "inputs": [],
      "name": "closeRound",
      "outputs": [
        {
          "internalType": "bool",
          "name": "",
          "type": "bool"
        }
      ],
      "stateMutability": "nonpayable",
      "type": "function"
    },
    {
      "inputs": [],
      "name": "currentRound",
      "outputs": [
        {
          "internalType": "uint256",
          "name": "",
          "type": "uint256"
        }
      ],
      "stateMutability": "view",
      "type": "function"
    },
    {
      "inputs": [
        {
          "internalType": "address",
          "name": "account",
          "type": "address"
        },
        {
          "internalType": "address",
          "name": "operator",
          "type": "address"
        }
      ],
      "name": "isApprovedForAll",
      "outputs": [
        {
          "internalType": "bool",
          "name": "",
          "type": "bool"
        }
      ],
      "stateMutability": "view",
      "type": "function"
    },
    {
      "inputs": [
        {
          "internalType": "uint256",
          "name": "amount",
          "type": "uint256"
        }
      ],
      "name": "mintBlindBox",
      "outputs": [
        {
          "internalType": "uint256",
          "name": "",
          "type": "uint256"
        }
      ],
      "stateMutability": "payable",
      "type": "function"
    },
    {
      "inputs": [
        {
          "internalType": "uint256",
          "name": "",
          "type": "uint256"
        }
      ],
      "name": "roundSucceed",
      "outputs": [
        {
          "internalType": "bool",
          "name": "",
          "type": "bool"
        }
      ],
      "stateMutability": "view",
      "type": "function"
    },
    {
      "inputs": [
        {
          "internalType": "address",
          "name": "from",
          "type": "address"
        },
        {
          "internalType": "address",
          "name": "to",
          "type": "address"
        },
        {
          "internalType": "uint256[]",
          "name": "ids",
          "type": "uint256[]"
        },
        {
          "internalType": "uint256[]",
          "name": "amounts",
          "type": "uint256[]"
        },
        {
          "internalType": "bytes",
          "name": "data",
          "type": "bytes"
        }
      ],
      "name": "safeBatchTransferFrom",
      "outputs": [],
      "stateMutability": "nonpayable",
      "type": "function"
    },
    {
      "inputs": [
        {
          "internalType": "address",
          "name": "from",
          "type": "address"
        },
        {
          "internalType": "address",
          "name": "to",
          "type": "address"
        },
        {
          "internalType": "uint256",
          "name": "id",
          "type": "uint256"
        },
        {
          "internalType": "uint256",
          "name": "amount",
          "type": "uint256"
        },
        {
          "internalType": "bytes",
          "name": "data",
          "type": "bytes"
        }
      ],
      "name": "safeTransferFrom",
      "outputs": [],
      "stateMutability": "nonpayable",
      "type": "function"
    },
    {
      "inputs": [],
      "name": "saleIsActive",
      "outputs": [
        {
          "internalType": "bool",
          "name": "",
          "type": "bool"
        }
      ],
      "stateMutability": "view",
      "type": "function"
    },
    {
      "inputs": [
        {
          "internalType": "address",
          "name": "operator",
          "type": "address"
        },
        {
          "internalType": "bool",
          "name": "approved",
          "type": "bool"
        }
      ],
      "name": "setApprovalForAll",
      "outputs": [],
      "stateMutability": "nonpayable",
      "type": "function"
    },
    {
      "inputs": [
        {
          "internalType": "uint256",
          "name": "sellingPrice",
          "type": "uint256"
        }
      ],
      "name": "startNewRound",
      "outputs": [
        {
          "internalType": "bool",
          "name": "",
          "type": "bool"
        }
      ],
      "stateMutability": "nonpayable",
      "type": "function"
    },
    {
      "inputs": [
        {
          "internalType": "bytes4",
          "name": "interfaceId",
          "type": "bytes4"
        }
      ],
      "name": "supportsInterface",
      "outputs": [
        {
          "internalType": "bool",
          "name": "",
          "type": "bool"
        }
      ],
      "stateMutability": "view",
      "type": "function"
    },
    {
      "inputs": [
        {
          "internalType": "uint256",
          "name": "amount",
          "type": "uint256"
        },
        {
          "internalType": "address",
          "name": "to",
          "type": "address"
        }
      ],
      "name": "swapmint",
      "outputs": [
        {
          "internalType": "bool",
          "name": "",
          "type": "bool"
        }
      ],
      "stateMutability": "nonpayable",
      "type": "function"
    },
    {
      "inputs": [
        {
          "internalType": "uint256",
          "name": "id",
          "type": "uint256"
        }
      ],
      "name": "totalSupply",
      "outputs": [
        {
          "internalType": "uint256",
          "name": "",
          "type": "uint256"
        }
      ],
      "stateMutability": "view",
      "type": "function"
    },
    {
      "inputs": [
        {
          "internalType": "uint256",
          "name": "newPrice",
          "type": "uint256"
        }
      ],
      "name": "updateBlindBoxPrice",
      "outputs": [
        {
          "internalType": "bool",
          "name": "",
          "type": "bool"
        }
      ],
      "stateMutability": "nonpayable",
      "type": "function"
    },
    {
      "inputs": [
        {
          "internalType": "string",
          "name": "defaultURI",
          "type": "string"
        }
      ],
      "name": "updateDefaultURI",
      "outputs": [],
      "stateMutability": "nonpayable",
      "type": "function"
    },
    {
      "inputs": [
        {
          "internalType": "uint256",
          "name": "round",
          "type": "uint256"
        }
      ],
      "name": "updateRoundSucceed",
      "outputs": [
        {
          "internalType": "bool",
          "name": "",
          "type": "bool"
        }
      ],
      "stateMutability": "nonpayable",
      "type": "function"
    },
    {
      "inputs": [
        {
          "internalType": "uint256",
          "name": "tokenId",
          "type": "uint256"
        },
        {
          "internalType": "string",
          "name": "tokenURI",
          "type": "string"
        }
      ],
      "name": "updateTokenURI",
      "outputs": [],
      "stateMutability": "nonpayable",
      "type": "function"
    },
    {
      "inputs": [
        {
          "internalType": "uint256",
          "name": "tokenId",
          "type": "uint256"
        }
      ],
      "name": "uri",
      "outputs": [
        {
          "internalType": "string",
          "name": "",
          "type": "string"
        }
      ],
      "stateMutability": "view",
      "type": "function"
    },
    {
      "inputs": [],
      "name": "withdrawEther",
      "outputs": [
        {
          "internalType": "bool",
          "name": "",
          "type": "bool"
        }
      ],
      "stateMutability": "nonpayable",
      "type": "function"
    },
    {
      "stateMutability": "payable",
      "type": "receive"
    }
  ],
  "bytecode": "0x60a0604052600060809081526003906200001a908262000139565b5067016345785d8a00006007553480156200003457600080fd5b5060405162002bed38038062002bed833981016040819052620000579162000205565b80620000638162000082565b505060068054610100600160a81b0319163361010002179055620002da565b600262000090828262000139565b5050565b634e487b7160e01b600052604160045260246000fd5b600181811c90821680620000bf57607f821691505b602082108103620000e057634e487b7160e01b600052602260045260246000fd5b50919050565b601f8211156200013457600081815260208120601f850160051c810160208610156200010f5750805b601f850160051c820191505b8181101562000130578281556001016200011b565b5050505b505050565b81516001600160401b0381111562000155576200015562000094565b6200016d81620001668454620000aa565b84620000e6565b602080601f831160018114620001a557600084156200018c5750858301515b600019600386901b1c1916600185901b17855562000130565b600085815260208120601f198616915b82811015620001d657888601518255948401946001909101908401620001b5565b5085821015620001f55787850151600019600388901b60f8161c191681555b5050505050600190811b01905550565b600060208083850312156200021957600080fd5b82516001600160401b03808211156200023157600080fd5b818501915085601f8301126200024657600080fd5b8151818111156200025b576200025b62000094565b604051601f8201601f19908116603f0116810190838211818310171562000286576200028662000094565b8160405282815288868487010111156200029f57600080fd5b600093505b82841015620002c35784840186015181850187015292850192620002a4565b600086848301015280965050505050505092915050565b61290380620002ea6000396000f3fe6080604052600436106101695760003560e01c80635e7ff0cc116100d1578063bd85b0391161008a578063e985e9c511610064578063e985e9c514610439578063eb8d244414610482578063f242432a1461049c578063f7b5e317146104bc57600080fd5b8063bd85b039146103d7578063c34f72b214610404578063e278fe6f1461042457600080fd5b80635e7ff0cc1461032d5780637362377b1461034d5780638a19c8bc14610362578063937eb61a146103775780639f3bee9a14610397578063a22cb465146103b757600080fd5b80632a764b47116101235780632a764b471461026a5780632eb2c2d61461028057806342966c68146102a05780634615102c146102c05780634cf23a1b146102e05780634e1273f41461030057600080fd5b8062fdd58e1461017557806301ffc9a7146101a85780630e89341c146101d85780631846c6d41461020557806318e97fd1146102355780631ee081df1461025757600080fd5b3661017057005b600080fd5b34801561018157600080fd5b50610195610190366004611e0e565b6104d2565b6040519081526020015b60405180910390f35b3480156101b457600080fd5b506101c86101c3366004611e50565b61056b565b604051901515815260200161019f565b3480156101e457600080fd5b506101f86101f3366004611e6d565b6105bb565b60405161019f9190611ed6565b34801561021157600080fd5b506101c8610220366004611e6d565b60086020526000908152604090205460ff1681565b34801561024157600080fd5b50610255610250366004611fa0565b61069b565b005b610195610265366004611e6d565b61077d565b34801561027657600080fd5b506101956103e881565b34801561028c57600080fd5b5061025561029b36600461207c565b6108a2565b3480156102ac57600080fd5b506102556102bb366004611e6d565b6108ee565b3480156102cc57600080fd5b506101c86102db366004611e6d565b61093e565b3480156102ec57600080fd5b506102556102fb36600461212a565b610a9a565b34801561030c57600080fd5b5061032061031b366004612167565b610b7a565b60405161019f9190612265565b34801561033957600080fd5b50610195610348366004611e6d565b610ca4565b34801561035957600080fd5b506101c8610e32565b34801561036e57600080fd5b50610195610f4b565b34801561038357600080fd5b506101c8610392366004612278565b610f5b565b3480156103a357600080fd5b506101c86103b2366004611e6d565b61109b565b3480156103c357600080fd5b506102556103d23660046122a8565b611174565b3480156103e357600080fd5b506101956103f2366004611e6d565b60009081526009602052604090205490565b34801561041057600080fd5b506101c861041f366004611e6d565b61117f565b34801561043057600080fd5b506101c86112f6565b34801561044557600080fd5b506101c86104543660046122db565b6001600160a01b03918216600090815260016020908152604080832093909416825291909152205460ff1690565b34801561048e57600080fd5b506006546101c89060ff1681565b3480156104a857600080fd5b506102556104b7366004612309565b6113df565b3480156104c857600080fd5b5061019560075481565b60006001600160a01b0383166105425760405162461bcd60e51b815260206004820152602a60248201527f455243313135353a2061646472657373207a65726f206973206e6f742061207660448201526930b634b21037bbb732b960b11b60648201526084015b60405180910390fd5b506000818152602081815260408083206001600160a01b03861684529091529020545b92915050565b60006001600160e01b03198216636cdb3d1360e11b148061059c57506001600160e01b031982166303a24d0760e21b145b8061056557506301ffc9a760e01b6001600160e01b0319831614610565565b6000818152600460205260408120805460609291906105d990612372565b80601f016020809104026020016040519081016040528092919081815260200182805461060590612372565b80156106525780601f1061062757610100808354040283529160200191610652565b820191906000526020600020905b81548152906001019060200180831161063557829003601f168201915b5050505050905060008151116106705761066b83611424565b610694565b6003816040516020016106849291906123a6565b6040516020818303038152906040525b9392505050565b6000600660019054906101000a90046001600160a01b03166001600160a01b031663fe0174bd6040518163ffffffff1660e01b8152600401602060405180830381865afa1580156106f0573d6000803e3d6000fd5b505050506040513d601f19601f82011682018060405250810190610714919061242d565b9050336001600160a01b0382161461076e5760405162461bcd60e51b815260206004820181905260248201527f50657269646f743a2063616c6c6572206973206e6f7420746865206f776e65726044820152606401610539565b61077883836114b8565b505050565b60008061078960055490565b60065490915060ff166107de5760405162461bcd60e51b815260206004820152601860248201527f50657269646f743a2073616c65206e6f742061637469766500000000000000006044820152606401610539565b34836007546107ed9190612460565b111561083b5760405162461bcd60e51b815260206004820152601f60248201527f50657269646f743a2045746865722076616c7565206e6f7420656e6f756768006044820152606401610539565b60008181526009602052604081208054859290610859908490612477565b90915550506000818152600960205260409020546103e811610880576006805460ff191690555b61089b33828560405180602001604052806000815250611515565b5090919050565b6001600160a01b0385163314806108be57506108be8533610454565b6108da5760405162461bcd60e51b81526004016105399061248a565b6108e78585858585611629565b5050505050565b600080805260096020527fec8156718a8372b1db44bb411437d0870f3e3790d4a08526d024ce1b0b668f6b80548392906109299084906124d8565b9091555061093b905033600083611806565b50565b600080600660019054906101000a90046001600160a01b03166001600160a01b031663ad9b44cd6040518163ffffffff1660e01b8152600401602060405180830381865afa158015610994573d6000803e3d6000fd5b505050506040513d601f19601f820116820180604052508101906109b8919061242d565b9050336001600160a01b038216146109e25760405162461bcd60e51b8152600401610539906124eb565b60065460ff1615610a355760405162461bcd60e51b815260206004820152601b60248201527f50657269646f743a206163746976652073616c652065786973747300000000006044820152606401610539565b610a43600580546001019055565b6006805460ff19166001179055600783905560408051438152602081018590527f602d52a424ba31c8904768b40efd585d7c78b61530cebd288dc8fc0be871a3c691015b60405180910390a1600191505b50919050565b6000600660019054906101000a90046001600160a01b03166001600160a01b031663fe0174bd6040518163ffffffff1660e01b8152600401602060405180830381865afa158015610aef573d6000803e3d6000fd5b505050506040513d601f19601f82011682018060405250810190610b13919061242d565b9050336001600160a01b03821614610b6d5760405162461bcd60e51b815260206004820181905260248201527f50657269646f743a2063616c6c6572206973206e6f7420746865206f776e65726044820152606401610539565b610b7682611982565b5050565b60608151835114610bdf5760405162461bcd60e51b815260206004820152602960248201527f455243313135353a206163636f756e747320616e6420696473206c656e677468604482015268040dad2e6dac2e8c6d60bb1b6064820152608401610539565b6000835167ffffffffffffffff811115610bfb57610bfb611ee9565b604051908082528060200260200182016040528015610c24578160200160208202803683370190505b50905060005b8451811015610c9c57610c6f858281518110610c4857610c4861252d565b6020026020010151858381518110610c6257610c6261252d565b60200260200101516104d2565b828281518110610c8157610c8161252d565b6020908102919091010152610c9581612543565b9050610c2a565b509392505050565b60008181526008602052604081205460ff16610d025760405162461bcd60e51b815260206004820152601d60248201527f50657269646f743a20726f756e64206973206e6f7420737563636565640000006044820152606401610539565b6000610d0e33846104d2565b905060008111610d605760405162461bcd60e51b815260206004820152601d60248201527f50657269646f743a206e6f20626c696e64626f7820746f20636c61696d0000006044820152606401610539565b60008381526009602052604081208054839290610d7e9084906124d8565b9091555050600080805260096020527fec8156718a8372b1db44bb411437d0870f3e3790d4a08526d024ce1b0b668f6b8054839290610dbe908490612477565b90915550610dcf9050338483611806565b610deb3360008360405180602001604052806000815250611515565b60408051338152602081018590529081018290527f3c3d4a0f5668c5384fb3e5d7002dfa7a80e56ca2efb4232f9b383f89669422e19060600160405180910390a192915050565b600080600660019054906101000a90046001600160a01b03166001600160a01b031663ad9b44cd6040518163ffffffff1660e01b8152600401602060405180830381865afa158015610e88573d6000803e3d6000fd5b505050506040513d601f19601f82011682018060405250810190610eac919061242d565b9050336001600160a01b03821614610ed65760405162461bcd60e51b8152600401610539906124eb565b60405147903390819083156108fc029084906000818181858888f19350505050158015610f07573d6000803e3d6000fd5b5060408051338152602081018490527fdb35132c111efe920cede025e819975671cfd1b8fcc1174762c8670c4e94c211910160405180910390a16001935050505090565b6000610f5660055490565b905090565b6000600660019054906101000a90046001600160a01b03166001600160a01b03166385811fbf6040518163ffffffff1660e01b8152600401602060405180830381865afa158015610fb0573d6000803e3d6000fd5b505050506040513d601f19601f82011682018060405250810190610fd4919061242d565b6001600160a01b0316336001600160a01b0316146110345760405162461bcd60e51b815260206004820152601b60248201527f50657269646f743a2063616c6c6572206973206e6f74207377617000000000006044820152606401610539565b600080805260096020527fec8156718a8372b1db44bb411437d0870f3e3790d4a08526d024ce1b0b668f6b805485929061106f908490612477565b925050819055506110928260008560405180602001604052806000815250611515565b50600192915050565b600080600660019054906101000a90046001600160a01b03166001600160a01b031663ad9b44cd6040518163ffffffff1660e01b8152600401602060405180830381865afa1580156110f1573d6000803e3d6000fd5b505050506040513d601f19601f82011682018060405250810190611115919061242d565b9050336001600160a01b0382161461113f5760405162461bcd60e51b8152600401610539906124eb565b60078390556040518381527f15417be8a232afca58f2c0e365330bf076defb7c391ddefee008cad30810ec4a90602001610a87565b610b7633838361198e565b600080600660019054906101000a90046001600160a01b03166001600160a01b031663ad9b44cd6040518163ffffffff1660e01b8152600401602060405180830381865afa1580156111d5573d6000803e3d6000fd5b505050506040513d601f19601f820116820180604052508101906111f9919061242d565b9050336001600160a01b038216146112235760405162461bcd60e51b8152600401610539906124eb565b6000838152600960205260409020546103e811156112835760405162461bcd60e51b815260206004820152601860248201527f50657269646f743a204e6f7420616368696576652079657400000000000000006044820152606401610539565b60008381526008602052604090819020805460ff19166001179055517f2ae68ba3c4f72c2701df6ab20e6559ace39aa4beda26e4e10a76435fa85377d5906112d79085904390918252602082015260400190565b60405180910390a1505060009081526008602052604090205460ff1690565b600080600660019054906101000a90046001600160a01b03166001600160a01b031663ad9b44cd6040518163ffffffff1660e01b8152600401602060405180830381865afa15801561134c573d6000803e3d6000fd5b505050506040513d601f19601f82011682018060405250810190611370919061242d565b9050336001600160a01b0382161461139a5760405162461bcd60e51b8152600401610539906124eb565b6006805460ff191690556040514381527fd1014bd15f738385a79c60003df93dec366bb7fe82c8796e4e5167d26f67005a9060200160405180910390a1600191505090565b6001600160a01b0385163314806113fb57506113fb8533610454565b6114175760405162461bcd60e51b81526004016105399061248a565b6108e78585858585611a6e565b60606002805461143390612372565b80601f016020809104026020016040519081016040528092919081815260200182805461145f90612372565b80156114ac5780601f10611481576101008083540402835291602001916114ac565b820191906000526020600020905b81548152906001019060200180831161148f57829003601f168201915b50505050509050919050565b60008281526004602052604090206114d082826125a2565b50817f6bb7ff708619ba0610cba295a58592e0451dee2622938c8755667688daf3529b6114fc846105bb565b6040516115099190611ed6565b60405180910390a25050565b6001600160a01b0384166115755760405162461bcd60e51b815260206004820152602160248201527f455243313135353a206d696e7420746f20746865207a65726f206164647265736044820152607360f81b6064820152608401610539565b33600061158185611b98565b9050600061158e85611b98565b90506000868152602081815260408083206001600160a01b038b168452909152812080548792906115c0908490612477565b909155505060408051878152602081018790526001600160a01b03808a1692600092918716917fc3d58168c5ae7397731d063d5bbf3d657854427343f4c083240f7aacaa2d0f62910160405180910390a461162083600089898989611be3565b50505050505050565b815183511461168b5760405162461bcd60e51b815260206004820152602860248201527f455243313135353a2069647320616e6420616d6f756e7473206c656e677468206044820152670dad2e6dac2e8c6d60c31b6064820152608401610539565b6001600160a01b0384166116b15760405162461bcd60e51b815260040161053990612662565b3360005b84518110156117985760008582815181106116d2576116d261252d565b6020026020010151905060008583815181106116f0576116f061252d565b602090810291909101810151600084815280835260408082206001600160a01b038e1683529093529190912054909150818110156117405760405162461bcd60e51b8152600401610539906126a7565b6000838152602081815260408083206001600160a01b038e8116855292528083208585039055908b1682528120805484929061177d908490612477565b925050819055505050508061179190612543565b90506116b5565b50846001600160a01b0316866001600160a01b0316826001600160a01b03167f4a39dc06d4c0dbc64b70af90fd698a233a518aa5d07e595d983b8c0526c8f7fb87876040516117e89291906126f1565b60405180910390a46117fe818787878787611d3e565b505050505050565b6001600160a01b0383166118685760405162461bcd60e51b815260206004820152602360248201527f455243313135353a206275726e2066726f6d20746865207a65726f206164647260448201526265737360e81b6064820152608401610539565b33600061187484611b98565b9050600061188184611b98565b60408051602080820183526000918290528882528181528282206001600160a01b038b168352905220549091508481101561190a5760405162461bcd60e51b8152602060048201526024808201527f455243313135353a206275726e20616d6f756e7420657863656564732062616c604482015263616e636560e01b6064820152608401610539565b6000868152602081815260408083206001600160a01b038b81168086529184528285208a8703905582518b81529384018a90529092908816917fc3d58168c5ae7397731d063d5bbf3d657854427343f4c083240f7aacaa2d0f62910160405180910390a4604080516020810190915260009052611620565b6002610b7682826125a2565b816001600160a01b0316836001600160a01b031603611a015760405162461bcd60e51b815260206004820152602960248201527f455243313135353a2073657474696e6720617070726f76616c20737461747573604482015268103337b91039b2b63360b91b6064820152608401610539565b6001600160a01b03838116600081815260016020908152604080832094871680845294825291829020805460ff191686151590811790915591519182527f17307eab39ab6107e8899845ad3d59bd9653f200f220920489ca2b5937696c31910160405180910390a3505050565b6001600160a01b038416611a945760405162461bcd60e51b815260040161053990612662565b336000611aa085611b98565b90506000611aad85611b98565b90506000868152602081815260408083206001600160a01b038c16845290915290205485811015611af05760405162461bcd60e51b8152600401610539906126a7565b6000878152602081815260408083206001600160a01b038d8116855292528083208985039055908a16825281208054889290611b2d908490612477565b909155505060408051888152602081018890526001600160a01b03808b16928c821692918816917fc3d58168c5ae7397731d063d5bbf3d657854427343f4c083240f7aacaa2d0f62910160405180910390a4611b8d848a8a8a8a8a611be3565b505050505050505050565b60408051600180825281830190925260609160009190602080830190803683370190505090508281600081518110611bd257611bd261252d565b602090810291909101015292915050565b6001600160a01b0384163b156117fe5760405163f23a6e6160e01b81526001600160a01b0385169063f23a6e6190611c27908990899088908890889060040161271f565b6020604051808303816000875af1925050508015611c62575060408051601f3d908101601f19168201909252611c5f91810190612764565b60015b611d0e57611c6e612781565b806308c379a003611ca75750611c8261279d565b80611c8d5750611ca9565b8060405162461bcd60e51b81526004016105399190611ed6565b505b60405162461bcd60e51b815260206004820152603460248201527f455243313135353a207472616e7366657220746f206e6f6e2d455243313135356044820152732932b1b2b4bb32b91034b6b83632b6b2b73a32b960611b6064820152608401610539565b6001600160e01b0319811663f23a6e6160e01b146116205760405162461bcd60e51b815260040161053990612827565b6001600160a01b0384163b156117fe5760405163bc197c8160e01b81526001600160a01b0385169063bc197c8190611d82908990899088908890889060040161286f565b6020604051808303816000875af1925050508015611dbd575060408051601f3d908101601f19168201909252611dba91810190612764565b60015b611dc957611c6e612781565b6001600160e01b0319811663bc197c8160e01b146116205760405162461bcd60e51b815260040161053990612827565b6001600160a01b038116811461093b57600080fd5b60008060408385031215611e2157600080fd5b8235611e2c81611df9565b946020939093013593505050565b6001600160e01b03198116811461093b57600080fd5b600060208284031215611e6257600080fd5b813561069481611e3a565b600060208284031215611e7f57600080fd5b5035919050565b60005b83811015611ea1578181015183820152602001611e89565b50506000910152565b60008151808452611ec2816020860160208601611e86565b601f01601f19169290920160200192915050565b6020815260006106946020830184611eaa565b634e487b7160e01b600052604160045260246000fd5b601f8201601f1916810167ffffffffffffffff81118282101715611f2557611f25611ee9565b6040525050565b600082601f830112611f3d57600080fd5b813567ffffffffffffffff811115611f5757611f57611ee9565b604051611f6e601f8301601f191660200182611eff565b818152846020838601011115611f8357600080fd5b816020850160208301376000918101602001919091529392505050565b60008060408385031215611fb357600080fd5b82359150602083013567ffffffffffffffff811115611fd157600080fd5b611fdd85828601611f2c565b9150509250929050565b600067ffffffffffffffff82111561200157612001611ee9565b5060051b60200190565b600082601f83011261201c57600080fd5b8135602061202982611fe7565b6040516120368282611eff565b83815260059390931b850182019282810191508684111561205657600080fd5b8286015b84811015612071578035835291830191830161205a565b509695505050505050565b600080600080600060a0868803121561209457600080fd5b853561209f81611df9565b945060208601356120af81611df9565b9350604086013567ffffffffffffffff808211156120cc57600080fd5b6120d889838a0161200b565b945060608801359150808211156120ee57600080fd5b6120fa89838a0161200b565b9350608088013591508082111561211057600080fd5b5061211d88828901611f2c565b9150509295509295909350565b60006020828403121561213c57600080fd5b813567ffffffffffffffff81111561215357600080fd5b61215f84828501611f2c565b949350505050565b6000806040838503121561217a57600080fd5b823567ffffffffffffffff8082111561219257600080fd5b818501915085601f8301126121a657600080fd5b813560206121b382611fe7565b6040516121c08282611eff565b83815260059390931b85018201928281019150898411156121e057600080fd5b948201945b838610156122075785356121f881611df9565b825294820194908201906121e5565b9650508601359250508082111561221d57600080fd5b50611fdd8582860161200b565b600081518084526020808501945080840160005b8381101561225a5781518752958201959082019060010161223e565b509495945050505050565b602081526000610694602083018461222a565b6000806040838503121561228b57600080fd5b82359150602083013561229d81611df9565b809150509250929050565b600080604083850312156122bb57600080fd5b82356122c681611df9565b91506020830135801515811461229d57600080fd5b600080604083850312156122ee57600080fd5b82356122f981611df9565b9150602083013561229d81611df9565b600080600080600060a0868803121561232157600080fd5b853561232c81611df9565b9450602086013561233c81611df9565b93506040860135925060608601359150608086013567ffffffffffffffff81111561236657600080fd5b61211d88828901611f2c565b600181811c9082168061238657607f821691505b602082108103610a9457634e487b7160e01b600052602260045260246000fd5b60008084546123b481612372565b600182811680156123cc57600181146123e157612410565b60ff1984168752821515830287019450612410565b8860005260208060002060005b858110156124075781548a8201529084019082016123ee565b50505082870194505b505050508351612424818360208801611e86565b01949350505050565b60006020828403121561243f57600080fd5b815161069481611df9565b634e487b7160e01b600052601160045260246000fd5b80820281158282048414176105655761056561244a565b808201808211156105655761056561244a565b6020808252602e908201527f455243313135353a2063616c6c6572206973206e6f7420746f6b656e206f776e60408201526d195c881bdc88185c1c1c9bdd995960921b606082015260800190565b818103818111156105655761056561244a565b60208082526022908201527f50657269646f743a2063616c6c6572206973206e6f742050657269646f742044604082015261414f60f01b606082015260800190565b634e487b7160e01b600052603260045260246000fd5b6000600182016125555761255561244a565b5060010190565b601f82111561077857600081815260208120601f850160051c810160208610156125835750805b601f850160051c820191505b818110156117fe5782815560010161258f565b815167ffffffffffffffff8111156125bc576125bc611ee9565b6125d0816125ca8454612372565b8461255c565b602080601f83116001811461260557600084156125ed5750858301515b600019600386901b1c1916600185901b1785556117fe565b600085815260208120601f198616915b8281101561263457888601518255948401946001909101908401612615565b50858210156126525787850151600019600388901b60f8161c191681555b5050505050600190811b01905550565b60208082526025908201527f455243313135353a207472616e7366657220746f20746865207a65726f206164604082015264647265737360d81b606082015260800190565b6020808252602a908201527f455243313135353a20696e73756666696369656e742062616c616e636520666f60408201526939103a3930b739b332b960b11b606082015260800190565b604081526000612704604083018561222a565b8281036020840152612716818561222a565b95945050505050565b6001600160a01b03868116825285166020820152604081018490526060810183905260a06080820181905260009061275990830184611eaa565b979650505050505050565b60006020828403121561277657600080fd5b815161069481611e3a565b600060033d111561279a5760046000803e5060005160e01c5b90565b600060443d10156127ab5790565b6040516003193d81016004833e81513d67ffffffffffffffff81602484011181841117156127db57505050505090565b82850191508151818111156127f35750505050505090565b843d870101602082850101111561280d5750505050505090565b61281c60208286010187611eff565b509095945050505050565b60208082526028908201527f455243313135353a204552433131353552656365697665722072656a656374656040820152676420746f6b656e7360c01b606082015260800190565b6001600160a01b0386811682528516602082015260a06040820181905260009061289b9083018661222a565b82810360608401526128ad818661222a565b905082810360808401526128c18185611eaa565b9897505050505050505056fea26469706673582212209f1e45d7e12b376e346d4156ed978004cca5b21552567a97207904bbebbb71b764736f6c63430008140033",
  "linkReferences": {},
  "deployedLinkReferences": {}
}