{
  "_format": "hh-sol-artifact-1",
  "contractName": "PeridotMemberNFT",
  "sourceName": "contracts/v1/member/PeridotMemberNFT.sol",
  "abi": [
    {
      "inputs": [],
      "stateMutability": "nonpayable",
      "type": "constructor"
    },
    {
      "anonymous": false,
      "inputs": [
        {
          "indexed": true,
          "internalType": "address",
          "name": "owner",
          "type": "address"
        },
        {
          "indexed": true,
          "internalType": "address",
          "name": "approved",
          "type": "address"
        },
        {
          "indexed": true,
          "internalType": "uint256",
          "name": "tokenId",
          "type": "uint256"
        }
      ],
      "name": "Approval",
      "type": "event"
    },
    {
      "anonymous": false,
      "inputs": [
        {
          "indexed": true,
          "internalType": "address",
          "name": "owner",
          "type": "address"
        },
        {
          "indexed": true,
          "internalType": "address",
          "name": "operator",
          "type": "address"
        },
        {
          "indexed": false,
          "internalType": "bool",
          "name": "approved",
          "type": "bool"
        }
      ],
      "name": "ApprovalForAll",
      "type": "event"
    },
    {
      "anonymous": false,
      "inputs": [
        {
          "indexed": true,
          "internalType": "address",
          "name": "previousOwner",
          "type": "address"
        },
        {
          "indexed": true,
          "internalType": "address",
          "name": "newOwner",
          "type": "address"
        }
      ],
      "name": "OwnershipTransferred",
      "type": "event"
    },
    {
      "anonymous": false,
      "inputs": [
        {
          "indexed": true,
          "internalType": "address",
          "name": "from",
          "type": "address"
        },
        {
          "indexed": true,
          "internalType": "address",
          "name": "to",
          "type": "address"
        },
        {
          "indexed": true,
          "internalType": "uint256",
          "name": "tokenId",
          "type": "uint256"
        }
      ],
      "name": "Transfer",
      "type": "event"
    },
    {
      "inputs": [
        {
          "internalType": "address",
          "name": "to",
          "type": "address"
        },
        {
          "internalType": "uint256",
          "name": "tokenId",
          "type": "uint256"
        }
      ],
      "name": "approve",
      "outputs": [],
      "stateMutability": "nonpayable",
      "type": "function"
    },
    {
      "inputs": [
        {
          "internalType": "address",
          "name": "owner",
          "type": "address"
        }
      ],
      "name": "balanceOf",
      "outputs": [
        {
          "internalType": "uint256",
          "name": "",
          "type": "uint256"
        }
      ],
      "stateMutability": "view",
      "type": "function"
    },
    {
      "inputs": [
        {
          "internalType": "address",
          "name": "to",
          "type": "address"
        },
        {
          "internalType": "uint256",
          "name": "amount",
          "type": "uint256"
        }
      ],
      "name": "batchSafeMint",
      "outputs": [],
      "stateMutability": "nonpayable",
      "type": "function"
    },
    {
      "inputs": [],
      "name": "defaulturi",
      "outputs": [
        {
          "internalType": "string",
          "name": "",
          "type": "string"
        }
      ],
      "stateMutability": "view",
      "type": "function"
    },
    {
      "inputs": [
        {
          "internalType": "uint256",
          "name": "tokenId",
          "type": "uint256"
        }
      ],
      "name": "getApproved",
      "outputs": [
        {
          "internalType": "address",
          "name": "",
          "type": "address"
        }
      ],
      "stateMutability": "view",
      "type": "function"
    },
    {
      "inputs": [
        {
          "internalType": "address",
          "name": "owner",
          "type": "address"
        },
        {
          "internalType": "address",
          "name": "operator",
          "type": "address"
        }
      ],
      "name": "isApprovedForAll",
      "outputs": [
        {
          "internalType": "bool",
          "name": "",
          "type": "bool"
        }
      ],
      "stateMutability": "view",
      "type": "function"
    },
    {
      "inputs": [],
      "name": "name",
      "outputs": [
        {
          "internalType": "string",
          "name": "",
          "type": "string"
        }
      ],
      "stateMutability": "view",
      "type": "function"
    },
    {
      "inputs": [],
      "name": "owner",
      "outputs": [
        {
          "internalType": "address",
          "name": "",
          "type": "address"
        }
      ],
      "stateMutability": "view",
      "type": "function"
    },
    {
      "inputs": [
        {
          "internalType": "uint256",
          "name": "tokenId",
          "type": "uint256"
        }
      ],
      "name": "ownerOf",
      "outputs": [
        {
          "internalType": "address",
          "name": "",
          "type": "address"
        }
      ],
      "stateMutability": "view",
      "type": "function"
    },
    {
      "inputs": [],
      "name": "renounceOwnership",
      "outputs": [],
      "stateMutability": "nonpayable",
      "type": "function"
    },
    {
      "inputs": [
        {
          "internalType": "address",
          "name": "to",
          "type": "address"
        }
      ],
      "name": "safeMint",
      "outputs": [],
      "stateMutability": "nonpayable",
      "type": "function"
    },
    {
      "inputs": [
        {
          "internalType": "address",
          "name": "from",
          "type": "address"
        },
        {
          "internalType": "address",
          "name": "to",
          "type": "address"
        },
        {
          "internalType": "uint256",
          "name": "tokenId",
          "type": "uint256"
        }
      ],
      "name": "safeTransferFrom",
      "outputs": [],
      "stateMutability": "nonpayable",
      "type": "function"
    },
    {
      "inputs": [
        {
          "internalType": "address",
          "name": "from",
          "type": "address"
        },
        {
          "internalType": "address",
          "name": "to",
          "type": "address"
        },
        {
          "internalType": "uint256",
          "name": "tokenId",
          "type": "uint256"
        },
        {
          "internalType": "bytes",
          "name": "data",
          "type": "bytes"
        }
      ],
      "name": "safeTransferFrom",
      "outputs": [],
      "stateMutability": "nonpayable",
      "type": "function"
    },
    {
      "inputs": [
        {
          "internalType": "address",
          "name": "operator",
          "type": "address"
        },
        {
          "internalType": "bool",
          "name": "approved",
          "type": "bool"
        }
      ],
      "name": "setApprovalForAll",
      "outputs": [],
      "stateMutability": "nonpayable",
      "type": "function"
    },
    {
      "inputs": [
        {
          "internalType": "string",
          "name": "uri",
          "type": "string"
        }
      ],
      "name": "setBaseURI",
      "outputs": [],
      "stateMutability": "nonpayable",
      "type": "function"
    },
    {
      "inputs": [
        {
          "internalType": "bytes4",
          "name": "interfaceId",
          "type": "bytes4"
        }
      ],
      "name": "supportsInterface",
      "outputs": [
        {
          "internalType": "bool",
          "name": "",
          "type": "bool"
        }
      ],
      "stateMutability": "view",
      "type": "function"
    },
    {
      "inputs": [],
      "name": "symbol",
      "outputs": [
        {
          "internalType": "string",
          "name": "",
          "type": "string"
        }
      ],
      "stateMutability": "view",
      "type": "function"
    },
    {
      "inputs": [
        {
          "internalType": "uint256",
          "name": "tokenId",
          "type": "uint256"
        }
      ],
      "name": "tokenURI",
      "outputs": [
        {
          "internalType": "string",
          "name": "",
          "type": "string"
        }
      ],
      "stateMutability": "view",
      "type": "function"
    },
    {
      "inputs": [
        {
          "internalType": "address",
          "name": "from",
          "type": "address"
        },
        {
          "internalType": "address",
          "name": "to",
          "type": "address"
        },
        {
          "internalType": "uint256",
          "name": "tokenId",
          "type": "uint256"
        }
      ],
      "name": "transferFrom",
      "outputs": [],
      "stateMutability": "nonpayable",
      "type": "function"
    },
    {
      "inputs": [
        {
          "internalType": "address",
          "name": "newOwner",
          "type": "address"
        }
      ],
      "name": "transferOwnership",
      "outputs": [],
      "stateMutability": "nonpayable",
      "type": "function"
    }
  ],
  "bytecode": "0x610100604052605060808181529062001b2260a039600790620000239082620001d8565b50604080516020810190915260008152600890620000429082620001d8565b503480156200005057600080fd5b50604051806040016040528060118152602001704e6f6e2d46756e6769626c65204372657760781b815250604051806040016040528060068152602001654e464372657760d01b8152508160009081620000ab9190620001d8565b506001620000ba8282620001d8565b505050620000d7620000d1620000dd60201b60201c565b620000e1565b620002a4565b3390565b600680546001600160a01b038381166001600160a01b0319831681179093556040519116919082907f8be0079c531659141344cd1fd0a4f28419497f9722a3daafe3b4186f6b6457e090600090a35050565b634e487b7160e01b600052604160045260246000fd5b600181811c908216806200015e57607f821691505b6020821081036200017f57634e487b7160e01b600052602260045260246000fd5b50919050565b601f821115620001d357600081815260208120601f850160051c81016020861015620001ae5750805b601f850160051c820191505b81811015620001cf57828155600101620001ba565b5050505b505050565b81516001600160401b03811115620001f457620001f462000133565b6200020c8162000205845462000149565b8462000185565b602080601f8311600181146200024457600084156200022b5750858301515b600019600386901b1c1916600185901b178555620001cf565b600085815260208120601f198616915b82811015620002755788860151825594840194600190910190840162000254565b5085821015620002945787850151600019600388901b60f8161c191681555b5050505050600190811b01905550565b61186e80620002b46000396000f3fe608060405234801561001057600080fd5b506004361061012c5760003560e01c80636352211e116100ad578063a22cb46511610071578063a22cb4651461026a578063b88d4fde1461027d578063c87b56dd14610290578063e985e9c5146102a3578063f2fde38b146102df57600080fd5b80636352211e1461021557806370a0823114610228578063715018a6146102495780638da5cb5b1461025157806395d89b411461026257600080fd5b806323b872dd116100f457806323b872dd146101b657806340d097c3146101c957806342842e0e146101dc57806355f804b3146101ef5780635832bcfe1461020257600080fd5b806301ffc9a71461013157806306fdde0314610159578063081812fc1461016e578063095ea7b3146101995780630bf11f4f146101ae575b600080fd5b61014461013f36600461125f565b6102f2565b60405190151581526020015b60405180910390f35b610161610344565b60405161015091906112d3565b61018161017c3660046112e6565b6103d6565b6040516001600160a01b039091168152602001610150565b6101ac6101a736600461131b565b6103fd565b005b610161610517565b6101ac6101c4366004611345565b6105a5565b6101ac6101d7366004611381565b6105d6565b6101ac6101ea366004611345565b610607565b6101ac6101fd366004611428565b610622565b6101ac61021036600461131b565b610636565b6101816102233660046112e6565b61067f565b61023b610236366004611381565b6106df565b604051908152602001610150565b6101ac610765565b6006546001600160a01b0316610181565b610161610779565b6101ac610278366004611471565b610788565b6101ac61028b3660046114ad565b610793565b61016161029e3660046112e6565b6107c5565b6101446102b1366004611529565b6001600160a01b03918216600090815260056020908152604080832093909416825291909152205460ff1690565b6101ac6102ed366004611381565b610920565b60006001600160e01b031982166380ac58cd60e01b148061032357506001600160e01b03198216635b5e139f60e01b145b8061033e57506301ffc9a760e01b6001600160e01b03198316145b92915050565b6060600080546103539061155c565b80601f016020809104026020016040519081016040528092919081815260200182805461037f9061155c565b80156103cc5780601f106103a1576101008083540402835291602001916103cc565b820191906000526020600020905b8154815290600101906020018083116103af57829003601f168201915b5050505050905090565b60006103e182610999565b506000908152600460205260409020546001600160a01b031690565b60006104088261067f565b9050806001600160a01b0316836001600160a01b03160361047a5760405162461bcd60e51b815260206004820152602160248201527f4552433732313a20617070726f76616c20746f2063757272656e74206f776e656044820152603960f91b60648201526084015b60405180910390fd5b336001600160a01b0382161480610496575061049681336102b1565b6105085760405162461bcd60e51b815260206004820152603d60248201527f4552433732313a20617070726f76652063616c6c6572206973206e6f7420746f60448201527f6b656e206f776e6572206f7220617070726f76656420666f7220616c6c0000006064820152608401610471565b61051283836109f8565b505050565b600780546105249061155c565b80601f01602080910402602001604051908101604052809291908181526020018280546105509061155c565b801561059d5780601f106105725761010080835404028352916020019161059d565b820191906000526020600020905b81548152906001019060200180831161058057829003601f168201915b505050505081565b6105af3382610a66565b6105cb5760405162461bcd60e51b815260040161047190611596565b610512838383610ae5565b6105de610c49565b60006105e960095490565b90506105f9600980546001019055565b6106038282610ca3565b5050565b61051283838360405180602001604052806000815250610793565b61062a610c49565b60086106038282611631565b61063e610c49565b6000805b8281101561067957600954915061065d600980546001019055565b6106678483610ca3565b80610671816116f1565b915050610642565b50505050565b6000818152600260205260408120546001600160a01b03168061033e5760405162461bcd60e51b8152602060048201526018602482015277115490cdcc8c4e881a5b9d985b1a59081d1bdad95b88125160421b6044820152606401610471565b60006001600160a01b0382166107495760405162461bcd60e51b815260206004820152602960248201527f4552433732313a2061646472657373207a65726f206973206e6f7420612076616044820152683634b21037bbb732b960b91b6064820152608401610471565b506001600160a01b031660009081526003602052604090205490565b61076d610c49565b6107776000610cbd565b565b6060600180546103539061155c565b610603338383610d0f565b61079d3383610a66565b6107b95760405162461bcd60e51b815260040161047190611596565b61067984848484610ddd565b6000818152600260205260409020546060906001600160a01b03166108465760405162461bcd60e51b815260206004820152603160248201527f45524337323155524953746f726167653a2055524920717565727920666f72206044820152703737b732bc34b9ba32b73a103a37b5b2b760791b6064820152608401610471565b6000610850610e10565b905080516000036108ee57600780546108689061155c565b80601f01602080910402602001604051908101604052809291908181526020018280546108949061155c565b80156108e15780601f106108b6576101008083540402835291602001916108e1565b820191906000526020600020905b8154815290600101906020018083116108c457829003601f168201915b5050505050915050919050565b806108f884610e1f565b604051602001610909929190611718565b604051602081830303815290604052915050919050565b610928610c49565b6001600160a01b03811661098d5760405162461bcd60e51b815260206004820152602660248201527f4f776e61626c653a206e6577206f776e657220697320746865207a65726f206160448201526564647265737360d01b6064820152608401610471565b61099681610cbd565b50565b6000818152600260205260409020546001600160a01b03166109965760405162461bcd60e51b8152602060048201526018602482015277115490cdcc8c4e881a5b9d985b1a59081d1bdad95b88125160421b6044820152606401610471565b600081815260046020526040902080546001600160a01b0319166001600160a01b0384169081179091558190610a2d8261067f565b6001600160a01b03167f8c5be1e5ebec7d5bd14f71427d1e84f3dd0314c0f7b2291e5b200ac8c7c3b92560405160405180910390a45050565b600080610a728361067f565b9050806001600160a01b0316846001600160a01b03161480610ab957506001600160a01b0380821660009081526005602090815260408083209388168352929052205460ff165b80610add5750836001600160a01b0316610ad2846103d6565b6001600160a01b0316145b949350505050565b826001600160a01b0316610af88261067f565b6001600160a01b031614610b1e5760405162461bcd60e51b815260040161047190611747565b6001600160a01b038216610b805760405162461bcd60e51b8152602060048201526024808201527f4552433732313a207472616e7366657220746f20746865207a65726f206164646044820152637265737360e01b6064820152608401610471565b826001600160a01b0316610b938261067f565b6001600160a01b031614610bb95760405162461bcd60e51b815260040161047190611747565b600081815260046020908152604080832080546001600160a01b03199081169091556001600160a01b0387811680865260038552838620805460001901905590871680865283862080546001019055868652600290945282852080549092168417909155905184937fddf252ad1be2c89b69c2b068fc378daa952ba7f163c4a11628f55a4df523b3ef91a4505050565b6006546001600160a01b031633146107775760405162461bcd60e51b815260206004820181905260248201527f4f776e61626c653a2063616c6c6572206973206e6f7420746865206f776e65726044820152606401610471565b610603828260405180602001604052806000815250610eb2565b600680546001600160a01b038381166001600160a01b0319831681179093556040519116919082907f8be0079c531659141344cd1fd0a4f28419497f9722a3daafe3b4186f6b6457e090600090a35050565b816001600160a01b0316836001600160a01b031603610d705760405162461bcd60e51b815260206004820152601960248201527f4552433732313a20617070726f766520746f2063616c6c6572000000000000006044820152606401610471565b6001600160a01b03838116600081815260056020908152604080832094871680845294825291829020805460ff191686151590811790915591519182527f17307eab39ab6107e8899845ad3d59bd9653f200f220920489ca2b5937696c31910160405180910390a3505050565b610de8848484610ae5565b610df484848484610ee5565b6106795760405162461bcd60e51b81526004016104719061178c565b6060600880546103539061155c565b60606000610e2c83610fe6565b600101905060008167ffffffffffffffff811115610e4c57610e4c61139c565b6040519080825280601f01601f191660200182016040528015610e76576020820181803683370190505b5090508181016020015b600019016f181899199a1a9b1b9c1cb0b131b232b360811b600a86061a8153600a8504945084610e8057509392505050565b610ebc83836110be565b610ec96000848484610ee5565b6105125760405162461bcd60e51b81526004016104719061178c565b60006001600160a01b0384163b15610fdb57604051630a85bd0160e11b81526001600160a01b0385169063150b7a0290610f299033908990889088906004016117de565b6020604051808303816000875af1925050508015610f64575060408051601f3d908101601f19168201909252610f619181019061181b565b60015b610fc1573d808015610f92576040519150601f19603f3d011682016040523d82523d6000602084013e610f97565b606091505b508051600003610fb95760405162461bcd60e51b81526004016104719061178c565b805181602001fd5b6001600160e01b031916630a85bd0160e11b149050610add565b506001949350505050565b60008072184f03e93ff9f4daa797ed6e38ed64bf6a1f0160401b83106110255772184f03e93ff9f4daa797ed6e38ed64bf6a1f0160401b830492506040015b6d04ee2d6d415b85acef81000000008310611051576d04ee2d6d415b85acef8100000000830492506020015b662386f26fc10000831061106f57662386f26fc10000830492506010015b6305f5e1008310611087576305f5e100830492506008015b612710831061109b57612710830492506004015b606483106110ad576064830492506002015b600a831061033e5760010192915050565b6001600160a01b0382166111145760405162461bcd60e51b815260206004820181905260248201527f4552433732313a206d696e7420746f20746865207a65726f20616464726573736044820152606401610471565b6000818152600260205260409020546001600160a01b0316156111795760405162461bcd60e51b815260206004820152601c60248201527f4552433732313a20746f6b656e20616c7265616479206d696e746564000000006044820152606401610471565b6000818152600260205260409020546001600160a01b0316156111de5760405162461bcd60e51b815260206004820152601c60248201527f4552433732313a20746f6b656e20616c7265616479206d696e746564000000006044820152606401610471565b6001600160a01b038216600081815260036020908152604080832080546001019055848352600290915280822080546001600160a01b0319168417905551839291907fddf252ad1be2c89b69c2b068fc378daa952ba7f163c4a11628f55a4df523b3ef908290a45050565b6001600160e01b03198116811461099657600080fd5b60006020828403121561127157600080fd5b813561127c81611249565b9392505050565b60005b8381101561129e578181015183820152602001611286565b50506000910152565b600081518084526112bf816020860160208601611283565b601f01601f19169290920160200192915050565b60208152600061127c60208301846112a7565b6000602082840312156112f857600080fd5b5035919050565b80356001600160a01b038116811461131657600080fd5b919050565b6000806040838503121561132e57600080fd5b611337836112ff565b946020939093013593505050565b60008060006060848603121561135a57600080fd5b611363846112ff565b9250611371602085016112ff565b9150604084013590509250925092565b60006020828403121561139357600080fd5b61127c826112ff565b634e487b7160e01b600052604160045260246000fd5b600067ffffffffffffffff808411156113cd576113cd61139c565b604051601f8501601f19908116603f011681019082821181831017156113f5576113f561139c565b8160405280935085815286868601111561140e57600080fd5b858560208301376000602087830101525050509392505050565b60006020828403121561143a57600080fd5b813567ffffffffffffffff81111561145157600080fd5b8201601f8101841361146257600080fd5b610add848235602084016113b2565b6000806040838503121561148457600080fd5b61148d836112ff565b9150602083013580151581146114a257600080fd5b809150509250929050565b600080600080608085870312156114c357600080fd5b6114cc856112ff565b93506114da602086016112ff565b925060408501359150606085013567ffffffffffffffff8111156114fd57600080fd5b8501601f8101871361150e57600080fd5b61151d878235602084016113b2565b91505092959194509250565b6000806040838503121561153c57600080fd5b611545836112ff565b9150611553602084016112ff565b90509250929050565b600181811c9082168061157057607f821691505b60208210810361159057634e487b7160e01b600052602260045260246000fd5b50919050565b6020808252602d908201527f4552433732313a2063616c6c6572206973206e6f7420746f6b656e206f776e6560408201526c1c881bdc88185c1c1c9bdd9959609a1b606082015260800190565b601f82111561051257600081815260208120601f850160051c8101602086101561160a5750805b601f850160051c820191505b8181101561162957828155600101611616565b505050505050565b815167ffffffffffffffff81111561164b5761164b61139c565b61165f81611659845461155c565b846115e3565b602080601f831160018114611694576000841561167c5750858301515b600019600386901b1c1916600185901b178555611629565b600085815260208120601f198616915b828110156116c3578886015182559484019460019091019084016116a4565b50858210156116e15787850151600019600388901b60f8161c191681555b5050505050600190811b01905550565b60006001820161171157634e487b7160e01b600052601160045260246000fd5b5060010190565b6000835161172a818460208801611283565b83519083019061173e818360208801611283565b01949350505050565b60208082526025908201527f4552433732313a207472616e736665722066726f6d20696e636f72726563742060408201526437bbb732b960d91b606082015260800190565b60208082526032908201527f4552433732313a207472616e7366657220746f206e6f6e20455243373231526560408201527131b2b4bb32b91034b6b83632b6b2b73a32b960711b606082015260800190565b6001600160a01b0385811682528416602082015260408101839052608060608201819052600090611811908301846112a7565b9695505050505050565b60006020828403121561182d57600080fd5b815161127c8161124956fea2646970667358221220856c53768903357d17ad4b41373dba31f78a7a21660cbd9caf96b99a6557280464736f6c6343000814003368747470733a2f2f697066732e696f2f697066732f6261666b726569636633366836367872686b736f3277797473703577757a6b776f6e73366a6e6e77343779767a3662356e6f677869366775796d6d",
  "linkReferences": {},
  "deployedLinkReferences": {}
}