{
  "_format": "hh-sol-artifact-1",
  "contractName": "PeridotSwap",
  "sourceName": "contracts/v1/fundraising/PeridotSwap.sol",
  "abi": [
    {
      "inputs": [
        {
          "internalType": "address",
          "name": "_witnetRandomness",
          "type": "address"
        }
      ],
      "stateMutability": "nonpayable",
      "type": "constructor"
    },
    {
      "inputs": [
        {
          "internalType": "uint256",
          "name": "requestId",
          "type": "uint256"
        }
      ],
      "name": "RandomnessAlreadyFulfilled",
      "type": "error"
    },
    {
      "inputs": [
        {
          "internalType": "uint256",
          "name": "requestId",
          "type": "uint256"
        }
      ],
      "name": "RequestAlreadyCompleted",
      "type": "error"
    },
    {
      "inputs": [
        {
          "internalType": "uint256",
          "name": "blocksSinceRequest",
          "type": "uint256"
        }
      ],
      "name": "RequestNotYetExpired",
      "type": "error"
    },
    {
      "anonymous": false,
      "inputs": [
        {
          "indexed": true,
          "internalType": "address",
          "name": "previousOwner",
          "type": "address"
        },
        {
          "indexed": true,
          "internalType": "address",
          "name": "newOwner",
          "type": "address"
        }
      ],
      "name": "OwnershipTransferred",
      "type": "event"
    },
    {
      "anonymous": false,
      "inputs": [
        {
          "indexed": false,
          "internalType": "address",
          "name": "owner",
          "type": "address"
        },
        {
          "indexed": false,
          "internalType": "address",
          "name": "miniNFTcontract",
          "type": "address"
        },
        {
          "indexed": false,
          "internalType": "uint256",
          "name": "tokenID",
          "type": "uint256"
        }
      ],
      "name": "PoolClaim",
      "type": "event"
    },
    {
      "anonymous": false,
      "inputs": [
        {
          "indexed": false,
          "internalType": "uint256",
          "name": "requestId",
          "type": "uint256"
        },
        {
          "indexed": false,
          "internalType": "uint32",
          "name": "randomNumber",
          "type": "uint32"
        },
        {
          "indexed": false,
          "internalType": "address",
          "name": "fulfilledBy",
          "type": "address"
        }
      ],
      "name": "RandomnessFulfilled",
      "type": "event"
    },
    {
      "anonymous": false,
      "inputs": [
        {
          "indexed": false,
          "internalType": "uint256",
          "name": "oldRequestId",
          "type": "uint256"
        },
        {
          "indexed": false,
          "internalType": "uint256",
          "name": "newRequestId",
          "type": "uint256"
        }
      ],
      "name": "RandomnessReRequested",
      "type": "event"
    },
    {
      "anonymous": false,
      "inputs": [
        {
          "indexed": false,
          "internalType": "uint256",
          "name": "requestId",
          "type": "uint256"
        }
      ],
      "name": "RandomnessRequestCancelled",
      "type": "event"
    },
    {
      "anonymous": false,
      "inputs": [
        {
          "indexed": false,
          "internalType": "uint256",
          "name": "requestId",
          "type": "uint256"
        },
        {
          "indexed": false,
          "internalType": "address",
          "name": "requestedBy",
          "type": "address"
        },
        {
          "indexed": false,
          "internalType": "uint256",
          "name": "requestBlock",
          "type": "uint256"
        }
      ],
      "name": "RandomnessRequested",
      "type": "event"
    },
    {
      "anonymous": false,
      "inputs": [
        {
          "indexed": false,
          "internalType": "uint256",
          "name": "requestId",
          "type": "uint256"
        },
        {
          "indexed": false,
          "internalType": "address",
          "name": "sender",
          "type": "address"
        },
        {
          "indexed": false,
          "internalType": "address",
          "name": "NFTContract",
          "type": "address"
        }
      ],
      "name": "SendChainlinkVRF",
      "type": "event"
    },
    {
      "anonymous": false,
      "inputs": [
        {
          "indexed": false,
          "internalType": "address",
          "name": "owner",
          "type": "address"
        },
        {
          "indexed": false,
          "internalType": "address",
          "name": "miniNFTcontract",
          "type": "address"
        },
        {
          "indexed": false,
          "internalType": "uint256",
          "name": "miniNFTAmount",
          "type": "uint256"
        }
      ],
      "name": "SwapFFTtoMiniNFT",
      "type": "event"
    },
    {
      "anonymous": false,
      "inputs": [
        {
          "indexed": false,
          "internalType": "address",
          "name": "owner",
          "type": "address"
        },
        {
          "indexed": false,
          "internalType": "address",
          "name": "miniNFTcontract",
          "type": "address"
        },
        {
          "indexed": false,
          "internalType": "uint256",
          "name": "tokenID",
          "type": "uint256"
        },
        {
          "indexed": false,
          "internalType": "uint256",
          "name": "miniNFTAmount",
          "type": "uint256"
        }
      ],
      "name": "SwapMiniNFTtoFFT",
      "type": "event"
    },
    {
      "anonymous": false,
      "inputs": [
        {
          "indexed": false,
          "internalType": "address",
          "name": "owner",
          "type": "address"
        },
        {
          "indexed": false,
          "internalType": "address",
          "name": "NFTContract",
          "type": "address"
        },
        {
          "indexed": false,
          "internalType": "uint256",
          "name": "NFTID",
          "type": "uint256"
        }
      ],
      "name": "SwapMiniNFTtoNFT",
      "type": "event"
    },
    {
      "anonymous": false,
      "inputs": [
        {
          "indexed": false,
          "internalType": "address",
          "name": "factory",
          "type": "address"
        }
      ],
      "name": "UpdateFactory",
      "type": "event"
    },
    {
      "anonymous": false,
      "inputs": [
        {
          "indexed": false,
          "internalType": "address",
          "name": "editor",
          "type": "address"
        },
        {
          "indexed": false,
          "internalType": "address",
          "name": "miniNFT",
          "type": "address"
        },
        {
          "indexed": false,
          "internalType": "address",
          "name": "FFT",
          "type": "address"
        },
        {
          "indexed": false,
          "internalType": "address",
          "name": "NFT",
          "type": "address"
        }
      ],
      "name": "UpdatePoolRelation",
      "type": "event"
    },
    {
      "anonymous": false,
      "inputs": [
        {
          "indexed": false,
          "internalType": "uint256",
          "name": "fftTax",
          "type": "uint256"
        },
        {
          "indexed": false,
          "internalType": "uint256",
          "name": "nftTax",
          "type": "uint256"
        }
      ],
      "name": "UpdateTax",
      "type": "event"
    },
    {
      "inputs": [
        {
          "internalType": "address",
          "name": "",
          "type": "address"
        },
        {
          "internalType": "uint256",
          "name": "",
          "type": "uint256"
        }
      ],
      "name": "NFTIds",
      "outputs": [
        {
          "internalType": "uint256",
          "name": "",
          "type": "uint256"
        }
      ],
      "stateMutability": "view",
      "type": "function"
    },
    {
      "inputs": [
        {
          "internalType": "address",
          "name": "",
          "type": "address"
        }
      ],
      "name": "NFTtoMiniNFT",
      "outputs": [
        {
          "internalType": "address",
          "name": "",
          "type": "address"
        }
      ],
      "stateMutability": "view",
      "type": "function"
    },
    {
      "inputs": [
        {
          "internalType": "uint256",
          "name": "requestId",
          "type": "uint256"
        }
      ],
      "name": "cancelRandomnessRequest",
      "outputs": [],
      "stateMutability": "nonpayable",
      "type": "function"
    },
    {
      "inputs": [
        {
          "internalType": "uint256",
          "name": "requestId",
          "type": "uint256"
        }
      ],
      "name": "checkAndReRequestRandomness",
      "outputs": [],
      "stateMutability": "payable",
      "type": "function"
    },
    {
      "inputs": [],
      "name": "fftTax",
      "outputs": [
        {
          "internalType": "uint256",
          "name": "",
          "type": "uint256"
        }
      ],
      "stateMutability": "view",
      "type": "function"
    },
    {
      "inputs": [
        {
          "internalType": "address",
          "name": "user",
          "type": "address"
        }
      ],
      "name": "getLatestRequestId",
      "outputs": [
        {
          "internalType": "uint256",
          "name": "",
          "type": "uint256"
        }
      ],
      "stateMutability": "view",
      "type": "function"
    },
    {
      "inputs": [
        {
          "internalType": "address",
          "name": "",
          "type": "address"
        }
      ],
      "name": "latestRequestById",
      "outputs": [
        {
          "internalType": "uint256",
          "name": "",
          "type": "uint256"
        }
      ],
      "stateMutability": "view",
      "type": "function"
    },
    {
      "inputs": [
        {
          "internalType": "address",
          "name": "",
          "type": "address"
        }
      ],
      "name": "miniNFTtoFFT",
      "outputs": [
        {
          "internalType": "address",
          "name": "",
          "type": "address"
        }
      ],
      "stateMutability": "view",
      "type": "function"
    },
    {
      "inputs": [],
      "name": "nftTax",
      "outputs": [
        {
          "internalType": "uint256",
          "name": "",
          "type": "uint256"
        }
      ],
      "stateMutability": "view",
      "type": "function"
    },
    {
      "inputs": [
        {
          "internalType": "address",
          "name": "NFTContract",
          "type": "address"
        }
      ],
      "name": "numberOfNFT",
      "outputs": [
        {
          "internalType": "uint256",
          "name": "",
          "type": "uint256"
        }
      ],
      "stateMutability": "view",
      "type": "function"
    },
    {
      "inputs": [
        {
          "internalType": "address",
          "name": "",
          "type": "address"
        },
        {
          "internalType": "address",
          "name": "",
          "type": "address"
        },
        {
          "internalType": "uint256[]",
          "name": "",
          "type": "uint256[]"
        },
        {
          "internalType": "uint256[]",
          "name": "",
          "type": "uint256[]"
        },
        {
          "internalType": "bytes",
          "name": "",
          "type": "bytes"
        }
      ],
      "name": "onERC1155BatchReceived",
      "outputs": [
        {
          "internalType": "bytes4",
          "name": "",
          "type": "bytes4"
        }
      ],
      "stateMutability": "nonpayable",
      "type": "function"
    },
    {
      "inputs": [
        {
          "internalType": "address",
          "name": "",
          "type": "address"
        },
        {
          "internalType": "address",
          "name": "",
          "type": "address"
        },
        {
          "internalType": "uint256",
          "name": "",
          "type": "uint256"
        },
        {
          "internalType": "uint256",
          "name": "",
          "type": "uint256"
        },
        {
          "internalType": "bytes",
          "name": "",
          "type": "bytes"
        }
      ],
      "name": "onERC1155Received",
      "outputs": [
        {
          "internalType": "bytes4",
          "name": "",
          "type": "bytes4"
        }
      ],
      "stateMutability": "nonpayable",
      "type": "function"
    },
    {
      "inputs": [
        {
          "internalType": "address",
          "name": "operator",
          "type": "address"
        },
        {
          "internalType": "address",
          "name": "from",
          "type": "address"
        },
        {
          "internalType": "uint256",
          "name": "tokenId",
          "type": "uint256"
        },
        {
          "internalType": "bytes",
          "name": "data",
          "type": "bytes"
        }
      ],
      "name": "onERC721Received",
      "outputs": [
        {
          "internalType": "bytes4",
          "name": "",
          "type": "bytes4"
        }
      ],
      "stateMutability": "nonpayable",
      "type": "function"
    },
    {
      "inputs": [],
      "name": "owner",
      "outputs": [
        {
          "internalType": "address",
          "name": "",
          "type": "address"
        }
      ],
      "stateMutability": "view",
      "type": "function"
    },
    {
      "inputs": [
        {
          "internalType": "address",
          "name": "miniNFTContract",
          "type": "address"
        },
        {
          "internalType": "uint256",
          "name": "tokenID",
          "type": "uint256"
        }
      ],
      "name": "poolClaim",
      "outputs": [
        {
          "internalType": "bool",
          "name": "",
          "type": "bool"
        }
      ],
      "stateMutability": "nonpayable",
      "type": "function"
    },
    {
      "inputs": [],
      "name": "processRandomness",
      "outputs": [],
      "stateMutability": "nonpayable",
      "type": "function"
    },
    {
      "inputs": [
        {
          "internalType": "uint256",
          "name": "",
          "type": "uint256"
        }
      ],
      "name": "randomnessRequests",
      "outputs": [
        {
          "internalType": "address",
          "name": "sender",
          "type": "address"
        },
        {
          "internalType": "address",
          "name": "nft",
          "type": "address"
        },
        {
          "internalType": "uint256",
          "name": "requestBlock",
          "type": "uint256"
        },
        {
          "internalType": "uint32",
          "name": "nonce",
          "type": "uint32"
        },
        {
          "internalType": "bool",
          "name": "completed",
          "type": "bool"
        },
        {
          "internalType": "uint32",
          "name": "randomNumber",
          "type": "uint32"
        }
      ],
      "stateMutability": "view",
      "type": "function"
    },
    {
      "inputs": [],
      "name": "renounceOwnership",
      "outputs": [],
      "stateMutability": "nonpayable",
      "type": "function"
    },
    {
      "inputs": [],
      "name": "requestIdRecipient",
      "outputs": [
        {
          "internalType": "address",
          "name": "",
          "type": "address"
        }
      ],
      "stateMutability": "view",
      "type": "function"
    },
    {
      "inputs": [
        {
          "internalType": "bytes4",
          "name": "interfaceId",
          "type": "bytes4"
        }
      ],
      "name": "supportsInterface",
      "outputs": [
        {
          "internalType": "bool",
          "name": "",
          "type": "bool"
        }
      ],
      "stateMutability": "view",
      "type": "function"
    },
    {
      "inputs": [
        {
          "internalType": "address",
          "name": "miniNFTContract",
          "type": "address"
        },
        {
          "internalType": "uint256",
          "name": "miniNFTAmount",
          "type": "uint256"
        }
      ],
      "name": "swapFFTtoMiniNFT",
      "outputs": [
        {
          "internalType": "bool",
          "name": "",
          "type": "bool"
        }
      ],
      "stateMutability": "nonpayable",
      "type": "function"
    },
    {
      "inputs": [
        {
          "internalType": "address",
          "name": "miniNFTContract",
          "type": "address"
        },
        {
          "internalType": "uint256",
          "name": "tokenID",
          "type": "uint256"
        },
        {
          "internalType": "uint256",
          "name": "amount",
          "type": "uint256"
        }
      ],
      "name": "swapMiniNFTtoFFT",
      "outputs": [
        {
          "internalType": "bool",
          "name": "",
          "type": "bool"
        }
      ],
      "stateMutability": "nonpayable",
      "type": "function"
    },
    {
      "inputs": [
        {
          "internalType": "address",
          "name": "NFTContract",
          "type": "address"
        }
      ],
      "name": "swapMiniNFTtoNFT",
      "outputs": [
        {
          "internalType": "bool",
          "name": "",
          "type": "bool"
        }
      ],
      "stateMutability": "payable",
      "type": "function"
    },
    {
      "inputs": [
        {
          "internalType": "address",
          "name": "NFTContract",
          "type": "address"
        },
        {
          "internalType": "address",
          "name": "fromOwner",
          "type": "address"
        },
        {
          "internalType": "uint256",
          "name": "tokenId",
          "type": "uint256"
        }
      ],
      "name": "swapNFTtoMiniNFT",
      "outputs": [
        {
          "internalType": "bool",
          "name": "",
          "type": "bool"
        }
      ],
      "stateMutability": "nonpayable",
      "type": "function"
    },
    {
      "inputs": [],
      "name": "swapRate",
      "outputs": [
        {
          "internalType": "uint256",
          "name": "",
          "type": "uint256"
        }
      ],
      "stateMutability": "view",
      "type": "function"
    },
    {
      "inputs": [],
      "name": "tokenFactory",
      "outputs": [
        {
          "internalType": "address",
          "name": "",
          "type": "address"
        }
      ],
      "stateMutability": "view",
      "type": "function"
    },
    {
      "inputs": [
        {
          "internalType": "address",
          "name": "newOwner",
          "type": "address"
        }
      ],
      "name": "transferOwnership",
      "outputs": [],
      "stateMutability": "nonpayable",
      "type": "function"
    },
    {
      "inputs": [
        {
          "internalType": "address",
          "name": "factory_",
          "type": "address"
        }
      ],
      "name": "updateFactory",
      "outputs": [
        {
          "internalType": "bool",
          "name": "",
          "type": "bool"
        }
      ],
      "stateMutability": "nonpayable",
      "type": "function"
    },
    {
      "inputs": [
        {
          "internalType": "address",
          "name": "miniNFT",
          "type": "address"
        },
        {
          "internalType": "address",
          "name": "FFT",
          "type": "address"
        },
        {
          "internalType": "address",
          "name": "NFT",
          "type": "address"
        }
      ],
      "name": "updatePoolRelation",
      "outputs": [
        {
          "internalType": "bool",
          "name": "",
          "type": "bool"
        }
      ],
      "stateMutability": "nonpayable",
      "type": "function"
    },
    {
      "inputs": [
        {
          "internalType": "uint256",
          "name": "fftTax_",
          "type": "uint256"
        },
        {
          "internalType": "uint256",
          "name": "nftTax_",
          "type": "uint256"
        }
      ],
      "name": "updateTax",
      "outputs": [
        {
          "internalType": "bool",
          "name": "",
          "type": "bool"
        }
      ],
      "stateMutability": "nonpayable",
      "type": "function"
    },
    {
      "inputs": [
        {
          "internalType": "address",
          "name": "airdropContract",
          "type": "address"
        },
        {
          "internalType": "uint256",
          "name": "tokenId",
          "type": "uint256"
        },
        {
          "internalType": "uint256",
          "name": "amount",
          "type": "uint256"
        }
      ],
      "name": "withdrawERC1155",
      "outputs": [
        {
          "internalType": "bool",
          "name": "",
          "type": "bool"
        }
      ],
      "stateMutability": "nonpayable",
      "type": "function"
    },
    {
      "inputs": [
        {
          "internalType": "address",
          "name": "project",
          "type": "address"
        },
        {
          "internalType": "uint256",
          "name": "amount",
          "type": "uint256"
        }
      ],
      "name": "withdrawERC20",
      "outputs": [
        {
          "internalType": "bool",
          "name": "",
          "type": "bool"
        }
      ],
      "stateMutability": "nonpayable",
      "type": "function"
    },
    {
      "inputs": [
        {
          "internalType": "address",
          "name": "airdropContract",
          "type": "address"
        },
        {
          "internalType": "uint256",
          "name": "tokenId",
          "type": "uint256"
        }
      ],
      "name": "withdrawERC721",
      "outputs": [
        {
          "internalType": "bool",
          "name": "",
          "type": "bool"
        }
      ],
      "stateMutability": "nonpayable",
      "type": "function"
    },
    {
      "inputs": [],
      "name": "witnetRandomness",
      "outputs": [
        {
          "internalType": "contract IWitnetRandomness",
          "name": "",
          "type": "address"
        }
      ],
      "stateMutability": "view",
      "type": "function"
    },
    {
      "stateMutability": "payable",
      "type": "receive"
    }
  ],
  "bytecode": "0x6080604052683635c9adc5dea000006003556729a2241af62c000060045560036005553480156200002f57600080fd5b5060405162002c8338038062002c838339810160408190526200005291620000d7565b6200005d3362000087565b60018055600280546001600160a01b0319166001600160a01b039290921691909117905562000109565b600080546001600160a01b038381166001600160a01b0319831681178455604051919092169283917f8be0079c531659141344cd1fd0a4f28419497f9722a3daafe3b4186f6b6457e09190a35050565b600060208284031215620000ea57600080fd5b81516001600160a01b03811681146200010257600080fd5b9392505050565b612b6a80620001196000396000f3fe6080604052600436106101fd5760003560e01c80638da5cb5b1161010d578063c309f024116100a0578063e77772fe1161006f578063e77772fe146106d2578063e8cee480146106f2578063f23a6e6114610707578063f2fde38b14610733578063f3e414f81461075357600080fd5b8063c309f02414610652578063c391a7c114610672578063d453623a14610692578063d9f165dc146106b257600080fd5b8063a27a74e6116100dc578063a27a74e6146105da578063b03e36e0146105f0578063b7177fad14610606578063bc197c811461062657600080fd5b80638da5cb5b146105465780639c4da5ef14610564578063a16ea0d41461059a578063a1db9782146105ba57600080fd5b80633e468757116101905780635cb6dfff1161015f5780635cb6dfff1461041d5780635e109c62146104d0578063698518e5146104e557806370805f22146104fb578063715018a61461053157600080fd5b80633e468757146103aa57806347e9d074146103ca57806355334ea7146103ea57806356bb7c51146103fd57600080fd5b806321e5281c116101cc57806321e5281c1461031d57806327eef8b91461034a5780632f37aa6d1461036a57806339ead7201461038a57600080fd5b806301ffc9a714610209578063125eb7301461023e578063150b7a021461027657806315c93910146102d957600080fd5b3661020457005b600080fd5b34801561021557600080fd5b506102296102243660046124f9565b610773565b60405190151581526020015b60405180910390f35b34801561024a57600080fd5b5060075461025e906001600160a01b031681565b6040516001600160a01b039091168152602001610235565b34801561028257600080fd5b506102c06102913660046125ef565b50336000908152600960209081526040822080546001810182559083529120015550630a85bd0160e11b919050565b6040516001600160e01b03199091168152602001610235565b3480156102e557600080fd5b5061030f6102f436600461265b565b6001600160a01b031660009081526009602052604090205490565b604051908152602001610235565b34801561032957600080fd5b5061030f61033836600461265b565b600c6020526000908152604090205481565b34801561035657600080fd5b5060025461025e906001600160a01b031681565b34801561037657600080fd5b50610229610385366004612678565b6107aa565b34801561039657600080fd5b506102296103a536600461269a565b6108a4565b3480156103b657600080fd5b506102296103c53660046126cf565b610a21565b3480156103d657600080fd5b506102296103e53660046126fb565b610b16565b6102296103f836600461265b565b610c12565b34801561040957600080fd5b5061030f61041836600461265b565b610dde565b34801561042957600080fd5b5061048c610438366004612746565b60086020526000908152604090208054600182015460028301546003909301546001600160a01b0392831693919092169163ffffffff8082169160ff64010000000082041691650100000000009091041686565b604080516001600160a01b0397881681529690951660208701529385019290925263ffffffff908116606085015290151560808401521660a082015260c001610235565b6104e36104de366004612746565b610e9f565b005b3480156104f157600080fd5b5061030f60035481565b34801561050757600080fd5b5061025e61051636600461265b565b600a602052600090815260409020546001600160a01b031681565b34801561053d57600080fd5b506104e3611046565b34801561055257600080fd5b506000546001600160a01b031661025e565b34801561057057600080fd5b5061025e61057f36600461265b565b600b602052600090815260409020546001600160a01b031681565b3480156105a657600080fd5b506102296105b536600461269a565b61105a565b3480156105c657600080fd5b506102296105d53660046126cf565b6112be565b3480156105e657600080fd5b5061030f60045481565b3480156105fc57600080fd5b5061030f60055481565b34801561061257600080fd5b506102296106213660046126cf565b611421565b34801561063257600080fd5b506102c06106413660046127df565b63bc197c8160e01b95945050505050565b34801561065e57600080fd5b5061030f61066d3660046126cf565b611780565b34801561067e57600080fd5b506104e361068d366004612746565b6117b1565b34801561069e57600080fd5b506102296106ad36600461288d565b611845565b3480156106be57600080fd5b506102296106cd36600461265b565b611a16565b3480156106de57600080fd5b5060065461025e906001600160a01b031681565b3480156106fe57600080fd5b506104e3611b33565b34801561071357600080fd5b506102c06107223660046128ce565b63f23a6e6160e01b95945050505050565b34801561073f57600080fd5b506104e361074e36600461265b565b612205565b34801561075f57600080fd5b5061022961076e3660046126cf565b61227e565b60006001600160e01b03198216630271189760e51b14806107a457506301ffc9a760e01b6001600160e01b03198316145b92915050565b600080600660009054906101000a90046001600160a01b03166001600160a01b031663ad9b44cd6040518163ffffffff1660e01b8152600401602060405180830381865afa158015610800573d6000803e3d6000fd5b505050506040513d601f19601f820116820180604052508101906108249190612937565b9050336001600160a01b038216146108575760405162461bcd60e51b815260040161084e90612954565b60405180910390fd5b6004849055600583905560408051858152602081018590527f7240b53819d9ad591da2c6d5cc4317bfb99daeaa5deb5d86e5266b4ddda730f4910160405180910390a15060019392505050565b600080600660009054906101000a90046001600160a01b03166001600160a01b031663ad9b44cd6040518163ffffffff1660e01b8152600401602060405180830381865afa1580156108fa573d6000803e3d6000fd5b505050506040513d601f19601f8201168201806040525081019061091e9190612937565b9050336001600160a01b038216146109485760405162461bcd60e51b815260040161084e90612954565b6001600160a01b038581166000908152600b602052604090205416156109b05760405162461bcd60e51b815260206004820181905260248201527f737761703a2063616e6e6f742077697468647261772050726f6a6563744e4654604482015260640161084e565b604051637921219560e11b81526001600160a01b0386169063f242432a906109e2903090339089908990600401612996565b600060405180830381600087803b1580156109fc57600080fd5b505af1158015610a10573d6000803e3d6000fd5b50505050600191505b509392505050565b6001600160a01b038281166000908152600b6020526040812054909116610a5a5760405162461bcd60e51b815260040161084e906129ce565b60405163179ffc3360e21b8152600481018390526000906001600160a01b03851690635e7ff0cc906024016020604051808303816000875af1158015610aa4573d6000803e3d6000fd5b505050506040513d601f19601f82011682018060405250810190610ac891906129fe565b11610ad257600080fd5b7fbf6457deb9cf573fcf1d02fe7d69b9252eb93234c206ca1aa5460d49ca6d0f20338484604051610b0593929190612a17565b60405180910390a150600192915050565b6006546000906001600160a01b0316331480610b3c57506000546001600160a01b031633145b610b795760405162461bcd60e51b815260206004820152600e60248201526d24b73b30b634b21021b0b63632b960911b604482015260640161084e565b6001600160a01b038481166000818152600b6020908152604080832080546001600160a01b03199081168a8816908117909255958816808552600a84529382902080549096168517909555805133815291820193909352808301939093526060830152517ffb79fd7a650dfff8beb67431543907435e816299415c6d6c6c219f8628547d1b9181900360800190a15060015b9392505050565b6000610c1c6123f6565b6001600160a01b038281166000908152600a602052604090205416610c535760405162461bcd60e51b815260040161084e906129ce565b6001600160a01b038216600090815260096020526040902054610cac5760405162461bcd60e51b81526020600482015260116024820152701cddd85c0e881b9bc8139195081b19599d607a1b604482015260640161084e565b6000600260009054906101000a90046001600160a01b03166001600160a01b031663699b328a346040518263ffffffff1660e01b815260040160206040518083038185885af1158015610d03573d6000803e3d6000fd5b50505050506040513d601f19601f82011682018060405250810190610d2891906129fe565b60008181526008602090815260408083208054336001600160a01b0319918216811783556001830180549092166001600160a01b038b1617909155436002830181905560038301805464ffffffffff19169055818652600c85529483902086905582518681529384015290820192909252919250907f9cbe10499828304338b5191b737406d750036395ab0a1015c8c14b2f6e1046d59060600160405180910390a1600192505050610dd960018055565b919050565b600080600660009054906101000a90046001600160a01b03166001600160a01b031663ad9b44cd6040518163ffffffff1660e01b8152600401602060405180830381865afa158015610e34573d6000803e3d6000fd5b505050506040513d601f19601f82011682018060405250810190610e589190612937565b9050336001600160a01b03821614610e825760405162461bcd60e51b815260040161084e90612954565b50506001600160a01b03166000908152600c602052604090205490565b60008181526008602052604081206002810154909190610ebf9043612a51565b90506064808211610ee657604051630a8d68bf60e11b81526004810183905260240161084e565b6003830154640100000000900460ff1615610f17576040516382efe32f60e01b81526004810185905260240161084e565b6000600260009054906101000a90046001600160a01b03166001600160a01b031663699b328a346040518263ffffffff1660e01b815260040160206040518083038185885af1158015610f6e573d6000803e3d6000fd5b50505050506040513d601f19601f82011682018060405250810190610f9391906129fe565b600081815260086020908152604091829020875481546001600160a01b039182166001600160a01b03199182161783556001808b015490840180549190931691161790554360028201556003808201805464ffffffffff191690558801805464010000000064ff000000001990911617905582518981529182018490529293507f9d2aaf515046f99eed9291d5d595994b9bbc3639a76382f0ee72f460c24a5b4b910160405180910390a1505050505050565b61104e61244f565b61105860006124a9565b565b60006110646123f6565b6001600160a01b038481166000908152600b60205260409020541661109b5760405162461bcd60e51b815260040161084e906129ce565b604051627eeac760e11b8152336004820152602481018490526000906001600160a01b0386169062fdd58e90604401602060405180830381865afa1580156110e7573d6000803e3d6000fd5b505050506040513d601f19601f8201168201806040525081019061110b91906129fe565b90508281101561115d5760405162461bcd60e51b815260206004820152601a60248201527f737761703a2062616c616e636520696e73756666696369656e74000000000000604482015260640161084e565b604051637921219560e11b81526001600160a01b0386169063f242432a9061118f903390309089908990600401612996565b600060405180830381600087803b1580156111a957600080fd5b505af11580156111bd573d6000803e3d6000fd5b5050506001600160a01b038087166000908152600b60205260409020546003549116915063937eb61a906111f19086612a64565b6040516001600160e01b031960e084901b16815260048101919091523360248201526044016020604051808303816000875af1158015611235573d6000803e3d6000fd5b505050506040513d601f19601f820116820180604052508101906112599190612a7b565b61126257600080fd5b604080513381526001600160a01b0387166020820152908101859052606081018490527f6df6997c537d5ddf7d8c92e0ac7eebab95ae55405a098df89dc529054f14c77e9060800160405180910390a150506001808055610c0b565b600080600660009054906101000a90046001600160a01b03166001600160a01b031663ad9b44cd6040518163ffffffff1660e01b8152600401602060405180830381865afa158015611314573d6000803e3d6000fd5b505050506040513d601f19601f820116820180604052508101906113389190612937565b9050336001600160a01b038216146113625760405162461bcd60e51b815260040161084e90612954565b60405163a9059cbb60e01b8152336004820152602481018490526001600160a01b0385169063a9059cbb906044016020604051808303816000875af11580156113af573d6000803e3d6000fd5b505050506040513d601f19601f820116820180604052508101906113d39190612a7b565b6114175760405162461bcd60e51b81526020600482015260156024820152741cddd85c0e881dda5d1a191c985dc819985a5b1959605a1b604482015260640161084e565b5060019392505050565b600061142b6123f6565b6001600160a01b038381166000908152600b6020526040902054166114625760405162461bcd60e51b815260040161084e906129ce565b604051627eeac760e11b81523060048201526000602482015282906001600160a01b0385169062fdd58e90604401602060405180830381865afa1580156114ad573d6000803e3d6000fd5b505050506040513d601f19601f820116820180604052508101906114d191906129fe565b10156115295760405162461bcd60e51b815260206004820152602160248201527f737761703a696e73756666696369656e74206d696e694e465420696e20706f6f6044820152601b60fa1b606482015260840161084e565b6000600354836115399190612a64565b905060006004548461154b9190612a64565b6001600160a01b038681166000908152600b60205260409081902054905163079cc67960e41b81523360048201526024810186905292935016906379cc6790906044016020604051808303816000875af11580156115ad573d6000803e3d6000fd5b505050506040513d601f19601f820116820180604052508101906115d19190612a7b565b6115da57600080fd5b6001600160a01b038086166000908152600b6020908152604091829020546006548351631972b2a960e21b81529351918516946323b872dd94339492909116926365cacaa4926004808401939192918290030181865afa158015611642573d6000803e3d6000fd5b505050506040513d601f19601f820116820180604052508101906116669190612937565b846040518463ffffffff1660e01b815260040161168593929190612a17565b6020604051808303816000875af11580156116a4573d6000803e3d6000fd5b505050506040513d601f19601f820116820180604052508101906116c89190612a7b565b6116d157600080fd5b604051637921219560e11b81526001600160a01b0386169063f242432a9061170490309033906000908a90600401612996565b600060405180830381600087803b15801561171e57600080fd5b505af1158015611732573d6000803e3d6000fd5b505050507f236f5c62767c43336cff7989303208f7897ab3c998c40937b3f5831f74f9782933868660405161176993929190612a17565b60405180910390a16001925050506107a460018055565b6009602052816000526040600020818154811061179c57600080fd5b90600052602060002001600091509150505481565b60008181526008602052604090206003810154640100000000900460ff16156117f0576040516311bc2a1760e11b81526004810183905260240161084e565b60038101805464ff0000000019166401000000001790556040517f697ae94f0e20b63e00d43257160056b6a5993fc0a8a2802546fd394c52eb4e06906118399084815260200190565b60405180910390a15050565b600080600660009054906101000a90046001600160a01b03166001600160a01b031663ad9b44cd6040518163ffffffff1660e01b8152600401602060405180830381865afa15801561189b573d6000803e3d6000fd5b505050506040513d601f19601f820116820180604052508101906118bf9190612937565b9050336001600160a01b038216146118e95760405162461bcd60e51b815260040161084e90612954565b6118f16123f6565b6001600160a01b038086166000908152600a602052604090205416806119295760405162461bcd60e51b815260040161084e906129ce565b604051632142170760e11b81526001600160a01b038716906342842e0e9061195990889030908990600401612a17565b600060405180830381600087803b15801561197357600080fd5b505af1158015611987573d6000803e3d6000fd5b50506040516349bf5b0d60e11b81526103e860048201526001600160a01b0388811660248301528416925063937eb61a91506044016020604051808303816000875af11580156119db573d6000803e3d6000fd5b505050506040513d601f19601f820116820180604052508101906119ff9190612a7b565b611a0857600080fd5b6001925050610a1960018055565b6000611a2061244f565b6006546001600160a01b031615611a795760405162461bcd60e51b815260206004820152601a60248201527f737761703a20666163746f727920686173206265656e20736574000000000000604482015260640161084e565b6001600160a01b038216611ada5760405162461bcd60e51b815260206004820152602260248201527f737761703a20666163746f72792063616e206e6f742062652030206164647265604482015261737360f01b606482015260840161084e565b600680546001600160a01b0319166001600160a01b0384169081179091556040519081527f20690ae37b722d1d6265acdad124822baeb394891cc396d0722cbdb5fa2a683d9060200160405180910390a1506001919050565b336000908152600c602052604081205490819003611ba25760405162461bcd60e51b815260206004820152602660248201527f4e6f2072616e646f6d6e657373207265717565737420666f756e6420666f722060448201526531b0b63632b960d11b606482015260840161084e565b60008181526008602052604090819020600280549082015492516326f21bfb60e21b815291926001600160a01b0390911691639bc86fec91611bea9160040190815260200190565b602060405180830381865afa158015611c07573d6000803e3d6000fd5b505050506040513d601f19601f82011682018060405250810190611c2b9190612a7b565b611c775760405162461bcd60e51b815260206004820152601c60248201527f52616e646f6d6e657373206e6f742079657420617661696c61626c6500000000604482015260640161084e565b600280549082015460405163fb476cad60e01b815260048101919091526000916001600160a01b03169063fb476cad90602401602060405180830381865afa158015611cc7573d6000803e3d6000fd5b505050506040513d601f19601f82011682018060405250810190611ceb91906129fe565b60025460038401546040516373ea500b60e11b815263ffffffff600482018190529091166024820152604481018390529192506000916001600160a01b039091169063e7d4a01690606401602060405180830381865afa158015611d53573d6000803e3d6000fd5b505050506040513d601f19601f82011682018060405250810190611d779190612a9d565b60038401805491925063ffffffff909116906000611d9483612ac3565b825463ffffffff9182166101009390930a928302928202191691909117909155600385018054918416650100000000000268ffffffffff00000000199092169190911764010000000017905550825460018401546001600160a01b039081166000818152600a6020526040808220549051637921219560e11b81529484169492931691829163f242432a91611e349187913091906103e890600401612996565b600060405180830381600087803b158015611e4e57600080fd5b505af1158015611e62573d6000803e3d6000fd5b5050604051630852cd8d60e31b81526103e860048201526001600160a01b03841692506342966c689150602401600060405180830381600087803b158015611ea957600080fd5b505af1158015611ebd573d6000803e3d6000fd5b5050505060006005549050816001600160a01b031663f242432a85600660009054906101000a90046001600160a01b03166001600160a01b03166365cacaa46040518163ffffffff1660e01b8152600401602060405180830381865afa158015611f2b573d6000803e3d6000fd5b505050506040513d601f19601f82011682018060405250810190611f4f9190612937565b6000856040518563ffffffff1660e01b8152600401611f719493929190612996565b600060405180830381600087803b158015611f8b57600080fd5b505af1158015611f9f573d6000803e3d6000fd5b505050506001600160a01b03831660009081526009602052604090205480611ffd5760405162461bcd60e51b81526020600482015260116024820152701cddd85c0e881b9bc8139195081b19599d607a1b604482015260640161084e565b600061200f8263ffffffff8916612ae6565b6001600160a01b0386166000908152600960205260408120805492935090918390811061203e5761203e612b08565b60009182526020808320909101546001600160a01b038916835260099091526040909120909150612070600185612a51565b8154811061208057612080612b08565b906000526020600020015460096000886001600160a01b03166001600160a01b0316815260200190815260200160002083815481106120c1576120c1612b08565b60009182526020808320909101929092556001600160a01b03881681526009909152604090208054806120f6576120f6612b1e565b60019003818190600052602060002001600090559055856001600160a01b03166342842e0e3089846040518463ffffffff1660e01b815260040161213c93929190612a17565b600060405180830381600087803b15801561215657600080fd5b505af115801561216a573d6000803e3d6000fd5b505050507fa88be4b765383f2318ac178576a49a6f941e847e2121fbe1c044be72290212fb8787836040516121a193929190612a17565b60405180910390a18954604080518d815263ffffffff8b1660208201526001600160a01b0390921682820152517fdb88d909317fffa790d6c7b7dd37bf03261a44e513951fbb7079c07c2b9c6c7b9181900360600190a15050505050505050505050565b61220d61244f565b6001600160a01b0381166122725760405162461bcd60e51b815260206004820152602660248201527f4f776e61626c653a206e6577206f776e657220697320746865207a65726f206160448201526564647265737360d01b606482015260840161084e565b61227b816124a9565b50565b600080600660009054906101000a90046001600160a01b03166001600160a01b031663ad9b44cd6040518163ffffffff1660e01b8152600401602060405180830381865afa1580156122d4573d6000803e3d6000fd5b505050506040513d601f19601f820116820180604052508101906122f89190612937565b9050336001600160a01b038216146123225760405162461bcd60e51b815260040161084e90612954565b6001600160a01b038481166000908152600a6020526040902054161561238a5760405162461bcd60e51b815260206004820181905260248201527f737761703a2063616e6e6f742077697468647261772050726f6a6563744e4654604482015260640161084e565b604051632142170760e11b81526001600160a01b038516906342842e0e906123ba90309033908890600401612a17565b600060405180830381600087803b1580156123d457600080fd5b505af11580156123e8573d6000803e3d6000fd5b506001979650505050505050565b6002600154036124485760405162461bcd60e51b815260206004820152601f60248201527f5265656e7472616e637947756172643a207265656e7472616e742063616c6c00604482015260640161084e565b6002600155565b6000546001600160a01b031633146110585760405162461bcd60e51b815260206004820181905260248201527f4f776e61626c653a2063616c6c6572206973206e6f7420746865206f776e6572604482015260640161084e565b600080546001600160a01b038381166001600160a01b0319831681178455604051919092169283917f8be0079c531659141344cd1fd0a4f28419497f9722a3daafe3b4186f6b6457e09190a35050565b60006020828403121561250b57600080fd5b81356001600160e01b031981168114610c0b57600080fd5b6001600160a01b038116811461227b57600080fd5b634e487b7160e01b600052604160045260246000fd5b604051601f8201601f1916810167ffffffffffffffff8111828210171561257757612577612538565b604052919050565b600082601f83011261259057600080fd5b813567ffffffffffffffff8111156125aa576125aa612538565b6125bd601f8201601f191660200161254e565b8181528460208386010111156125d257600080fd5b816020850160208301376000918101602001919091529392505050565b6000806000806080858703121561260557600080fd5b843561261081612523565b9350602085013561262081612523565b925060408501359150606085013567ffffffffffffffff81111561264357600080fd5b61264f8782880161257f565b91505092959194509250565b60006020828403121561266d57600080fd5b8135610c0b81612523565b6000806040838503121561268b57600080fd5b50508035926020909101359150565b6000806000606084860312156126af57600080fd5b83356126ba81612523565b95602085013595506040909401359392505050565b600080604083850312156126e257600080fd5b82356126ed81612523565b946020939093013593505050565b60008060006060848603121561271057600080fd5b833561271b81612523565b9250602084013561272b81612523565b9150604084013561273b81612523565b809150509250925092565b60006020828403121561275857600080fd5b5035919050565b600082601f83011261277057600080fd5b8135602067ffffffffffffffff82111561278c5761278c612538565b8160051b61279b82820161254e565b92835284810182019282810190878511156127b557600080fd5b83870192505b848310156127d4578235825291830191908301906127bb565b979650505050505050565b600080600080600060a086880312156127f757600080fd5b853561280281612523565b9450602086013561281281612523565b9350604086013567ffffffffffffffff8082111561282f57600080fd5b61283b89838a0161275f565b9450606088013591508082111561285157600080fd5b61285d89838a0161275f565b9350608088013591508082111561287357600080fd5b506128808882890161257f565b9150509295509295909350565b6000806000606084860312156128a257600080fd5b83356128ad81612523565b925060208401356128bd81612523565b929592945050506040919091013590565b600080600080600060a086880312156128e657600080fd5b85356128f181612523565b9450602086013561290181612523565b93506040860135925060608601359150608086013567ffffffffffffffff81111561292b57600080fd5b6128808882890161257f565b60006020828403121561294957600080fd5b8151610c0b81612523565b60208082526022908201527f50657269646f743a2063616c6c6572206973206e6f742050657269646f742044604082015261414f60f01b606082015260800190565b6001600160a01b0394851681529290931660208301526040820152606081019190915260a06080820181905260009082015260c00190565b6020808252601690820152751cddd85c0e881a5b9d985b1a590818dbdb9d1c9858dd60521b604082015260600190565b600060208284031215612a1057600080fd5b5051919050565b6001600160a01b039384168152919092166020820152604081019190915260600190565b634e487b7160e01b600052601160045260246000fd5b818103818111156107a4576107a4612a3b565b80820281158282048414176107a4576107a4612a3b565b600060208284031215612a8d57600080fd5b81518015158114610c0b57600080fd5b600060208284031215612aaf57600080fd5b815163ffffffff81168114610c0b57600080fd5b600063ffffffff808316818103612adc57612adc612a3b565b6001019392505050565b600082612b0357634e487b7160e01b600052601260045260246000fd5b500690565b634e487b7160e01b600052603260045260246000fd5b634e487b7160e01b600052603160045260246000fdfea264697066735822122007a0194b7ea5472724c107ddb92ad6b08c52c5e57c9ccf882a0549967ea3d56164736f6c63430008140033",
  "linkReferences": {},
  "deployedLinkReferences": {}
}