{
  "_format": "hh-sol-artifact-1",
  "contractName": "PeridotFFTHelper",
  "sourceName": "contracts/v1/library/PeridotFFTHelper.sol",
  "abi": [
    {
      "inputs": [
        {
          "internalType": "string",
          "name": "name",
          "type": "string"
        },
        {
          "internalType": "string",
          "name": "symbol",
          "type": "string"
        }
      ],
      "name": "getBytecode",
      "outputs": [
        {
          "internalType": "bytes",
          "name": "",
          "type": "bytes"
        }
      ],
      "stateMutability": "pure",
      "type": "function"
    }
  ],
  "bytecode": "0x61206c61003a600b82828239805160001a60731461002d57634e487b7160e01b600052600060045260246000fd5b30600052607381538281f3fe73000000000000000000000000000000000000000030146080604052600436106100355760003560e01c8063d0d579ab1461003a575b600080fd5b61004d610048366004610188565b610063565b60405161005a919061023c565b60405180910390f35b6060600060405180602001610077906100d7565b6020820181038252601f19601f8201166040525090508084846040516020016100a1929190610256565b60408051601f19818403018152908290526100bf9291602001610284565b60405160208183030381529060405291505092915050565b611d8380620002b483390190565b634e487b7160e01b600052604160045260246000fd5b600082601f83011261010c57600080fd5b813567ffffffffffffffff80821115610127576101276100e5565b604051601f8301601f19908116603f0116810190828211818310171561014f5761014f6100e5565b8160405283815286602085880101111561016857600080fd5b836020870160208301376000602085830101528094505050505092915050565b6000806040838503121561019b57600080fd5b823567ffffffffffffffff808211156101b357600080fd5b6101bf868387016100fb565b935060208501359150808211156101d557600080fd5b506101e2858286016100fb565b9150509250929050565b60005b838110156102075781810151838201526020016101ef565b50506000910152565b600081518084526102288160208601602086016101ec565b601f01601f19169290920160200192915050565b60208152600061024f6020830184610210565b9392505050565b6040815260006102696040830185610210565b828103602084015261027b8185610210565b95945050505050565b600083516102968184602088016101ec565b8351908301906102aa8183602088016101ec565b0194935050505056fe6080604052601460075560006008553480156200001b57600080fd5b5060405162001d8338038062001d838339810160408190526200003e916200037f565b818160036200004e838262000478565b5060046200005d828262000478565b5050600680546001600160a01b0319163390811782556000908152600560208181526040808420805460ff19166001908117909155945481516385811fbf60e01b8152915195965092946001600160a01b0393909316926385811fbf926004808401939192918290030181865afa158015620000dd573d6000803e3d6000fd5b505050506040513d601f19601f8201168201806040525081019062000103919062000544565b6001600160a01b03166001600160a01b0316815260200190815260200160002060006101000a81548160ff021916908315150217905550600160056000600660009054906101000a90046001600160a01b03166001600160a01b03166328fa46a16040518163ffffffff1660e01b8152600401602060405180830381865afa15801562000194573d6000803e3d6000fd5b505050506040513d601f19601f82011682018060405250810190620001ba919062000544565b6001600160a01b03166001600160a01b0316815260200190815260200160002060006101000a81548160ff021916908315150217905550600160056000600660009054906101000a90046001600160a01b03166001600160a01b03166365cacaa46040518163ffffffff1660e01b8152600401602060405180830381865afa1580156200024b573d6000803e3d6000fd5b505050506040513d601f19601f8201168201806040525081019062000271919062000544565b6001600160a01b0316815260208082019290925260409081016000908120805494151560ff19958616179055308152600590925290208054909116600117905550620005769050565b634e487b7160e01b600052604160045260246000fd5b600082601f830112620002e257600080fd5b81516001600160401b0380821115620002ff57620002ff620002ba565b604051601f8301601f19908116603f011681019082821181831017156200032a576200032a620002ba565b816040528381526020925086838588010111156200034757600080fd5b600091505b838210156200036b57858201830151818301840152908201906200034c565b600093810190920192909252949350505050565b600080604083850312156200039357600080fd5b82516001600160401b0380821115620003ab57600080fd5b620003b986838701620002d0565b93506020850151915080821115620003d057600080fd5b50620003df85828601620002d0565b9150509250929050565b600181811c90821680620003fe57607f821691505b6020821081036200041f57634e487b7160e01b600052602260045260246000fd5b50919050565b601f8211156200047357600081815260208120601f850160051c810160208610156200044e5750805b601f850160051c820191505b818110156200046f578281556001016200045a565b5050505b505050565b81516001600160401b03811115620004945762000494620002ba565b620004ac81620004a58454620003e9565b8462000425565b602080601f831160018114620004e45760008415620004cb5750858301515b600019600386901b1c1916600185901b1785556200046f565b600085815260208120601f198616915b828110156200051557888601518255948401946001909101908401620004f4565b5085821015620005345787850151600019600388901b60f8161c191681555b5050505050600190811b01905550565b6000602082840312156200055757600080fd5b81516001600160a01b03811681146200056f57600080fd5b9392505050565b6117fd80620005866000396000f3fe608060405234801561001057600080fd5b506004361061014d5760003560e01c80635342acb4116100c3578063a457c2d71161007c578063a457c2d7146102a8578063a9059cbb146102bb578063c5cc6b6a146102ce578063dd62ed3e146102f9578063e3a8e2e51461030c578063ea2f0b371461031f57600080fd5b80635342acb41461023557806370a0823114610248578063778317411461027157806379cc67901461027a578063937eb61a1461028d57806395d89b41146102a057600080fd5b806323b872dd1161011557806323b872dd146101d15780632740c197146101e4578063313ce567146101f7578063395093511461020657806340eae82114610219578063437823ec1461022257600080fd5b806306fdde0314610152578063095ea7b314610170578063117c985b1461019357806318160ddd146101b45780631e89d545146101bc575b600080fd5b61015a610332565b6040516101679190611349565b60405180910390f35b61018361017e3660046113af565b6103c4565b6040519015158152602001610167565b6101a66101a13660046113db565b6103de565b604051908152602001610167565b6002546101a6565b6101cf6101ca3660046114dc565b610420565b005b6101836101df366004611597565b610480565b6101836101f23660046113db565b610682565b60405160128152602001610167565b6101836102143660046113af565b610773565b6101a660075481565b6101836102303660046115d8565b610795565b6101836102433660046115d8565b610868565b6101a66102563660046115d8565b6001600160a01b031660009081526020819052604090205490565b6101a660085481565b6101836102883660046113af565b610886565b61018361029b3660046115f5565b6108ae565b61015a61098c565b6101836102b63660046113af565b61099b565b6101836102c93660046113af565b610a16565b6006546102e1906001600160a01b031681565b6040516001600160a01b039091168152602001610167565b6101a6610307366004611625565b610b99565b61018361031a366004611653565b610bc4565b61018361032d3660046115d8565b610cda565b60606003805461034190611690565b80601f016020809104026020016040519081016040528092919081815260200182805461036d90611690565b80156103ba5780601f1061038f576101008083540402835291602001916103ba565b820191906000526020600020905b81548152906001019060200180831161039d57829003601f168201915b5050505050905090565b6000336103d2818585610da4565b60019150505b92915050565b6000816000036103f0575060006103d8565b60006103fc8484610ec8565b905060006104166127106104108487610f03565b90610f16565b92506103d8915050565b60005b825181101561047b57610468838281518110610441576104416116c4565b602002602001015183838151811061045b5761045b6116c4565b6020026020010151610a16565b5080610473816116f0565b915050610423565b505050565b6001600160a01b03831660009081526020819052604081205433908311156104eb5760405162461bcd60e51b8152602060048201526019602482015278199c9bdb4818985b185b98d9481a5b9cdd59999a58da595b9d603a1b60448201526064015b60405180910390fd5b6104f485610868565b80610503575061050384610868565b1561052357610513858285610f22565b61051e858585610f9c565b610677565b6000610531846007546103de565b90506000610541856008546103de565b90506000610559826105538886611140565b90611140565b9050610566888588610f22565b6105e788600660009054906101000a90046001600160a01b03166001600160a01b03166365cacaa46040518163ffffffff1660e01b8152600401602060405180830381865afa1580156105bd573d6000803e3d6000fd5b505050506040513d601f19601f820116820180604052508101906105e19190611709565b85610f9c565b61066888600660009054906101000a90046001600160a01b03166001600160a01b03166328fa46a16040518163ffffffff1660e01b8152600401602060405180830381865afa15801561063e573d6000803e3d6000fd5b505050506040513d601f19601f820116820180604052508101906106629190611709565b84610f9c565b610673888883610f9c565b5050505b506001949350505050565b600080600660009054906101000a90046001600160a01b03166001600160a01b031663ad9b44cd6040518163ffffffff1660e01b8152600401602060405180830381865afa1580156106d8573d6000803e3d6000fd5b505050506040513d601f19601f820116820180604052508101906106fc9190611709565b9050336001600160a01b038216146107265760405162461bcd60e51b81526004016104e290611726565b6007849055600883905560408051858152602081018590527fcbd554161f22a88862569b669f84507adc410008353e0a023297d3ea419126f7910160405180910390a15060019392505050565b6000336103d28185856107868383610b99565b6107909190611768565b610da4565b600080600660009054906101000a90046001600160a01b03166001600160a01b031663ad9b44cd6040518163ffffffff1660e01b8152600401602060405180830381865afa1580156107eb573d6000803e3d6000fd5b505050506040513d601f19601f8201168201806040525081019061080f9190611709565b9050336001600160a01b038216146108395760405162461bcd60e51b81526004016104e290611726565b6001600160a01b0383166000908152600560205260409020805460ff1916600190811790915591505b50919050565b6001600160a01b031660009081526005602052604090205460ff1690565b6000336001600160a01b03841681146108a4576108a4848285610f22565b6103d2848461114c565b600080600660009054906101000a90046001600160a01b03166001600160a01b03166385811fbf6040518163ffffffff1660e01b8152600401602060405180830381865afa158015610904573d6000803e3d6000fd5b505050506040513d601f19601f820116820180604052508101906109289190611709565b9050336001600160a01b038216146109825760405162461bcd60e51b815260206004820152601b60248201527f50657269646f743a2063616c6c6572206973206e6f742073776170000000000060448201526064016104e2565b6103d2838561127e565b60606004805461034190611690565b600033816109a98286610b99565b905083811015610a095760405162461bcd60e51b815260206004820152602560248201527f45524332303a2064656372656173656420616c6c6f77616e63652062656c6f77604482015264207a65726f60d81b60648201526084016104e2565b6106778286868403610da4565b33600081815260208190526040812054909190831115610a745760405162461bcd60e51b8152602060048201526019602482015278199c9bdb4818985b185b98d9481a5b9cdd59999a58da595b9d603a1b60448201526064016104e2565b610a7d81610868565b80610a8c5750610a8c84610868565b15610aa157610a9c818585610f9c565b6103d2565b6000610aaf846007546103de565b90506000610abf856008546103de565b90506000610ad1826105538886611140565b9050610b2a84600660009054906101000a90046001600160a01b03166001600160a01b03166365cacaa46040518163ffffffff1660e01b8152600401602060405180830381865afa1580156105bd573d6000803e3d6000fd5b610b8184600660009054906101000a90046001600160a01b03166001600160a01b03166328fa46a16040518163ffffffff1660e01b8152600401602060405180830381865afa15801561063e573d6000803e3d6000fd5b610b8c848883610f9c565b5060019695505050505050565b6001600160a01b03918216600090815260016020908152604080832093909416825291909152205490565b600080600660009054906101000a90046001600160a01b03166001600160a01b031663ad9b44cd6040518163ffffffff1660e01b8152600401602060405180830381865afa158015610c1a573d6000803e3d6000fd5b505050506040513d601f19601f82011682018060405250810190610c3e9190611709565b9050336001600160a01b03821614610c685760405162461bcd60e51b81526004016104e290611726565b60005b8351811015610cd057600160056000868481518110610c8c57610c8c6116c4565b6020908102919091018101516001600160a01b03168252810191909152604001600020805460ff191691151591909117905580610cc8816116f0565b915050610c6b565b5060019392505050565b600080600660009054906101000a90046001600160a01b03166001600160a01b031663ad9b44cd6040518163ffffffff1660e01b8152600401602060405180830381865afa158015610d30573d6000803e3d6000fd5b505050506040513d601f19601f82011682018060405250810190610d549190611709565b9050336001600160a01b03821614610d7e5760405162461bcd60e51b81526004016104e290611726565b50506001600160a01b03166000908152600560205260409020805460ff19169055600190565b6001600160a01b038316610e065760405162461bcd60e51b8152602060048201526024808201527f45524332303a20617070726f76652066726f6d20746865207a65726f206164646044820152637265737360e01b60648201526084016104e2565b6001600160a01b038216610e675760405162461bcd60e51b815260206004820152602260248201527f45524332303a20617070726f766520746f20746865207a65726f206164647265604482015261737360f01b60648201526084016104e2565b6001600160a01b0383811660008181526001602090815260408083209487168084529482529182902085905590518481527f8c5be1e5ebec7d5bd14f71427d1e84f3dd0314c0f7b2291e5b200ac8c7c3b925910160405180910390a3505050565b600080610ed5848461133d565b90506000610ee4826001611140565b9050610efa84610ef48382610f16565b90610f03565b95945050505050565b6000610f0f828461177b565b9392505050565b6000610f0f8284611792565b6000610f2e8484610b99565b90506000198114610f965781811015610f895760405162461bcd60e51b815260206004820152601d60248201527f45524332303a20696e73756666696369656e7420616c6c6f77616e636500000060448201526064016104e2565b610f968484848403610da4565b50505050565b6001600160a01b0383166110005760405162461bcd60e51b815260206004820152602560248201527f45524332303a207472616e736665722066726f6d20746865207a65726f206164604482015264647265737360d81b60648201526084016104e2565b6001600160a01b0382166110625760405162461bcd60e51b815260206004820152602360248201527f45524332303a207472616e7366657220746f20746865207a65726f206164647260448201526265737360e81b60648201526084016104e2565b6001600160a01b038316600090815260208190526040902054818110156110da5760405162461bcd60e51b815260206004820152602660248201527f45524332303a207472616e7366657220616d6f756e7420657863656564732062604482015265616c616e636560d01b60648201526084016104e2565b6001600160a01b03848116600081815260208181526040808320878703905593871680835291849020805487019055925185815290927fddf252ad1be2c89b69c2b068fc378daa952ba7f163c4a11628f55a4df523b3ef910160405180910390a3610f96565b6000610f0f82846117b4565b6001600160a01b0382166111ac5760405162461bcd60e51b815260206004820152602160248201527f45524332303a206275726e2066726f6d20746865207a65726f206164647265736044820152607360f81b60648201526084016104e2565b6001600160a01b038216600090815260208190526040902054818110156112205760405162461bcd60e51b815260206004820152602260248201527f45524332303a206275726e20616d6f756e7420657863656564732062616c616e604482015261636560f01b60648201526084016104e2565b6001600160a01b0383166000818152602081815260408083208686039055600280548790039055518581529192917fddf252ad1be2c89b69c2b068fc378daa952ba7f163c4a11628f55a4df523b3ef910160405180910390a3505050565b6001600160a01b0382166112d45760405162461bcd60e51b815260206004820152601f60248201527f45524332303a206d696e7420746f20746865207a65726f20616464726573730060448201526064016104e2565b80600260008282546112e69190611768565b90915550506001600160a01b038216600081815260208181526040808320805486019055518481527fddf252ad1be2c89b69c2b068fc378daa952ba7f163c4a11628f55a4df523b3ef910160405180910390a35050565b6000610f0f8284611768565b600060208083528351808285015260005b818110156113765785810183015185820160400152820161135a565b506000604082860101526040601f19601f8301168501019250505092915050565b6001600160a01b03811681146113ac57600080fd5b50565b600080604083850312156113c257600080fd5b82356113cd81611397565b946020939093013593505050565b600080604083850312156113ee57600080fd5b50508035926020909101359150565b634e487b7160e01b600052604160045260246000fd5b604051601f8201601f1916810167ffffffffffffffff8111828210171561143c5761143c6113fd565b604052919050565b600067ffffffffffffffff82111561145e5761145e6113fd565b5060051b60200190565b600082601f83011261147957600080fd5b8135602061148e61148983611444565b611413565b82815260059290921b840181019181810190868411156114ad57600080fd5b8286015b848110156114d15780356114c481611397565b83529183019183016114b1565b509695505050505050565b600080604083850312156114ef57600080fd5b823567ffffffffffffffff8082111561150757600080fd5b61151386838701611468565b935060209150818501358181111561152a57600080fd5b85019050601f8101861361153d57600080fd5b803561154b61148982611444565b81815260059190911b8201830190838101908883111561156a57600080fd5b928401925b828410156115885783358252928401929084019061156f565b80955050505050509250929050565b6000806000606084860312156115ac57600080fd5b83356115b781611397565b925060208401356115c781611397565b929592945050506040919091013590565b6000602082840312156115ea57600080fd5b8135610f0f81611397565b6000806040838503121561160857600080fd5b82359150602083013561161a81611397565b809150509250929050565b6000806040838503121561163857600080fd5b823561164381611397565b9150602083013561161a81611397565b60006020828403121561166557600080fd5b813567ffffffffffffffff81111561167c57600080fd5b61168884828501611468565b949350505050565b600181811c908216806116a457607f821691505b60208210810361086257634e487b7160e01b600052602260045260246000fd5b634e487b7160e01b600052603260045260246000fd5b634e487b7160e01b600052601160045260246000fd5b600060018201611702576117026116da565b5060010190565b60006020828403121561171b57600080fd5b8151610f0f81611397565b60208082526022908201527f50657269646f743a2063616c6c6572206973206e6f742050657269646f742044604082015261414f60f01b606082015260800190565b808201808211156103d8576103d86116da565b80820281158282048414176103d8576103d86116da565b6000826117af57634e487b7160e01b600052601260045260246000fd5b500490565b818103818111156103d8576103d86116da56fea2646970667358221220190fad1392988c9da11dfe3334f61da4dd6fa9daca1ba547573830d4b876e93164736f6c63430008140033a2646970667358221220ee2c179f694fdf02a8bc3d119c9b50dda6deb5d59bb54cf10cb6d5026a9cb2d564736f6c63430008140033",
  "linkReferences": {},
  "deployedLinkReferences": {}
}