{
  "_format": "hh-sol-artifact-1",
  "contractName": "PeridotSwapOld",
  "sourceName": "contracts/v1/fundraising/PeridotSwapOld.sol",
  "abi": [
    {
      "inputs": [
        {
          "internalType": "address",
          "name": "_witnetRandomness",
          "type": "address"
        }
      ],
      "stateMutability": "nonpayable",
      "type": "constructor"
    },
    {
      "inputs": [
        {
          "internalType": "uint256",
          "name": "requestId",
          "type": "uint256"
        }
      ],
      "name": "RandomnessAlreadyFulfilled",
      "type": "error"
    },
    {
      "inputs": [
        {
          "internalType": "uint256",
          "name": "requestId",
          "type": "uint256"
        }
      ],
      "name": "RequestAlreadyCompleted",
      "type": "error"
    },
    {
      "inputs": [
        {
          "internalType": "uint256",
          "name": "blocksSinceRequest",
          "type": "uint256"
        }
      ],
      "name": "RequestNotYetExpired",
      "type": "error"
    },
    {
      "anonymous": false,
      "inputs": [
        {
          "indexed": true,
          "internalType": "address",
          "name": "previousOwner",
          "type": "address"
        },
        {
          "indexed": true,
          "internalType": "address",
          "name": "newOwner",
          "type": "address"
        }
      ],
      "name": "OwnershipTransferred",
      "type": "event"
    },
    {
      "anonymous": false,
      "inputs": [
        {
          "indexed": false,
          "internalType": "address",
          "name": "owner",
          "type": "address"
        },
        {
          "indexed": false,
          "internalType": "address",
          "name": "miniNFTcontract",
          "type": "address"
        },
        {
          "indexed": false,
          "internalType": "uint256",
          "name": "tokenID",
          "type": "uint256"
        }
      ],
      "name": "PoolClaim",
      "type": "event"
    },
    {
      "anonymous": false,
      "inputs": [
        {
          "indexed": false,
          "internalType": "uint256",
          "name": "requestId",
          "type": "uint256"
        },
        {
          "indexed": false,
          "internalType": "uint32",
          "name": "randomNumber",
          "type": "uint32"
        },
        {
          "indexed": false,
          "internalType": "address",
          "name": "fulfilledBy",
          "type": "address"
        }
      ],
      "name": "RandomnessFulfilled",
      "type": "event"
    },
    {
      "anonymous": false,
      "inputs": [
        {
          "indexed": false,
          "internalType": "uint256",
          "name": "oldRequestId",
          "type": "uint256"
        },
        {
          "indexed": false,
          "internalType": "uint256",
          "name": "newRequestId",
          "type": "uint256"
        }
      ],
      "name": "RandomnessReRequested",
      "type": "event"
    },
    {
      "anonymous": false,
      "inputs": [
        {
          "indexed": false,
          "internalType": "uint256",
          "name": "requestId",
          "type": "uint256"
        }
      ],
      "name": "RandomnessRequestCancelled",
      "type": "event"
    },
    {
      "anonymous": false,
      "inputs": [
        {
          "indexed": false,
          "internalType": "uint256",
          "name": "requestId",
          "type": "uint256"
        },
        {
          "indexed": false,
          "internalType": "address",
          "name": "requestedBy",
          "type": "address"
        },
        {
          "indexed": false,
          "internalType": "uint256",
          "name": "requestBlock",
          "type": "uint256"
        }
      ],
      "name": "RandomnessRequested",
      "type": "event"
    },
    {
      "anonymous": false,
      "inputs": [
        {
          "indexed": false,
          "internalType": "uint256",
          "name": "requestId",
          "type": "uint256"
        },
        {
          "indexed": false,
          "internalType": "address",
          "name": "sender",
          "type": "address"
        },
        {
          "indexed": false,
          "internalType": "address",
          "name": "NFTContract",
          "type": "address"
        }
      ],
      "name": "SendChainlinkVRF",
      "type": "event"
    },
    {
      "anonymous": false,
      "inputs": [
        {
          "indexed": false,
          "internalType": "address",
          "name": "owner",
          "type": "address"
        },
        {
          "indexed": false,
          "internalType": "address",
          "name": "miniNFTcontract",
          "type": "address"
        },
        {
          "indexed": false,
          "internalType": "uint256",
          "name": "miniNFTAmount",
          "type": "uint256"
        }
      ],
      "name": "SwapFFTtoMiniNFT",
      "type": "event"
    },
    {
      "anonymous": false,
      "inputs": [
        {
          "indexed": false,
          "internalType": "address",
          "name": "owner",
          "type": "address"
        },
        {
          "indexed": false,
          "internalType": "address",
          "name": "miniNFTcontract",
          "type": "address"
        },
        {
          "indexed": false,
          "internalType": "uint256",
          "name": "tokenID",
          "type": "uint256"
        },
        {
          "indexed": false,
          "internalType": "uint256",
          "name": "miniNFTAmount",
          "type": "uint256"
        }
      ],
      "name": "SwapMiniNFTtoFFT",
      "type": "event"
    },
    {
      "anonymous": false,
      "inputs": [
        {
          "indexed": false,
          "internalType": "address",
          "name": "owner",
          "type": "address"
        },
        {
          "indexed": false,
          "internalType": "address",
          "name": "NFTContract",
          "type": "address"
        },
        {
          "indexed": false,
          "internalType": "uint256",
          "name": "NFTID",
          "type": "uint256"
        }
      ],
      "name": "SwapMiniNFTtoNFT",
      "type": "event"
    },
    {
      "anonymous": false,
      "inputs": [
        {
          "indexed": false,
          "internalType": "address",
          "name": "factory",
          "type": "address"
        }
      ],
      "name": "UpdateFactory",
      "type": "event"
    },
    {
      "anonymous": false,
      "inputs": [
        {
          "indexed": false,
          "internalType": "address",
          "name": "editor",
          "type": "address"
        },
        {
          "indexed": false,
          "internalType": "address",
          "name": "miniNFT",
          "type": "address"
        },
        {
          "indexed": false,
          "internalType": "address",
          "name": "FFT",
          "type": "address"
        },
        {
          "indexed": false,
          "internalType": "address",
          "name": "NFT",
          "type": "address"
        }
      ],
      "name": "UpdatePoolRelation",
      "type": "event"
    },
    {
      "anonymous": false,
      "inputs": [
        {
          "indexed": false,
          "internalType": "uint256",
          "name": "fftTax",
          "type": "uint256"
        },
        {
          "indexed": false,
          "internalType": "uint256",
          "name": "nftTax",
          "type": "uint256"
        }
      ],
      "name": "UpdateTax",
      "type": "event"
    },
    {
      "inputs": [
        {
          "internalType": "address",
          "name": "",
          "type": "address"
        },
        {
          "internalType": "uint256",
          "name": "",
          "type": "uint256"
        }
      ],
      "name": "NFTIds",
      "outputs": [
        {
          "internalType": "uint256",
          "name": "",
          "type": "uint256"
        }
      ],
      "stateMutability": "view",
      "type": "function"
    },
    {
      "inputs": [
        {
          "internalType": "address",
          "name": "",
          "type": "address"
        }
      ],
      "name": "NFTtoMiniNFT",
      "outputs": [
        {
          "internalType": "address",
          "name": "",
          "type": "address"
        }
      ],
      "stateMutability": "view",
      "type": "function"
    },
    {
      "inputs": [
        {
          "internalType": "uint256",
          "name": "requestId",
          "type": "uint256"
        }
      ],
      "name": "cancelRandomnessRequest",
      "outputs": [],
      "stateMutability": "nonpayable",
      "type": "function"
    },
    {
      "inputs": [
        {
          "internalType": "uint256",
          "name": "requestId",
          "type": "uint256"
        }
      ],
      "name": "checkAndReRequestRandomness",
      "outputs": [],
      "stateMutability": "payable",
      "type": "function"
    },
    {
      "inputs": [],
      "name": "fftTax",
      "outputs": [
        {
          "internalType": "uint256",
          "name": "",
          "type": "uint256"
        }
      ],
      "stateMutability": "view",
      "type": "function"
    },
    {
      "inputs": [
        {
          "internalType": "address",
          "name": "",
          "type": "address"
        }
      ],
      "name": "miniNFTtoFFT",
      "outputs": [
        {
          "internalType": "address",
          "name": "",
          "type": "address"
        }
      ],
      "stateMutability": "view",
      "type": "function"
    },
    {
      "inputs": [],
      "name": "nftTax",
      "outputs": [
        {
          "internalType": "uint256",
          "name": "",
          "type": "uint256"
        }
      ],
      "stateMutability": "view",
      "type": "function"
    },
    {
      "inputs": [
        {
          "internalType": "address",
          "name": "NFTContract",
          "type": "address"
        }
      ],
      "name": "numberOfNFT",
      "outputs": [
        {
          "internalType": "uint256",
          "name": "",
          "type": "uint256"
        }
      ],
      "stateMutability": "view",
      "type": "function"
    },
    {
      "inputs": [
        {
          "internalType": "address",
          "name": "",
          "type": "address"
        },
        {
          "internalType": "address",
          "name": "",
          "type": "address"
        },
        {
          "internalType": "uint256[]",
          "name": "",
          "type": "uint256[]"
        },
        {
          "internalType": "uint256[]",
          "name": "",
          "type": "uint256[]"
        },
        {
          "internalType": "bytes",
          "name": "",
          "type": "bytes"
        }
      ],
      "name": "onERC1155BatchReceived",
      "outputs": [
        {
          "internalType": "bytes4",
          "name": "",
          "type": "bytes4"
        }
      ],
      "stateMutability": "nonpayable",
      "type": "function"
    },
    {
      "inputs": [
        {
          "internalType": "address",
          "name": "",
          "type": "address"
        },
        {
          "internalType": "address",
          "name": "",
          "type": "address"
        },
        {
          "internalType": "uint256",
          "name": "",
          "type": "uint256"
        },
        {
          "internalType": "uint256",
          "name": "",
          "type": "uint256"
        },
        {
          "internalType": "bytes",
          "name": "",
          "type": "bytes"
        }
      ],
      "name": "onERC1155Received",
      "outputs": [
        {
          "internalType": "bytes4",
          "name": "",
          "type": "bytes4"
        }
      ],
      "stateMutability": "nonpayable",
      "type": "function"
    },
    {
      "inputs": [
        {
          "internalType": "address",
          "name": "operator",
          "type": "address"
        },
        {
          "internalType": "address",
          "name": "from",
          "type": "address"
        },
        {
          "internalType": "uint256",
          "name": "tokenId",
          "type": "uint256"
        },
        {
          "internalType": "bytes",
          "name": "data",
          "type": "bytes"
        }
      ],
      "name": "onERC721Received",
      "outputs": [
        {
          "internalType": "bytes4",
          "name": "",
          "type": "bytes4"
        }
      ],
      "stateMutability": "nonpayable",
      "type": "function"
    },
    {
      "inputs": [],
      "name": "owner",
      "outputs": [
        {
          "internalType": "address",
          "name": "",
          "type": "address"
        }
      ],
      "stateMutability": "view",
      "type": "function"
    },
    {
      "inputs": [
        {
          "internalType": "address",
          "name": "miniNFTContract",
          "type": "address"
        },
        {
          "internalType": "uint256",
          "name": "tokenID",
          "type": "uint256"
        }
      ],
      "name": "poolClaim",
      "outputs": [
        {
          "internalType": "bool",
          "name": "",
          "type": "bool"
        }
      ],
      "stateMutability": "nonpayable",
      "type": "function"
    },
    {
      "inputs": [
        {
          "internalType": "uint256",
          "name": "requestId",
          "type": "uint256"
        }
      ],
      "name": "processRandomness",
      "outputs": [],
      "stateMutability": "nonpayable",
      "type": "function"
    },
    {
      "inputs": [
        {
          "internalType": "uint256",
          "name": "",
          "type": "uint256"
        }
      ],
      "name": "randomnessFulfilled",
      "outputs": [
        {
          "internalType": "bool",
          "name": "",
          "type": "bool"
        }
      ],
      "stateMutability": "view",
      "type": "function"
    },
    {
      "inputs": [
        {
          "internalType": "uint256",
          "name": "",
          "type": "uint256"
        }
      ],
      "name": "randomnessRequests",
      "outputs": [
        {
          "internalType": "address",
          "name": "sender",
          "type": "address"
        },
        {
          "internalType": "address",
          "name": "nft",
          "type": "address"
        },
        {
          "internalType": "uint256",
          "name": "requestBlock",
          "type": "uint256"
        },
        {
          "internalType": "uint32",
          "name": "nonce",
          "type": "uint32"
        },
        {
          "internalType": "bool",
          "name": "completed",
          "type": "bool"
        }
      ],
      "stateMutability": "view",
      "type": "function"
    },
    {
      "inputs": [],
      "name": "renounceOwnership",
      "outputs": [],
      "stateMutability": "nonpayable",
      "type": "function"
    },
    {
      "inputs": [
        {
          "internalType": "bytes4",
          "name": "interfaceId",
          "type": "bytes4"
        }
      ],
      "name": "supportsInterface",
      "outputs": [
        {
          "internalType": "bool",
          "name": "",
          "type": "bool"
        }
      ],
      "stateMutability": "view",
      "type": "function"
    },
    {
      "inputs": [
        {
          "internalType": "address",
          "name": "miniNFTContract",
          "type": "address"
        },
        {
          "internalType": "uint256",
          "name": "miniNFTAmount",
          "type": "uint256"
        }
      ],
      "name": "swapFFTtoMiniNFT",
      "outputs": [
        {
          "internalType": "bool",
          "name": "",
          "type": "bool"
        }
      ],
      "stateMutability": "nonpayable",
      "type": "function"
    },
    {
      "inputs": [
        {
          "internalType": "address",
          "name": "miniNFTContract",
          "type": "address"
        },
        {
          "internalType": "uint256",
          "name": "tokenID",
          "type": "uint256"
        },
        {
          "internalType": "uint256",
          "name": "amount",
          "type": "uint256"
        }
      ],
      "name": "swapMiniNFTtoFFT",
      "outputs": [
        {
          "internalType": "bool",
          "name": "",
          "type": "bool"
        }
      ],
      "stateMutability": "nonpayable",
      "type": "function"
    },
    {
      "inputs": [
        {
          "internalType": "address",
          "name": "NFTContract",
          "type": "address"
        }
      ],
      "name": "swapMiniNFTtoNFT",
      "outputs": [
        {
          "internalType": "bool",
          "name": "",
          "type": "bool"
        }
      ],
      "stateMutability": "payable",
      "type": "function"
    },
    {
      "inputs": [
        {
          "internalType": "address",
          "name": "NFTContract",
          "type": "address"
        },
        {
          "internalType": "address",
          "name": "fromOwner",
          "type": "address"
        },
        {
          "internalType": "uint256",
          "name": "tokenId",
          "type": "uint256"
        }
      ],
      "name": "swapNFTtoMiniNFT",
      "outputs": [
        {
          "internalType": "bool",
          "name": "",
          "type": "bool"
        }
      ],
      "stateMutability": "nonpayable",
      "type": "function"
    },
    {
      "inputs": [],
      "name": "swapRate",
      "outputs": [
        {
          "internalType": "uint256",
          "name": "",
          "type": "uint256"
        }
      ],
      "stateMutability": "view",
      "type": "function"
    },
    {
      "inputs": [],
      "name": "tokenFactory",
      "outputs": [
        {
          "internalType": "address",
          "name": "",
          "type": "address"
        }
      ],
      "stateMutability": "view",
      "type": "function"
    },
    {
      "inputs": [
        {
          "internalType": "address",
          "name": "newOwner",
          "type": "address"
        }
      ],
      "name": "transferOwnership",
      "outputs": [],
      "stateMutability": "nonpayable",
      "type": "function"
    },
    {
      "inputs": [
        {
          "internalType": "address",
          "name": "factory_",
          "type": "address"
        }
      ],
      "name": "updateFactory",
      "outputs": [
        {
          "internalType": "bool",
          "name": "",
          "type": "bool"
        }
      ],
      "stateMutability": "nonpayable",
      "type": "function"
    },
    {
      "inputs": [
        {
          "internalType": "address",
          "name": "miniNFT",
          "type": "address"
        },
        {
          "internalType": "address",
          "name": "FFT",
          "type": "address"
        },
        {
          "internalType": "address",
          "name": "NFT",
          "type": "address"
        }
      ],
      "name": "updatePoolRelation",
      "outputs": [
        {
          "internalType": "bool",
          "name": "",
          "type": "bool"
        }
      ],
      "stateMutability": "nonpayable",
      "type": "function"
    },
    {
      "inputs": [
        {
          "internalType": "uint256",
          "name": "fftTax_",
          "type": "uint256"
        },
        {
          "internalType": "uint256",
          "name": "nftTax_",
          "type": "uint256"
        }
      ],
      "name": "updateTax",
      "outputs": [
        {
          "internalType": "bool",
          "name": "",
          "type": "bool"
        }
      ],
      "stateMutability": "nonpayable",
      "type": "function"
    },
    {
      "inputs": [
        {
          "internalType": "address",
          "name": "airdropContract",
          "type": "address"
        },
        {
          "internalType": "uint256",
          "name": "tokenId",
          "type": "uint256"
        },
        {
          "internalType": "uint256",
          "name": "amount",
          "type": "uint256"
        }
      ],
      "name": "withdrawERC1155",
      "outputs": [
        {
          "internalType": "bool",
          "name": "",
          "type": "bool"
        }
      ],
      "stateMutability": "nonpayable",
      "type": "function"
    },
    {
      "inputs": [
        {
          "internalType": "address",
          "name": "project",
          "type": "address"
        },
        {
          "internalType": "uint256",
          "name": "amount",
          "type": "uint256"
        }
      ],
      "name": "withdrawERC20",
      "outputs": [
        {
          "internalType": "bool",
          "name": "",
          "type": "bool"
        }
      ],
      "stateMutability": "nonpayable",
      "type": "function"
    },
    {
      "inputs": [
        {
          "internalType": "address",
          "name": "airdropContract",
          "type": "address"
        },
        {
          "internalType": "uint256",
          "name": "tokenId",
          "type": "uint256"
        }
      ],
      "name": "withdrawERC721",
      "outputs": [
        {
          "internalType": "bool",
          "name": "",
          "type": "bool"
        }
      ],
      "stateMutability": "nonpayable",
      "type": "function"
    },
    {
      "inputs": [],
      "name": "witnetRandomness",
      "outputs": [
        {
          "internalType": "contract IWitnetRandomness",
          "name": "",
          "type": "address"
        }
      ],
      "stateMutability": "view",
      "type": "function"
    },
    {
      "stateMutability": "payable",
      "type": "receive"
    }
  ],
  "bytecode": "0x6080604052683635c9adc5dea000006003556729a2241af62c000060045560036005553480156200002f57600080fd5b5060405162002a4438038062002a448339810160408190526200005291620000d7565b6200005d3362000087565b60018055600280546001600160a01b0319166001600160a01b039290921691909117905562000109565b600080546001600160a01b038381166001600160a01b0319831681178455604051919092169283917f8be0079c531659141344cd1fd0a4f28419497f9722a3daafe3b4186f6b6457e09190a35050565b600060208284031215620000ea57600080fd5b81516001600160a01b03811681146200010257600080fd5b9392505050565b61292b80620001196000396000f3fe6080604052600436106101e75760003560e01c80639c4da5ef11610102578063c391a7c111610095578063e77772fe11610064578063e77772fe1461068a578063f23a6e61146106aa578063f2fde38b146106d6578063f3e414f8146106f657600080fd5b8063c391a7c11461060a578063d453623a1461062a578063d9f165dc1461064a578063dbb44fed1461066a57600080fd5b8063b03e36e0116100d1578063b03e36e014610588578063b7177fad1461059e578063bc197c81146105be578063c309f024146105ea57600080fd5b80639c4da5ef146104fc578063a16ea0d414610532578063a1db978214610552578063a27a74e61461057257600080fd5b806347e9d0741161017a578063698518e511610149578063698518e51461047d57806370805f2214610493578063715018a6146104c95780638da5cb5b146104de57600080fd5b806347e9d0741461039757806355334ea7146103b75780635cb6dfff146103ca5780635e109c621461046857600080fd5b806327eef8b9116101b657806327eef8b9146102ff5780632f37aa6d1461033757806339ead720146103575780633e4687571461037757600080fd5b806301ffc9a7146101f35780630b1fcb4014610228578063150b7a021461025857806315c93910146102bb57600080fd5b366101ee57005b600080fd5b3480156101ff57600080fd5b5061021361020e3660046122ba565b610716565b60405190151581526020015b60405180910390f35b34801561023457600080fd5b506102136102433660046122e4565b600b6020526000908152604090205460ff1681565b34801561026457600080fd5b506102a26102733660046123c9565b50336000908152600860209081526040822080546001810182559083529120015550630a85bd0160e11b919050565b6040516001600160e01b0319909116815260200161021f565b3480156102c757600080fd5b506102f16102d6366004612435565b6001600160a01b031660009081526008602052604090205490565b60405190815260200161021f565b34801561030b57600080fd5b5060025461031f906001600160a01b031681565b6040516001600160a01b03909116815260200161021f565b34801561034357600080fd5b50610213610352366004612452565b61074d565b34801561036357600080fd5b50610213610372366004612474565b610847565b34801561038357600080fd5b506102136103923660046124a9565b6109c4565b3480156103a357600080fd5b506102136103b23660046124d5565b610ab9565b6102136103c5366004612435565b610bb5565b3480156103d657600080fd5b5061042d6103e53660046122e4565b60076020526000908152604090208054600182015460028301546003909301546001600160a01b0392831693919092169163ffffffff81169060ff6401000000009091041685565b604080516001600160a01b0396871681529590941660208601529284019190915263ffffffff1660608301521515608082015260a00161021f565b61047b6104763660046122e4565b610d77565b005b34801561048957600080fd5b506102f160035481565b34801561049f57600080fd5b5061031f6104ae366004612435565b6009602052600090815260409020546001600160a01b031681565b3480156104d557600080fd5b5061047b610f1e565b3480156104ea57600080fd5b506000546001600160a01b031661031f565b34801561050857600080fd5b5061031f610517366004612435565b600a602052600090815260409020546001600160a01b031681565b34801561053e57600080fd5b5061021361054d366004612474565b610f32565b34801561055e57600080fd5b5061021361056d3660046124a9565b611196565b34801561057e57600080fd5b506102f160045481565b34801561059457600080fd5b506102f160055481565b3480156105aa57600080fd5b506102136105b93660046124a9565b6112f9565b3480156105ca57600080fd5b506102a26105d93660046125a0565b63bc197c8160e01b95945050505050565b3480156105f657600080fd5b506102f16106053660046124a9565b611658565b34801561061657600080fd5b5061047b6106253660046122e4565b611689565b34801561063657600080fd5b5061021361064536600461264e565b61171d565b34801561065657600080fd5b50610213610665366004612435565b6118ee565b34801561067657600080fd5b5061047b6106853660046122e4565b611a0b565b34801561069657600080fd5b5060065461031f906001600160a01b031681565b3480156106b657600080fd5b506102a26106c536600461268f565b63f23a6e6160e01b95945050505050565b3480156106e257600080fd5b5061047b6106f1366004612435565b611fc6565b34801561070257600080fd5b506102136107113660046124a9565b61203f565b60006001600160e01b03198216630271189760e51b148061074757506301ffc9a760e01b6001600160e01b03198316145b92915050565b600080600660009054906101000a90046001600160a01b03166001600160a01b031663ad9b44cd6040518163ffffffff1660e01b8152600401602060405180830381865afa1580156107a3573d6000803e3d6000fd5b505050506040513d601f19601f820116820180604052508101906107c791906126f8565b9050336001600160a01b038216146107fa5760405162461bcd60e51b81526004016107f190612715565b60405180910390fd5b6004849055600583905560408051858152602081018590527f7240b53819d9ad591da2c6d5cc4317bfb99daeaa5deb5d86e5266b4ddda730f4910160405180910390a15060019392505050565b600080600660009054906101000a90046001600160a01b03166001600160a01b031663ad9b44cd6040518163ffffffff1660e01b8152600401602060405180830381865afa15801561089d573d6000803e3d6000fd5b505050506040513d601f19601f820116820180604052508101906108c191906126f8565b9050336001600160a01b038216146108eb5760405162461bcd60e51b81526004016107f190612715565b6001600160a01b038581166000908152600a602052604090205416156109535760405162461bcd60e51b815260206004820181905260248201527f737761703a2063616e6e6f742077697468647261772050726f6a6563744e465460448201526064016107f1565b604051637921219560e11b81526001600160a01b0386169063f242432a90610985903090339089908990600401612757565b600060405180830381600087803b15801561099f57600080fd5b505af11580156109b3573d6000803e3d6000fd5b50505050600191505b509392505050565b6001600160a01b038281166000908152600a60205260408120549091166109fd5760405162461bcd60e51b81526004016107f19061278f565b60405163179ffc3360e21b8152600481018390526000906001600160a01b03851690635e7ff0cc906024016020604051808303816000875af1158015610a47573d6000803e3d6000fd5b505050506040513d601f19601f82011682018060405250810190610a6b91906127bf565b11610a7557600080fd5b7fbf6457deb9cf573fcf1d02fe7d69b9252eb93234c206ca1aa5460d49ca6d0f20338484604051610aa8939291906127d8565b60405180910390a150600192915050565b6006546000906001600160a01b0316331480610adf57506000546001600160a01b031633145b610b1c5760405162461bcd60e51b815260206004820152600e60248201526d24b73b30b634b21021b0b63632b960911b60448201526064016107f1565b6001600160a01b038481166000818152600a6020908152604080832080546001600160a01b03199081168a8816908117909255958816808552600984529382902080549096168517909555805133815291820193909352808301939093526060830152517ffb79fd7a650dfff8beb67431543907435e816299415c6d6c6c219f8628547d1b9181900360800190a15060015b9392505050565b6000610bbf6121b7565b6001600160a01b0382811660009081526009602052604090205416610bf65760405162461bcd60e51b81526004016107f19061278f565b6001600160a01b038216600090815260086020526040902054610c4f5760405162461bcd60e51b81526020600482015260116024820152701cddd85c0e881b9bc8139195081b19599d607a1b60448201526064016107f1565b6000600260009054906101000a90046001600160a01b03166001600160a01b031663699b328a346040518263ffffffff1660e01b815260040160206040518083038185885af1158015610ca6573d6000803e3d6000fd5b50505050506040513d601f19601f82011682018060405250810190610ccb91906127bf565b6000818152600760209081526040918290208054336001600160a01b0319918216811783556001830180549092166001600160a01b038a1617909155436002830181905560038301805464ffffffffff1916905584518681529384019190915292820192909252919250907f9cbe10499828304338b5191b737406d750036395ab0a1015c8c14b2f6e1046d59060600160405180910390a1600192505050610d7260018055565b919050565b60008181526007602052604081206002810154909190610d979043612812565b90506064808211610dbe57604051630a8d68bf60e11b8152600481018390526024016107f1565b6003830154640100000000900460ff1615610def576040516382efe32f60e01b8152600481018590526024016107f1565b6000600260009054906101000a90046001600160a01b03166001600160a01b031663699b328a346040518263ffffffff1660e01b815260040160206040518083038185885af1158015610e46573d6000803e3d6000fd5b50505050506040513d601f19601f82011682018060405250810190610e6b91906127bf565b600081815260076020908152604091829020875481546001600160a01b039182166001600160a01b03199182161783556001808b015490840180549190931691161790554360028201556003808201805464ffffffffff191690558801805464010000000064ff000000001990911617905582518981529182018490529293507f9d2aaf515046f99eed9291d5d595994b9bbc3639a76382f0ee72f460c24a5b4b910160405180910390a1505050505050565b610f26612210565b610f30600061226a565b565b6000610f3c6121b7565b6001600160a01b038481166000908152600a602052604090205416610f735760405162461bcd60e51b81526004016107f19061278f565b604051627eeac760e11b8152336004820152602481018490526000906001600160a01b0386169062fdd58e90604401602060405180830381865afa158015610fbf573d6000803e3d6000fd5b505050506040513d601f19601f82011682018060405250810190610fe391906127bf565b9050828110156110355760405162461bcd60e51b815260206004820152601a60248201527f737761703a2062616c616e636520696e73756666696369656e7400000000000060448201526064016107f1565b604051637921219560e11b81526001600160a01b0386169063f242432a90611067903390309089908990600401612757565b600060405180830381600087803b15801561108157600080fd5b505af1158015611095573d6000803e3d6000fd5b5050506001600160a01b038087166000908152600a60205260409020546003549116915063937eb61a906110c99086612825565b6040516001600160e01b031960e084901b16815260048101919091523360248201526044016020604051808303816000875af115801561110d573d6000803e3d6000fd5b505050506040513d601f19601f82011682018060405250810190611131919061283c565b61113a57600080fd5b604080513381526001600160a01b0387166020820152908101859052606081018490527f6df6997c537d5ddf7d8c92e0ac7eebab95ae55405a098df89dc529054f14c77e9060800160405180910390a150506001808055610bae565b600080600660009054906101000a90046001600160a01b03166001600160a01b031663ad9b44cd6040518163ffffffff1660e01b8152600401602060405180830381865afa1580156111ec573d6000803e3d6000fd5b505050506040513d601f19601f8201168201806040525081019061121091906126f8565b9050336001600160a01b0382161461123a5760405162461bcd60e51b81526004016107f190612715565b60405163a9059cbb60e01b8152336004820152602481018490526001600160a01b0385169063a9059cbb906044016020604051808303816000875af1158015611287573d6000803e3d6000fd5b505050506040513d601f19601f820116820180604052508101906112ab919061283c565b6112ef5760405162461bcd60e51b81526020600482015260156024820152741cddd85c0e881dda5d1a191c985dc819985a5b1959605a1b60448201526064016107f1565b5060019392505050565b60006113036121b7565b6001600160a01b038381166000908152600a60205260409020541661133a5760405162461bcd60e51b81526004016107f19061278f565b604051627eeac760e11b81523060048201526000602482015282906001600160a01b0385169062fdd58e90604401602060405180830381865afa158015611385573d6000803e3d6000fd5b505050506040513d601f19601f820116820180604052508101906113a991906127bf565b10156114015760405162461bcd60e51b815260206004820152602160248201527f737761703a696e73756666696369656e74206d696e694e465420696e20706f6f6044820152601b60fa1b60648201526084016107f1565b6000600354836114119190612825565b90506000600454846114239190612825565b6001600160a01b038681166000908152600a60205260409081902054905163079cc67960e41b81523360048201526024810186905292935016906379cc6790906044016020604051808303816000875af1158015611485573d6000803e3d6000fd5b505050506040513d601f19601f820116820180604052508101906114a9919061283c565b6114b257600080fd5b6001600160a01b038086166000908152600a6020908152604091829020546006548351631972b2a960e21b81529351918516946323b872dd94339492909116926365cacaa4926004808401939192918290030181865afa15801561151a573d6000803e3d6000fd5b505050506040513d601f19601f8201168201806040525081019061153e91906126f8565b846040518463ffffffff1660e01b815260040161155d939291906127d8565b6020604051808303816000875af115801561157c573d6000803e3d6000fd5b505050506040513d601f19601f820116820180604052508101906115a0919061283c565b6115a957600080fd5b604051637921219560e11b81526001600160a01b0386169063f242432a906115dc90309033906000908a90600401612757565b600060405180830381600087803b1580156115f657600080fd5b505af115801561160a573d6000803e3d6000fd5b505050507f236f5c62767c43336cff7989303208f7897ab3c998c40937b3f5831f74f97829338686604051611641939291906127d8565b60405180910390a160019250505061074760018055565b6008602052816000526040600020818154811061167457600080fd5b90600052602060002001600091509150505481565b60008181526007602052604090206003810154640100000000900460ff16156116c8576040516311bc2a1760e11b8152600481018390526024016107f1565b60038101805464ff0000000019166401000000001790556040517f697ae94f0e20b63e00d43257160056b6a5993fc0a8a2802546fd394c52eb4e06906117119084815260200190565b60405180910390a15050565b600080600660009054906101000a90046001600160a01b03166001600160a01b031663ad9b44cd6040518163ffffffff1660e01b8152600401602060405180830381865afa158015611773573d6000803e3d6000fd5b505050506040513d601f19601f8201168201806040525081019061179791906126f8565b9050336001600160a01b038216146117c15760405162461bcd60e51b81526004016107f190612715565b6117c96121b7565b6001600160a01b0380861660009081526009602052604090205416806118015760405162461bcd60e51b81526004016107f19061278f565b604051632142170760e11b81526001600160a01b038716906342842e0e90611831908890309089906004016127d8565b600060405180830381600087803b15801561184b57600080fd5b505af115801561185f573d6000803e3d6000fd5b50506040516349bf5b0d60e11b81526103e860048201526001600160a01b0388811660248301528416925063937eb61a91506044016020604051808303816000875af11580156118b3573d6000803e3d6000fd5b505050506040513d601f19601f820116820180604052508101906118d7919061283c565b6118e057600080fd5b60019250506109bc60018055565b60006118f8612210565b6006546001600160a01b0316156119515760405162461bcd60e51b815260206004820152601a60248201527f737761703a20666163746f727920686173206265656e2073657400000000000060448201526064016107f1565b6001600160a01b0382166119b25760405162461bcd60e51b815260206004820152602260248201527f737761703a20666163746f72792063616e206e6f742062652030206164647265604482015261737360f01b60648201526084016107f1565b600680546001600160a01b0319166001600160a01b0384169081179091556040519081527f20690ae37b722d1d6265acdad124822baeb394891cc396d0722cbdb5fa2a683d9060200160405180910390a1506001919050565b60008181526007602052604090819020600280549082015492516326f21bfb60e21b815291926001600160a01b0390911691639bc86fec91611a539160040190815260200190565b602060405180830381865afa158015611a70573d6000803e3d6000fd5b505050506040513d601f19601f82011682018060405250810190611a94919061283c565b611ae05760405162461bcd60e51b815260206004820152601c60248201527f52616e646f6d6e657373206e6f742079657420617661696c61626c650000000060448201526064016107f1565b60028054908201546040516324cbbfc160e01b815263ffffffff6004820152600060248201819052604482019290925290916001600160a01b0316906324cbbfc190606401602060405180830381865afa158015611b42573d6000803e3d6000fd5b505050506040513d601f19601f82011682018060405250810190611b66919061285e565b60038301805491925063ffffffff909116906000611b8383612884565b825463ffffffff9182166101009390930a928302919092021990911617905550815460018301546001600160a01b03908116600081815260096020526040808220549051637921219560e11b81529484169492931691829163f242432a91611bf69187913091906103e890600401612757565b600060405180830381600087803b158015611c1057600080fd5b505af1158015611c24573d6000803e3d6000fd5b5050604051630852cd8d60e31b81526103e860048201526001600160a01b03841692506342966c689150602401600060405180830381600087803b158015611c6b57600080fd5b505af1158015611c7f573d6000803e3d6000fd5b5050505060006005549050816001600160a01b031663f242432a85600660009054906101000a90046001600160a01b03166001600160a01b03166365cacaa46040518163ffffffff1660e01b8152600401602060405180830381865afa158015611ced573d6000803e3d6000fd5b505050506040513d601f19601f82011682018060405250810190611d1191906126f8565b6000856040518563ffffffff1660e01b8152600401611d339493929190612757565b600060405180830381600087803b158015611d4d57600080fd5b505af1158015611d61573d6000803e3d6000fd5b505050506001600160a01b03831660009081526008602052604090205480611dbf5760405162461bcd60e51b81526020600482015260116024820152701cddd85c0e881b9bc8139195081b19599d607a1b60448201526064016107f1565b6000611dd18263ffffffff89166128a7565b6001600160a01b03861660009081526008602052604081208054929350909183908110611e0057611e006128c9565b60009182526020808320909101546001600160a01b038916835260089091526040909120909150611e32600185612812565b81548110611e4257611e426128c9565b906000526020600020015460086000886001600160a01b03166001600160a01b031681526020019081526020016000208381548110611e8357611e836128c9565b60009182526020808320909101929092556001600160a01b0388168152600890915260409020805480611eb857611eb86128df565b60019003818190600052602060002001600090559055856001600160a01b03166342842e0e3089846040518463ffffffff1660e01b8152600401611efe939291906127d8565b600060405180830381600087803b158015611f1857600080fd5b505af1158015611f2c573d6000803e3d6000fd5b505050507fa88be4b765383f2318ac178576a49a6f941e847e2121fbe1c044be72290212fb878783604051611f63939291906127d8565b60405180910390a18854604080518c815263ffffffff8b1660208201526001600160a01b0390921682820152517fdb88d909317fffa790d6c7b7dd37bf03261a44e513951fbb7079c07c2b9c6c7b9181900360600190a150505050505050505050565b611fce612210565b6001600160a01b0381166120335760405162461bcd60e51b815260206004820152602660248201527f4f776e61626c653a206e6577206f776e657220697320746865207a65726f206160448201526564647265737360d01b60648201526084016107f1565b61203c8161226a565b50565b600080600660009054906101000a90046001600160a01b03166001600160a01b031663ad9b44cd6040518163ffffffff1660e01b8152600401602060405180830381865afa158015612095573d6000803e3d6000fd5b505050506040513d601f19601f820116820180604052508101906120b991906126f8565b9050336001600160a01b038216146120e35760405162461bcd60e51b81526004016107f190612715565b6001600160a01b03848116600090815260096020526040902054161561214b5760405162461bcd60e51b815260206004820181905260248201527f737761703a2063616e6e6f742077697468647261772050726f6a6563744e465460448201526064016107f1565b604051632142170760e11b81526001600160a01b038516906342842e0e9061217b903090339088906004016127d8565b600060405180830381600087803b15801561219557600080fd5b505af11580156121a9573d6000803e3d6000fd5b506001979650505050505050565b6002600154036122095760405162461bcd60e51b815260206004820152601f60248201527f5265656e7472616e637947756172643a207265656e7472616e742063616c6c0060448201526064016107f1565b6002600155565b6000546001600160a01b03163314610f305760405162461bcd60e51b815260206004820181905260248201527f4f776e61626c653a2063616c6c6572206973206e6f7420746865206f776e657260448201526064016107f1565b600080546001600160a01b038381166001600160a01b0319831681178455604051919092169283917f8be0079c531659141344cd1fd0a4f28419497f9722a3daafe3b4186f6b6457e09190a35050565b6000602082840312156122cc57600080fd5b81356001600160e01b031981168114610bae57600080fd5b6000602082840312156122f657600080fd5b5035919050565b6001600160a01b038116811461203c57600080fd5b634e487b7160e01b600052604160045260246000fd5b604051601f8201601f1916810167ffffffffffffffff8111828210171561235157612351612312565b604052919050565b600082601f83011261236a57600080fd5b813567ffffffffffffffff81111561238457612384612312565b612397601f8201601f1916602001612328565b8181528460208386010111156123ac57600080fd5b816020850160208301376000918101602001919091529392505050565b600080600080608085870312156123df57600080fd5b84356123ea816122fd565b935060208501356123fa816122fd565b925060408501359150606085013567ffffffffffffffff81111561241d57600080fd5b61242987828801612359565b91505092959194509250565b60006020828403121561244757600080fd5b8135610bae816122fd565b6000806040838503121561246557600080fd5b50508035926020909101359150565b60008060006060848603121561248957600080fd5b8335612494816122fd565b95602085013595506040909401359392505050565b600080604083850312156124bc57600080fd5b82356124c7816122fd565b946020939093013593505050565b6000806000606084860312156124ea57600080fd5b83356124f5816122fd565b92506020840135612505816122fd565b91506040840135612515816122fd565b809150509250925092565b600082601f83011261253157600080fd5b8135602067ffffffffffffffff82111561254d5761254d612312565b8160051b61255c828201612328565b928352848101820192828101908785111561257657600080fd5b83870192505b848310156125955782358252918301919083019061257c565b979650505050505050565b600080600080600060a086880312156125b857600080fd5b85356125c3816122fd565b945060208601356125d3816122fd565b9350604086013567ffffffffffffffff808211156125f057600080fd5b6125fc89838a01612520565b9450606088013591508082111561261257600080fd5b61261e89838a01612520565b9350608088013591508082111561263457600080fd5b5061264188828901612359565b9150509295509295909350565b60008060006060848603121561266357600080fd5b833561266e816122fd565b9250602084013561267e816122fd565b929592945050506040919091013590565b600080600080600060a086880312156126a757600080fd5b85356126b2816122fd565b945060208601356126c2816122fd565b93506040860135925060608601359150608086013567ffffffffffffffff8111156126ec57600080fd5b61264188828901612359565b60006020828403121561270a57600080fd5b8151610bae816122fd565b60208082526022908201527f50657269646f743a2063616c6c6572206973206e6f742050657269646f742044604082015261414f60f01b606082015260800190565b6001600160a01b0394851681529290931660208301526040820152606081019190915260a06080820181905260009082015260c00190565b6020808252601690820152751cddd85c0e881a5b9d985b1a590818dbdb9d1c9858dd60521b604082015260600190565b6000602082840312156127d157600080fd5b5051919050565b6001600160a01b039384168152919092166020820152604081019190915260600190565b634e487b7160e01b600052601160045260246000fd5b81810381811115610747576107476127fc565b8082028115828204841417610747576107476127fc565b60006020828403121561284e57600080fd5b81518015158114610bae57600080fd5b60006020828403121561287057600080fd5b815163ffffffff81168114610bae57600080fd5b600063ffffffff80831681810361289d5761289d6127fc565b6001019392505050565b6000826128c457634e487b7160e01b600052601260045260246000fd5b500690565b634e487b7160e01b600052603260045260246000fd5b634e487b7160e01b600052603160045260246000fdfea2646970667358221220306bd7dfebc5e8b33e14b459e4d0e7dfa6e1ca614bb158873993814d2a76f13864736f6c63430008140033",
  "linkReferences": {},
  "deployedLinkReferences": {}
}