{
  "_format": "hh-sol-artifact-1",
  "contractName": "PeridotVesting",
  "sourceName": "contracts/v1/dao/PeridotVesting.sol",
  "abi": [
    {
      "inputs": [
        {
          "internalType": "address",
          "name": "vestingToken_",
          "type": "address"
        }
      ],
      "stateMutability": "nonpayable",
      "type": "constructor"
    },
    {
      "anonymous": false,
      "inputs": [
        {
          "indexed": true,
          "internalType": "address",
          "name": "grantHolder",
          "type": "address"
        }
      ],
      "name": "GrantRevoked",
      "type": "event"
    },
    {
      "anonymous": false,
      "inputs": [
        {
          "indexed": true,
          "internalType": "address",
          "name": "previousOwner",
          "type": "address"
        },
        {
          "indexed": true,
          "internalType": "address",
          "name": "newOwner",
          "type": "address"
        }
      ],
      "name": "OwnershipTransferred",
      "type": "event"
    },
    {
      "anonymous": false,
      "inputs": [
        {
          "indexed": true,
          "internalType": "address",
          "name": "vestingLocation",
          "type": "address"
        },
        {
          "indexed": false,
          "internalType": "uint32",
          "name": "cliffDuration",
          "type": "uint32"
        },
        {
          "indexed": false,
          "internalType": "uint32",
          "name": "duration",
          "type": "uint32"
        },
        {
          "indexed": false,
          "internalType": "uint32",
          "name": "interval",
          "type": "uint32"
        },
        {
          "indexed": false,
          "internalType": "bool",
          "name": "isRevocable",
          "type": "bool"
        }
      ],
      "name": "VestingScheduleCreated",
      "type": "event"
    },
    {
      "anonymous": false,
      "inputs": [
        {
          "indexed": true,
          "internalType": "address",
          "name": "beneficiary",
          "type": "address"
        },
        {
          "indexed": false,
          "internalType": "uint256",
          "name": "amount",
          "type": "uint256"
        }
      ],
      "name": "VestingTokensClaimed",
      "type": "event"
    },
    {
      "anonymous": false,
      "inputs": [
        {
          "indexed": true,
          "internalType": "address",
          "name": "beneficiary",
          "type": "address"
        },
        {
          "indexed": false,
          "internalType": "uint256",
          "name": "vestingAmount",
          "type": "uint256"
        },
        {
          "indexed": false,
          "internalType": "uint32",
          "name": "startDay",
          "type": "uint32"
        },
        {
          "indexed": false,
          "internalType": "address",
          "name": "vestingLocation",
          "type": "address"
        }
      ],
      "name": "VestingTokensGranted",
      "type": "event"
    },
    {
      "inputs": [
        {
          "internalType": "address",
          "name": "beneficiary",
          "type": "address"
        },
        {
          "internalType": "uint256",
          "name": "vestingAmount",
          "type": "uint256"
        },
        {
          "internalType": "uint32",
          "name": "startDay",
          "type": "uint32"
        },
        {
          "internalType": "uint32",
          "name": "duration",
          "type": "uint32"
        },
        {
          "internalType": "uint32",
          "name": "cliffDuration",
          "type": "uint32"
        },
        {
          "internalType": "uint32",
          "name": "interval",
          "type": "uint32"
        },
        {
          "internalType": "bool",
          "name": "isRevocable",
          "type": "bool"
        }
      ],
      "name": "addGrant",
      "outputs": [],
      "stateMutability": "nonpayable",
      "type": "function"
    },
    {
      "inputs": [
        {
          "internalType": "address",
          "name": "beneficiary",
          "type": "address"
        },
        {
          "internalType": "uint256",
          "name": "vestingAmount",
          "type": "uint256"
        },
        {
          "internalType": "uint32",
          "name": "duration",
          "type": "uint32"
        },
        {
          "internalType": "uint32",
          "name": "cliffDuration",
          "type": "uint32"
        },
        {
          "internalType": "uint32",
          "name": "interval",
          "type": "uint32"
        },
        {
          "internalType": "bool",
          "name": "isRevocable",
          "type": "bool"
        }
      ],
      "name": "addGrantFromToday",
      "outputs": [],
      "stateMutability": "nonpayable",
      "type": "function"
    },
    {
      "inputs": [
        {
          "internalType": "address",
          "name": "beneficiary",
          "type": "address"
        },
        {
          "internalType": "uint256",
          "name": "vestingAmount",
          "type": "uint256"
        },
        {
          "internalType": "uint32",
          "name": "startDay",
          "type": "uint32"
        },
        {
          "internalType": "address",
          "name": "vestingLocation",
          "type": "address"
        }
      ],
      "name": "addGrantWithScheduleAt",
      "outputs": [],
      "stateMutability": "nonpayable",
      "type": "function"
    },
    {
      "inputs": [
        {
          "internalType": "address",
          "name": "beneficiary",
          "type": "address"
        }
      ],
      "name": "claimVestingTokens",
      "outputs": [],
      "stateMutability": "nonpayable",
      "type": "function"
    },
    {
      "inputs": [],
      "name": "claimVestingTokensForAll",
      "outputs": [],
      "stateMutability": "nonpayable",
      "type": "function"
    },
    {
      "inputs": [
        {
          "internalType": "address",
          "name": "grantHolder",
          "type": "address"
        },
        {
          "internalType": "uint32",
          "name": "onDayOrToday",
          "type": "uint32"
        }
      ],
      "name": "getGrantInfo",
      "outputs": [
        {
          "internalType": "uint256",
          "name": "amountVested",
          "type": "uint256"
        },
        {
          "internalType": "uint256",
          "name": "amountNotVested",
          "type": "uint256"
        },
        {
          "internalType": "uint256",
          "name": "amountOfGrant",
          "type": "uint256"
        },
        {
          "internalType": "uint256",
          "name": "amountAvailable",
          "type": "uint256"
        },
        {
          "internalType": "uint256",
          "name": "amountClaimed",
          "type": "uint256"
        },
        {
          "internalType": "uint32",
          "name": "vestStartDay",
          "type": "uint32"
        },
        {
          "internalType": "bool",
          "name": "isActive",
          "type": "bool"
        },
        {
          "internalType": "bool",
          "name": "wasRevoked",
          "type": "bool"
        }
      ],
      "stateMutability": "view",
      "type": "function"
    },
    {
      "inputs": [
        {
          "internalType": "address",
          "name": "vestingLocation",
          "type": "address"
        }
      ],
      "name": "getScheduleAtInfo",
      "outputs": [
        {
          "internalType": "bool",
          "name": "isRevocable",
          "type": "bool"
        },
        {
          "internalType": "uint32",
          "name": "vestDuration",
          "type": "uint32"
        },
        {
          "internalType": "uint32",
          "name": "cliffDuration",
          "type": "uint32"
        },
        {
          "internalType": "uint32",
          "name": "vestIntervalDays",
          "type": "uint32"
        }
      ],
      "stateMutability": "view",
      "type": "function"
    },
    {
      "inputs": [
        {
          "internalType": "address",
          "name": "grantHolder",
          "type": "address"
        }
      ],
      "name": "getScheduleInfo",
      "outputs": [
        {
          "internalType": "bool",
          "name": "isRevocable",
          "type": "bool"
        },
        {
          "internalType": "uint32",
          "name": "vestDuration",
          "type": "uint32"
        },
        {
          "internalType": "uint32",
          "name": "cliffDuration",
          "type": "uint32"
        },
        {
          "internalType": "uint32",
          "name": "vestIntervalDays",
          "type": "uint32"
        }
      ],
      "stateMutability": "view",
      "type": "function"
    },
    {
      "inputs": [],
      "name": "owner",
      "outputs": [
        {
          "internalType": "address",
          "name": "",
          "type": "address"
        }
      ],
      "stateMutability": "view",
      "type": "function"
    },
    {
      "inputs": [],
      "name": "renounceOwnership",
      "outputs": [],
      "stateMutability": "nonpayable",
      "type": "function"
    },
    {
      "inputs": [
        {
          "internalType": "address",
          "name": "grantHolder",
          "type": "address"
        }
      ],
      "name": "revokeGrant",
      "outputs": [],
      "stateMutability": "nonpayable",
      "type": "function"
    },
    {
      "inputs": [
        {
          "internalType": "address",
          "name": "vestingLocation",
          "type": "address"
        },
        {
          "internalType": "uint32",
          "name": "cliffDuration",
          "type": "uint32"
        },
        {
          "internalType": "uint32",
          "name": "duration",
          "type": "uint32"
        },
        {
          "internalType": "uint32",
          "name": "interval",
          "type": "uint32"
        },
        {
          "internalType": "bool",
          "name": "isRevocable",
          "type": "bool"
        }
      ],
      "name": "setVestingSchedule",
      "outputs": [],
      "stateMutability": "nonpayable",
      "type": "function"
    },
    {
      "inputs": [],
      "name": "today",
      "outputs": [
        {
          "internalType": "uint32",
          "name": "dayNumber",
          "type": "uint32"
        }
      ],
      "stateMutability": "view",
      "type": "function"
    },
    {
      "inputs": [
        {
          "internalType": "address",
          "name": "newOwner",
          "type": "address"
        }
      ],
      "name": "transferOwnership",
      "outputs": [],
      "stateMutability": "nonpayable",
      "type": "function"
    },
    {
      "inputs": [],
      "name": "vestingToken",
      "outputs": [
        {
          "internalType": "address",
          "name": "",
          "type": "address"
        }
      ],
      "stateMutability": "view",
      "type": "function"
    },
    {
      "inputs": [
        {
          "internalType": "address",
          "name": "beneficiary",
          "type": "address"
        },
        {
          "internalType": "uint256",
          "name": "amount",
          "type": "uint256"
        }
      ],
      "name": "withdrawTokens",
      "outputs": [],
      "stateMutability": "nonpayable",
      "type": "function"
    }
  ],
  "bytecode": "0x60a060405234801561001057600080fd5b5060405161179e38038061179e83398101604081905261002f91610099565b61003833610049565b6001600160a01b03166080526100c9565b600080546001600160a01b038381166001600160a01b0319831681178455604051919092169283917f8be0079c531659141344cd1fd0a4f28419497f9722a3daafe3b4186f6b6457e09190a35050565b6000602082840312156100ab57600080fd5b81516001600160a01b03811681146100c257600080fd5b9392505050565b6080516116ac6100f26000396000818161013201528181610345015261110501526116ac6000f3fe608060405234801561001057600080fd5b50600436106101005760003560e01c80638dc651fd11610097578063b74e452b11610066578063b74e452b14610277578063e1af3c0514610294578063f2fde38b146102a7578063f9214eec146102ba57600080fd5b80638dc651fd146101e6578063996a63b91461023e578063abd4818414610251578063abe72d3e1461026457600080fd5b806356492406116100d357806356492406146101b25780636db656c3146101ba578063715018a6146101cd5780638da5cb5b146101d557600080fd5b806306b091f9146101055780631817c5a71461011a57806319d152fa1461012d57806336ccda4f14610171575b600080fd5b6101186101133660046112a1565b6102cd565b005b6101186101283660046112cb565b6103bf565b6101547f000000000000000000000000000000000000000000000000000000000000000081565b6040516001600160a01b0390911681526020015b60405180910390f35b61018461017f3660046112cb565b6104cb565b60408051941515855263ffffffff938416602086015291831691840191909152166060820152608001610168565b610118610511565b6101186101c8366004611308565b61056b565b6101186105f5565b6000546001600160a01b0316610154565b6101f96101f436600461138b565b610609565b604080519889526020890197909752958701949094526060860192909252608085015263ffffffff1660a0840152151560c0830152151560e082015261010001610168565b61011861024c3660046113be565b61069d565b61018461025f3660046112cb565b6106b7565b61011861027236600461140b565b6106f9565b61027f610946565b60405163ffffffff9091168152602001610168565b6101186102a2366004611474565b61095a565b6101186102b53660046112cb565b610980565b6101186102c83660046112cb565b6109f6565b6102d5610b1a565b6000811161031f5760405162461bcd60e51b81526020600482015260126024820152710616d6f756e74206d757374206265203e20360741b60448201526064015b60405180910390fd5b60405163a9059cbb60e01b81526001600160a01b038381166004830152602482018390527f0000000000000000000000000000000000000000000000000000000000000000169063a9059cbb906044016020604051808303816000875af115801561038e573d6000803e3d6000fd5b505050506040513d601f19601f820116820180604052508101906103b291906114e5565b6103bb57600080fd5b5050565b6103c7610b1a565b6001600160a01b038082166000908152600260209081526040808320805462010000810490951684526001909252909120909160ff1661043c5760405162461bcd60e51b815260206004820152601060248201526f1b9bdd081858dd1a5d994819dc985b9d60821b6044820152606401610316565b805460ff1661047b5760405162461bcd60e51b815260206004820152600b60248201526a696e7265766f6361626c6560a81b6044820152606401610316565b6001600160a01b038316600081815260026020526040808220805461ffff1916610100179055517fbadc5b2ca6241beb42d4f1c0481f982a91e7aceaca195b8825f6187ad50018e59190a2505050565b6001600160a01b0380821660009081526002602052604081208054919283928392839290916105019162010000909104166106b7565b9450945094509450509193509193565b610519610b1a565b60005b600354811015610568576105566003828154811061053c5761053c611502565b6000918252602090912001546001600160a01b03166109f6565b806105608161152e565b91505061051c565b50565b610573610b1a565b6001600160a01b03871660009081526002602052604090205460ff16156105d35760405162461bcd60e51b81526020600482015260146024820152736772616e7420616c72656164792065786973747360601b6044820152606401610316565b6105e087848685856106f9565b6105ec8787878a610b74565b50505050505050565b6105fd610b1a565b6106076000610ddf565b565b6001600160a01b038216600090815260026020526040812081908190819081908190819081908161063a8c8c610e2f565b600183015490915061064c9082610fbd565b81836001015461065c8585610fd0565b60028601549554939d50919b50995097509195505063ffffffff600160b01b820416935060ff80821693506101009091041690509295985092959890939650565b6106a5610b1a565b6106b184848484610b74565b50505050565b6001600160a01b031660009081526001602052604090205460ff81169163ffffffff600160281b83048116926101008104821692600160481b90910490911690565b610701610b1a565b60008363ffffffff1611801561073057506107206064620592bb61155d565b63ffffffff168363ffffffff1611155b801561074757508263ffffffff168463ffffffff16105b801561075a575060018263ffffffff1610155b6107a65760405162461bcd60e51b815260206004820152601860248201527f696e76616c69642076657374696e67207363686564756c6500000000000000006044820152606401610316565b6107b08284611580565b63ffffffff161580156107d057506107c88285611580565b63ffffffff16155b6108285760405162461bcd60e51b815260206004820152602360248201527f696e76616c696420636c6966662f6475726174696f6e20666f7220696e7465726044820152621d985b60ea1b6064820152608401610316565b60408051608081018252821515815263ffffffff8087166020808401918252878316848601908152878416606086019081526001600160a01b038c166000818152600190945292879020955186549451925191518616600160481b026cffffffff00000000000000000019928716600160281b02929092166cffffffffffffffff000000000019939096166101000264ffffffff00199115159190911664ffffffffff19909516949094179390931716929092171790915590517fb84219eaee5910cc5311a393fbd4287b14bc791973b97f64d4b61b6d8554adc79061093790879087908790879063ffffffff9485168152928416602084015292166040820152901515606082015260800190565b60405180910390a25050505050565b600061095562015180426115a3565b905090565b610962610b1a565b610978868661096f610946565b8787878761056b565b505050505050565b610988610b1a565b6001600160a01b0381166109ed5760405162461bcd60e51b815260206004820152602660248201527f4f776e61626c653a206e6577206f776e657220697320746865207a65726f206160448201526564647265737360d01b6064820152608401610316565b61056881610ddf565b80610a096000546001600160a01b031690565b6001600160a01b0316336001600160a01b03161480610a305750336001600160a01b038216145b610a6e5760405162461bcd60e51b815260206004820152600f60248201526e37b7363ca7bbb732b927b929b2b63360891b6044820152606401610316565b6000610a7b836000611074565b90508015610b15576001600160a01b03831660009081526002602081905260409091200154610aaa908261109f565b6001600160a01b03841660009081526002602081905260409091200155610ad183826110ab565b826001600160a01b03167f5952e800de5564aff4cc315e219327cf6d706cbba481d1613c32f4b1aa17dcdd82604051610b0c91815260200190565b60405180910390a25b505050565b6000546001600160a01b031633146106075760405162461bcd60e51b815260206004820181905260248201527f4f776e61626c653a2063616c6c6572206973206e6f7420746865206f776e65726044820152606401610316565b6001600160a01b03841660009081526002602052604090205460ff1615610bd45760405162461bcd60e51b81526020600482015260146024820152736772616e7420616c72656164792065786973747360601b6044820152606401610316565b600083118015610c005750610bf06201518063386d438061155d565b63ffffffff168263ffffffff1610155b8015610c355750620592bb610c1c6201518063386d438061155d565b610c2691906115b7565b63ffffffff168263ffffffff16105b610c7a5760405162461bcd60e51b8152602060048201526016602482015275696e76616c69642076657374696e6720706172616d7360501b6044820152606401610316565b6040805160c0810182526001808252600060208084018281526001600160a01b0380881686880190815263ffffffff808b1660608901908152608089018d815260a08a018881528f8616808a526002988990528c8a209b518c54985196519451909516600160b01b0263ffffffff60b01b199490971662010000029390931662010000600160d01b03199515156101000261ff00199515159590951661ffff1990981697909717939093179390931694909417929092178755518686015551949091019390935560038054928301815590527fc2575a0e9e593c00f959f8c92f12db2869c3395a3b0502d05e2516446f71f85b0180546001600160a01b0319168217905590517f4c8446f7c7d1fef2c389127c7f901f8b56c628cea596ad7ce805fa5f89097ccb90610dd19086908690869092835263ffffffff9190911660208301526001600160a01b0316604082015260600190565b60405180910390a250505050565b600080546001600160a01b038381166001600160a01b0319831681178455604051919092169283917f8be0079c531659141344cd1fd0a4f28419497f9722a3daafe3b4186f6b6457e09190a35050565b6001600160a01b038083166000908152600260209081526040808320805462010000900490941683526001909152812090919082610e6c85611251565b835490915060ff161580610ead575081548354610e9e9163ffffffff610100909104811691600160b01b9004166115b7565b63ffffffff168163ffffffff16105b15610ed05782600201548360010154610ec691906115db565b9350505050610fb7565b81548354610ef59163ffffffff600160281b909104811691600160b01b9004166115b7565b63ffffffff168163ffffffff1610610f135760009350505050610fb7565b8254600090610f2f90600160b01b900463ffffffff16836115ee565b8354909150600090600160481b900463ffffffff16610f4e818461155d565b610f58919061160b565b84546001870154919250600091610f8d9163ffffffff600160281b909104811691610f87918087169061126d16565b90611279565b90506000610fa8828860010154610fbd90919063ffffffff16565b9750610fb79650505050505050565b92915050565b6000610fc982846115db565b9392505050565b600080610fea838560010154610fbd90919063ffffffff16565b8454909150610100900460ff1615611006576000915050610fb7565b600061101f856002015483610fbd90919063ffffffff16565b905084600101548111158015611047575060018501546002860154611044908361109f565b11155b80156110535750818111155b8015611063575084600101548211155b61106c57600080fd5b949350505050565b6001600160a01b038216600090815260026020526040812061106c8161109a8686610e2f565b610fd0565b6000610fc98284611633565b600081116110f05760405162461bcd60e51b81526020600482015260126024820152710616d6f756e74206d757374206265203e20360741b6044820152606401610316565b6040516370a0823160e01b81523060048201527f00000000000000000000000000000000000000000000000000000000000000006001600160a01b0316906370a0823190602401602060405180830381865afa158015611154573d6000803e3d6000fd5b505050506040513d601f19601f820116820180604052508101906111789190611646565b8111156111c75760405162461bcd60e51b815260206004820152601760248201527f616d6f756e742065786365656465642062616c616e63650000000000000000006044820152606401610316565b6001600160a01b038216600090815260026020819052604090912060018101549101546111f4908361109f565b111561031f5760405162461bcd60e51b815260206004820152602660248201527f636c61696d656420616d6f756e74206d757374206265203c3d206772616e7420604482015265185b5bdd5b9d60d21b6064820152608401610316565b600063ffffffff8216156112655781610fb7565b610fb7610946565b6000610fc9828461165f565b6000610fc982846115a3565b80356001600160a01b038116811461129c57600080fd5b919050565b600080604083850312156112b457600080fd5b6112bd83611285565b946020939093013593505050565b6000602082840312156112dd57600080fd5b610fc982611285565b803563ffffffff8116811461129c57600080fd5b801515811461056857600080fd5b600080600080600080600060e0888a03121561132357600080fd5b61132c88611285565b965060208801359550611341604089016112e6565b945061134f606089016112e6565b935061135d608089016112e6565b925061136b60a089016112e6565b915060c088013561137b816112fa565b8091505092959891949750929550565b6000806040838503121561139e57600080fd5b6113a783611285565b91506113b5602084016112e6565b90509250929050565b600080600080608085870312156113d457600080fd5b6113dd85611285565b9350602085013592506113f2604086016112e6565b915061140060608601611285565b905092959194509250565b600080600080600060a0868803121561142357600080fd5b61142c86611285565b945061143a602087016112e6565b9350611448604087016112e6565b9250611456606087016112e6565b91506080860135611466816112fa565b809150509295509295909350565b60008060008060008060c0878903121561148d57600080fd5b61149687611285565b9550602087013594506114ab604088016112e6565b93506114b9606088016112e6565b92506114c7608088016112e6565b915060a08701356114d7816112fa565b809150509295509295509295565b6000602082840312156114f757600080fd5b8151610fc9816112fa565b634e487b7160e01b600052603260045260246000fd5b634e487b7160e01b600052601160045260246000fd5b60006001820161154057611540611518565b5060010190565b634e487b7160e01b600052601260045260246000fd5b600063ffffffff8084168061157457611574611547565b92169190910492915050565b600063ffffffff8084168061159757611597611547565b92169190910692915050565b6000826115b2576115b2611547565b500490565b63ffffffff8181168382160190808211156115d4576115d4611518565b5092915050565b81810381811115610fb757610fb7611518565b63ffffffff8281168282160390808211156115d4576115d4611518565b63ffffffff81811683821602808216919082811461162b5761162b611518565b505092915050565b80820180821115610fb757610fb7611518565b60006020828403121561165857600080fd5b5051919050565b8082028115828204841417610fb757610fb761151856fea2646970667358221220214249c3d45d355bd705d6e99c51473f01e0a71a680b4fd07710a1f8107f0cea64736f6c63430008140033",
  "linkReferences": {},
  "deployedLinkReferences": {}
}